:020000040000fa
:080000000001040000000000f3
:020000040000fa
:100200002f8d20008079220000018800000000006e
:10021000050007000c000700dc1a020000000000c7
:100220000040da000000fe004440a9000002200067
:100230000000e0000300320000002000a001880060
:100240004440a800000006002050220001002000c9
:100250001600370062004000e080480091018800ed
:100260009001ba0062004000e080480091018800df
:100270009002ba0062004000e08048000002eb00fb
:100280006028e10005003a008301e900070033001f
:10029000038009000059eb00040037006128e100e9
:1002a000010032000082eb00050007009101880088
:1002b0001001ba000200e000e6ff3a00000005006d
:1002c000910188008002780062004000e0804800d0
:1002d0003559ba008301e900080032002559ba00f7
:1002e0008301e900050032000400e000f4ff320061
:1002f00015d9ba008301e900f1ff3a0000000600b9
:10030000889fbe00104680000000e000010032001f
:1003100000000100e04580000000e0000100320024
:1003200000000100304080000000e00001003200c9
:1003300000000100004080000000e00001003200e9
:1003400000000100c448e20027003a00f0458000a8
:10035000014680000004eb00d260260093012000db
:100360006c010700f2352f00e3c6230000004100b6
:10037000818049000804e800e80f5400f6ff3a00c5
:10038000f0458800014688000004eb0089802000c9
:10039000d260260093012000f045800001468000d5
:1003a0005c010700f2352f00e3c623000000410086
:1003b00081804900f045880001468800809cbe008d
:1003c0000804e80000022000800f5400f0ff3a000b
:1003d0002044800031448000104088002140880083
:1003e00010c0b300c4e8b700d2602600930120001b
:1003f000f04580000146800046010700f2352f00dd
:10040000e3c623000000410081804900f0458800d8
:1004100001468800124080000201d000e203b200d1
:100420008201410082802000028141001202be0050
:1004300014408800254088000089be0010408000dc
:10044000214080000100780000f0a1004f04be00b0
:1004500000000600889fbe008a9fbe00010578004c
:100460000100e0000400350008003c000000e0004e
:10047000200032000500370060001000e080180006
:1004800002003b0001f02c001a0037000004be00ff
:100490006011b8006b0920000982cf00020039000a
:1004a0000882cf000441b000694252000e003200c1
:1004b00008003b0082817100610164008904d10061
:1004c0000884d3008b05e8000442e800f9ff3a00f5
:1004d000050037000804440089844c008b05e900be
:1004e0000442e900fbff3a00b70007000af0a7004a
:1004f00001f0a0004f05be004f04be000000060042
:10050000889fbe008a9fbe008c1f7800d400070021
:10051000db00330003866c006450e10024003200ed
:100520006420e100270032006150e1002200320027
:100530006120e100210032008b854200eb07b10011
:100540000134b800003ab8000804420089844a0027
:10055000013ab8000030b8008880400009014a0024
:10056000040033000000400081804800020149007f
:100570008b05e900c909dd0083017000010032002c
:1005800013002000c814de004814dd004709de0017
:100590001200b200c808de00088470008a0007005c
:1005a00001f0a1000cf0a70001f0a000bd00370091
:1005b0006120e100bf0032000801be000200be0061
:1005c000f7ff37006150e100fcff3a00b900370047
:1005d0000001be00ba0007000470a70003f0a100ec
:1005e0006509b100160032000d0035006828e100f1
:1005f00006003500f0ff2f00f1ff27000300e000a8
:1006000013003b000100280000000500000040002e
:10061000818048008502e900fcff3a0008003700ad
:10062000f88f420002003c008000eb000000050053
:100630008100d1000080d3008502e800fcff3a0071
:100640000300e00002003b0060001000e0801800a2
:1006500000000600889fbe008a9fbe008c1f7800a5
:100660007f0007008600330003866c006450e100c1
:100670002e0032006420e100330032006150e100be
:100680002f0032006120e1003100320085855500e5
:10069000eb07b00009002000080420000500370027
:1006a0000804440089844c000a003100060343001a
:1006b00087834b000001530081815b00f8ff33000a
:1006c0000203be000800a0000804440089844c0016
:1006d000f6ff3900c639dd008301730001003200e6
:1006e000130020008904d1000884d3000998a300d6
:1006f000050032000800a7000300a0008904d10013
:100700000884d3008b05e8008904d1000884d30055
:100710000001eb000281d2002b00070001f0a100d4
:100720000cf0a70001f0a0005e0037006420e1009b
:10073000600032000801be000200be00f7ff370073
:100740006120e1005b0032006000b800f3ff370079
:100750000000200001f82700f0ff37000001be0074
:10076000570007000470a70003f0a10003f8a300de
:1007700013003a006509b10010003200090035008d
:100780006928e10002003500010028000000050092
:1007900000004000818048008502e900fcff3a002b
:1007a00000000600f88f4200050035008100d100ee
:1007b0000080d3008502e800fcff3a00000006003c
:1007c0008000eb00000005008100200061805500e2
:1007d0000b003d000b00200061fe2f000100e10036
:1007e0001d00340082817100610164008904d10020
:1007f0000884d3000000e800faff3a0071002000ee
:100800006100640003007000020060000900320013
:1008100061044400e0844c000988a5000500320012
:100820008b05e8006808e10002003a008904d10065
:100830000884d300f20f20000258e10005003d00bb
:10084000c75ddd00f907b2008980750008007800f7
:10085000000006000bf827008b0078000000050060
:100860000004be00160007000003be000405be0021
:100870000200be0012000700844f75000000060051
:100880000200be006450e100050036006420e10073
:10089000020036000968a30001003a000800be000b
:1008a0000160a0004f0678004f05be004f04be0057
:1008b00000000600f0ff2f00f1ff2700f9ff3700ce
:1008c000c70ade00f107b200f50fb20008003200df
:1008d000e1cf4200020032000170a00024000500b8
:1008e000810f70000100320004080500440005007b
:1008f000810f700002003a00140005008502e90033
:100900000000400081c04800fcff3b000170a000d7
:1009100024000500020ab900001bb9000200b8005b
:100920008100420081004300000006000e00fa0032
:100930006000b80030079800410798000000eb0005
:10094000200798000000eb00100798000000eb0063
:10095000000f78008508070072090700700707007c
:10096000100020002c070700100020001f080700bf
:100970001000200011080700400620004f08070063
:100980004006200021080700000037002e009000dc
:10099000cf80de00affe07006266260063f623000c
:1009a000d7fe07000aff0700200798001e009000ee
:1009b000cf80de00a7fe07006266260063f62300f4
:1009c000cffe070002ff0700100798002e009000de
:1009d0006002b000200798001e0090006002b00086
:1009e000100798006000b800300798004107980091
:1009f000930037003e00900028090700800078002f
:100a0000301f2000808f5000840034003e00900092
:100a1000ce00900050079800610798003000200039
:100a2000010020005e019000ee019000800f510057
:100a3000818f59004f00320030002000010020005b
:100a40005e019000ee019000800f5100818f5900ef
:100a500014003c0010002000010020005e01900006
:100a6000ee019000800f5100818f5900310032005b
:100a700010002000010020005e019000ee019000b7
:100a8000800f5100818f590032003c005e009000c1
:100a9000ee009000e00f5000e08f58001e00320082
:100aa0005a00370050002000010020005e01900035
:100ab000ee019000800f5100818f59003d003200ff
:100ac00050002000010020005e019000ee01900027
:100ad000800f5100818f59002e00350060002000ea
:100ae000010020005e019000ee019000800f510097
:100af000818f590037003200700020000100200073
:100b00005e019000ee019000800f5100818f59002e
:100b1000380032003d0037002e0090006009b00020
:100b2000200798001e0090004006b00010079800b3
:100b3000360037002e0090004006b00020079800d5
:100b40009e009000c0f92f00008040001007980020
:100b50002e0037002e009000c012b0002007980031
:100b60009e00900000e72f000080400010079800d2
:100b7000260037002e0090000019b00020079800d2
:100b80009e00900040ed2f0000804000100798006c
:100b90001e0037002e0090000019b00020079800ba
:100ba0009e00900040ed2f0000804000100798004c
:100bb00016003700ae00900000e72f0000804000d4
:100bc000200798001e009000c012b0001007980087
:100bd0000e003700ae009000c0f92f0000804000ea
:100be000200798001e0090004006b00010079800f3
:100bf000060037002e0090006009b0002007980022
:100c00001e0090004006b000100798003e009000c3
:100c100011002000d5040700030037003e009000bb
:100c20008000eb00d10407003e009000ce00900051
:100c300061004000e08048003007980041079800bc
:100c40003e019000ce0190006000200001002000d5
:100c5000800f5100818f590066ff34000000eb00c7
:100c60008e0807008000780000322000808f50003e
:100c700006003c0070002000880807008000780013
:100c800000322000808f5000350034006000b80032
:100c90003007980041079800090037003e00900097
:100ca00011002000b10407003e009000ce0090002b
:100cb00061004000e080480030079800410798003c
:100cc0003e019000ce019000600020000100200055
:100cd000800f5100818f5900f0ff34001000200078
:100ce0006f060700803e200074070700803e20004a
:100cf000460707006000b8003007980041079800d9
:100d000007003700000000003e009000ce00900079
:100d100061004000e08048003007980041079800db
:100d20003e019000ce019000f04f2300c100200052
:100d3000800f5100818f5900f2ff340078060700c0
:100d40000000eb0056060700c0c72f0020079800e0
:100d5000c0c72f001007980010002000000f780077
:100d6000ae009000803e2000808f500002003400d2
:100d7000803e2000200798009e009000803e2000ca
:100d8000808f500002003400803e20001007980041
:100d9000ae00900080c12f00808f500002003d0007
:100da00080c12f00200798009e00900080c12f0076
:100db000808f500002003d0080c12f001007980076
:100dc0006000b8003007980041079800070037001e
:100dd000000000003e009000ce0090006100400046
:100de000e080480030079800410798003e019000dd
:100df000ce019000f0c3290001002000800f5100b7
:100e0000818f5900f2ff34001e0090002b0707006d
:100e10002e009000fd060700130020009e8f110099
:100e2000dafe3a006000b8003007980041079800e9
:100e300007003700000000003e009000ce00900048
:100e400061004000e08048003007980041079800aa
:100e50003e019000ce019000f069280011002000b2
:100e6000800f5100818f5900f2ff34000000eb0029
:100e7000000f7800c5fe37001a00fa006000b800c5
:100e8000000f9800110f98006000b80060079800ec
:100e900071079800350707002208070020060700a1
:100ea00010002000dc05070010002000cf0607001e
:100eb00010002000c10607000000eb00500798005a
:100ec0000000eb00400798000000eb00300798009e
:100ed0000000eb0020079800f60037006000b80023
:100ee000200f9800310f9800070037000000000025
:100ef0002e089000be08900061004000e08048008d
:100f0000200f9800310f98002e099000be09900024
:100f1000f069280011002000800f5100818f5900d6
:100f2000f2ff34005e0090006002b00050079800ad
:100f30004e0090006002b000400798005e009000f4
:100f4000cf80de0043fd07006266260063f62300c3
:100f50006bfd07009efd0700500798004e009000b3
:100f6000cf80de003bfd07006266260063f62300ab
:100f700063fd070096fd0700400798000000eb00a6
:100f8000100798006c0037001e009000c307070090
:100f900080007800301f2000808f500060003400f7
:100fa0001e009000400f98004e089000e30f500084
:100fb000310032004e089000e30f50000a003c0060
:100fc0004e089000e10f50001b0032004e089000c8
:100fd000e10f500020003c004e0890000000e000af
:100fe0000e0032004a0037004e089000e50f500016
:100ff000310032004e089000e50f50002600350009
:101000004e089000e60f5000330032004e0890006a
:10101000e70f5000380032003d0037005e009000be
:101020006009b000500798004e0090004006b000e4
:1010300040079800360037005e0090004006b00080
:1010400050079800ce009000c0f92f0000804000ab
:10105000400798002e0037005e009000c012b000dc
:1010600050079800ce00900000e72f00008040005d
:1010700040079800260037005e0090000019b0007d
:1010800050079800ce00900040ed2f0000804000f7
:10109000400798001e003700de00900040ed2f0052
:1010a00000804000500798004e0090000019b000ea
:1010b0004007980016003700de00900000e72f0080
:1010c00000804000500798004e009000c012b00011
:1010d000400798000e003700de009000c0f92f0096
:1010e00000804000500798004e0090004006b0007d
:1010f00040079800060037004e0090006009b000dd
:10110000400798005e0090004006b000500798002d
:101110001e00900011002000940307000300370018
:101120001e0090008000eb00900307001e0090005e
:101130000000e800100798001e009000e60f500025
:1011400091ff340030002000540707008000780031
:1011500000322000808f500006003c00400020003c
:101160004e0707008000780000322000808f50007a
:1011700016003400c02b20005007980000ce2f002e
:10118000400798006000b800200f9800310f9800c9
:1011900007003700000000002e089000be089000f5
:1011a00061004000e0804800200f9800310f980057
:1011b0002e099000be099000f0692800110020005f
:1011c000800f5100818f5900f2ff34000000eb00c6
:1011d0003207070080007800401f2000808f5000f9
:1011e0000c003400700020002c07070080007800fd
:1011f000401f2000808f5000060034002000200097
:10120000200798000000eb00500798000000eb005a
:10121000400798006000b800200f9800310f980038
:1012200007003700000000002e089000be08900064
:1012300061004000e0804800200f9800310f9800c6
:101240002e099000be099000f0c329000100200083
:10125000800f5100818f5900f2ff34004e00900042
:10126000160607005e009000e80507000e089000d3
:101270009e08900061004000e0804800000f980048
:10128000110f98000e0890009e0890006100400029
:10129000e0804800000f9800110f98000e089000a1
:1012a0009e08900061004000e0804800000f980018
:1012b000110f98002e0090000000e00007ff3200a0
:1012c000fa00370020002000f406070080007800b4
:1012d000f0182000808f500041003c00c012200018
:1012e0005007980020032000400798004e0090000f
:1012f000f20507005e009000c40507006000b8001a
:10130000200f9800310f9800070037000000000000
:101310002e089000be08900061004000e080480068
:10132000200f9800310f98002e099000be09900000
:10133000f0c3290001002000800f5100818f590067
:10134000f2ff34000e0890009e08900061005000eb
:10135000e0805800000f9800110f9800200037001f
:1013600040ed2f0050079800c01220004007980061
:101370004e009000d10507005e009000a305070015
:101380006000b800200f9800310f98000700370068
:10139000000000002e089000be0890006100400090
:1013a000e0804800200f9800310f98002e0990002f
:1013b000be099000f0c3290001002000800f5100f9
:1013c000818f5900f2ff34000e0890009e089000b3
:1013d00061005000e0805800000f9800110f980045
:1013e0000000eb00ad06070080007800301f2000f1
:1013f000808f5000daff3c0070002000a706070035
:1014000080007800703e2000808f5000d4ff3c00a8
:1014100010002000a106070080007800f0312000b5
:10142000808f5000ceff3c00200020009b0607006c
:101430008000780080252000808f50001a00340042
:10144000a00f200050079800c0122000400798000d
:101450004e009000990507005e0090006b050700a4
:101460006000b800200f9800310f98000700370087
:10147000000000002e089000be08900061004000af
:10148000e0804800200f9800310f98002e0990004e
:10149000be099000f0c3290001002000800f510018
:1014a000818f5900f2ff3400200020007b060700e6
:1014b00080007800f0182000808f50004800340031
:1014c0000000eb007506070080007800401f200038
:1014d000808f500042003c00700020006f06070023
:1014e0008000780000322000808f50003c003c00db
:1014f00010002000690607008000780000322000fc
:10150000808f500036003c0060002000630607001a
:101510008000780000322000808f500030003c00b6
:10152000200020005d060700800078008025200054
:10153000808f50002a003c00c01220005007980005
:10154000c0122000400798005e009000cf80de00af
:10155000c0fb07006266260063f62300e8fb070075
:101560001bfc0700500798004e009000cf80de0063
:10157000b8fb07006266260063f62300e0fb070065
:1015800013fc0700400798004e0090004b05070031
:101590005e0090001d0507006000b800200f980055
:1015a000310f980007003700000000002e0890005f
:1015b000be08900061004000e0804800200f9800c5
:1015c000310f98002e099000be099000f0c3290049
:1015d00001002000800f5100818f5900f2ff34007c
:1015e000500020002d060700800078008025200094
:1015f000808f500006003c00600020002706070096
:101600008000780080252000808f50001a00340070
:10161000c012200050079800a00f2000400798003b
:101620004e009000250507005e009000f7040700bb
:101630006000b800200f9800310f980007003700b5
:10164000000000002e089000be08900061004000dd
:10165000e0804800200f9800310f98002e0990007c
:10166000be099000f0c3290001002000800f510046
:10167000818f5900f2ff34000e0890009e08900000
:1016800061005000e0805800000f9800110f980092
:101690000e0890009e089000e00f5000e08f580068
:1016a00002003d0030002000200798002e0090002e
:1016b000e10f500003ff3200640037000e08900075
:1016c0009e0890000000a200610060000004e0009d
:1016d0003a00320000e72f005007980000e72f0083
:1016e000400798004e009000f40407005e00900050
:1016f000c60407006000b800200f9800310f980062
:1017000007003700000000002e089000be0890007f
:1017100061004000e0804800200f9800310f9800e1
:101720002e099000be099000f0112a0071002000df
:10173000800f5100818f5900f2ff340000e72f0025
:101740005007980000192000400798004e009000b4
:10175000da0407005e009000ac0407006000b800e7
:10176000200f9800310f980007003700000000009c
:101770002e089000be08900061004000e080480004
:10178000200f9800310f98002e099000be0990009c
:10179000f0082d0031002000800f5100818f59008a
:1017a000f2ff34000000eb00200798006000b80052
:1017b000000f9800110f980024003700100020003f
:1017c00020079800cefa07005200200011000900ff
:1017d0000200d8008000fd000080e800cf80de001d
:1017e00060079800710798008e0890006e009000c6
:1017f000000bb8008e0890007e0090000088b900b1
:101800000701780000014100ee0090001e089000e2
:101810000088b90000014100820378006e0090004a
:101820000032b8007e00900000b0b90005017800d9
:10183000000141006e0090000780b90000014100e6
:1018400082027800040f9800150f98002e00900077
:10185000e20f500099ff32002e009000e30f50007d
:1018600094fe3a000000eb00000f780004003700ff
:101870001e00780011002000bc0107001e0fe800c8
:10188000600020009e0f1000f9ff34006000b800d7
:10189000000f9800110f98000000eb00200798003f
:1018a00000e72f005007980000192000400798001b
:1018b0004e009000810407005e0090005304070072
:1018c0006000b800200f9800310f98000700370023
:1018d000000000002e089000be089000610040004b
:1018e000e0804800200f9800310f98002e099000ea
:1018f000be099000f02f250071002000800f5100dc
:10190000818f5900f2ff34000000eb00000f7800d7
:10191000040037001e0078008000eb0093010700f0
:101920001e0fe800600020009e0f1000f9ff340039
:10193000c012200050079800c012200040079800f5
:101940004e0090005d0407005e0090002f04070029
:101950006000b800200f9800310f98000700370092
:10196000000000002e089000be08900061004000ba
:10197000e0804800200f9800310f98002e09900059
:10198000be099000f0972a0031002000800f51001e
:10199000818f5900f2ff340046fe37000200fa0042
:1019a0000000eb00000f78000c0037001e007800ec
:1019b000110020006d0107000000eb00000f78000f
:1019c00002003700000000001e0fe800f070220047
:1019d0009e0f1000fbff34001e0fe8006000200087
:1019e0009e0f1000f1ff34000080fa000000060096
:1019f0000800fa005d0407004a05070048030700d5
:101a0000100020000403070010002000f703070067
:101a100010002000e903070040062000100798008e
:101a200040062000000f78001e0078002304070005
:101a30001e009000f5030700000037000000eb00d7
:101a4000160507008000780000322000808f5000cb
:101a500012003c00100020001005070080007800f4
:101a600000322000808f50000c003c0060002000fd
:101a70000a0507008000780000322000808f5000a7
:101a800006003c007000200004050700800078007c
:101a900000322000808f50005a00340080c12f0097
:101aa0001007980080c12f00000f78001e007800fa
:101ab000020407001e009000d4030700b7ff0700d0
:101ac0006000b80020079800310798000700370031
:101ad000000000002e009000be0090006100400059
:101ae000e080480020079800310798002e01900000
:101af000be019000f00f270021002000800f510050
:101b0000818f5900f2ff3400c0c72f0010079800e2
:101b100040382000000f78001e007800e70307001f
:101b20001e009000b90307009cff07006000b8008a
:101b300020079800310798000700370000000000d8
:101b40002e009000be00900061004000e080480040
:101b500020079800310798002e019000be019000e8
:101b6000f07b220091002000800f5100818f5900ee
:101b7000f2ff3400803e200010079800803e2000d5
:101b8000000f78001e007800cc0307001e009000b4
:101b90009e03070081ff07006000b800200798003f
:101ba0003107980007003700000000002e00900069
:101bb000be00900061004000e080480020079800cf
:101bc000310798002e019000be019000f00f270011
:101bd00021002000800f5100818f5900f2ff340056
:101be000400620001007980040062000000f7800f3
:101bf0001e007800b10307001e0090008303070059
:101c00008eff370020002000a40407008000780029
:101c100000322000808f500012003c003000200075
:101c20009e0407008000780000322000808f500062
:101c30000c003c0040002000980407008000780061
:101c400000322000808f500006003c005000200031
:101c5000920407008000780000322000808f50003e
:101c600024003400803e200010079800803e2000b1
:101c7000000f78001e007800900307001e009000ff
:101c80006203070045ff07006000b80020079800c6
:101c90003107980007003700000000002e00900078
:101ca000be00900061004000e080480020079800de
:101cb000310798002e019000be019000f00f270020
:101cc00021002000800f5100818f5900f2ff340065
:101cd000400620001007980040062000000f780002
:101ce0001e007800750307001e00900047030700e0
:101cf00052ff37008a02070050ff37000000fa0049
:101d0000190007000080fa00000006000600fa0033
:101d1000000f7800110798002207980005e1a9003c
:101d2000500020002e000700800078001e00780080
:101d3000010878006000200029000700800078007a
:101d40001e009000010878007000200024000700a9
:101d5000800078002e0090000108780005e1a800be
:101d60000080fa00000006000000fa000000eb000e
:101d7000201588002015800010158800101580009f
:101d800000158800a802a800a822a800a842a9005f
:101d9000a862a900a882a900a8a2a900a8c2a900b7
:101da000a8e2a900a902a900a922a900a942a900a4
:101db000a962a900a982a900a9a2a900a9c2a90093
:101dc000a9e2a90020012000201588007000200051
:101dd00030158800a1e2a8000080fa00000006008b
:101de0000600fa00100798001e009000ef0f500048
:101df000030036000000eb002007980012003700b7
:101e00001e00900030158800a022a8000000eb0002
:101e1000000f7800010037001e0fe800700220005c
:101e20009e0f1000fcff34008560a900a022a900cd
:101e300085c0bf00684060000004e000fcff320085
:101e400000148000200798002e0090000080fa0007
:101e5000000006000000fa00c4c2a900c4e2a90004
:101e6000c522a900c582a900c542a900c5a2a90032
:101e7000c5c2a900c5e2a900c0c2a900c0e2a9006c
:101e8000c122a900c182a900c142a900c1a2a90022
:101e9000c1c2a900c1e2a900d022a900cc22a90098
:101ea000d042a900cc42a900e2e2a900e302a900c5
:101eb000e802a900e822a900dee2a900df02a900e9
:101ec000e402a900e422a900e202a900de02a900be
:101ed000d602a900d622a900d642a900d662a9003e
:101ee000d682a900d6a2a900d6c2a900d6e2a9002e
:101ef000d202a900d222a900d242a900d262a9002e
:101f0000d282a900d2a2a900d2c2a900d2e2a9001d
:101f1000d1a2a900cda2a900e842a900e862a900c7
:101f2000e442a900e462a900de22a800dec2a80003
:101f3000e4c2a800e4e2a800e502a800e522a800a7
:101f4000de22a800d302a800d322a800d342a80012
:101f5000d362a800d382a800d3a2a800d3c2a8004d
:101f6000d3e2a8000080fa00000006000600fa0094
:101f7000000f7800110798001e00780020079800d5
:101f80002e009000e30f50007d0032002e009000e4
:101f9000e30f500007003e002e009000e10f5000bc
:101fa000380032002e009000e10f500057003e0034
:101fb0000d0037002e009000e50f5000b2003200f7
:101fc0002e009000e50f5000900039002e00900088
:101fd000e60f5000d10032002e009000e70f5000b5
:101fe000f5003200160137001e009000e10f50008e
:101ff00014003600c4c2bf000080fb004600de00b3
:10200000614060000004a200614060006140600027
:1020100000404000004040000040400000404000c0
:102020000040400000414000412c200091407800d9
:10203000f0cbb30000c0600002407000c4e2b70003
:10204000730137001e009000614060006140600035
:102050000040400000404000004040000040400080
:102060000040400000414000412c20009140780099
:10207000f0cbb30000c0600002407000c4e2b700c3
:10208000630137001e009000e10f50001100360080
:10209000c4c2bf000080fb004700de000004a200b5
:1020a00061406000004040000040400000404000af
:1020b00000404000004040000040400080404000a0
:1020c000c4c2bf000074a10001407000c4e2b700a8
:1020d0004f0137001e00900061406000004040004a
:1020e00000404000004040000040400000404000f0
:1020f0000040400080404000c4c2bf000074a10006
:1021000001407000c4e2b700410137001e0090009a
:10211000e10f50000f003600c5c2bf000080fb0079
:102120000000d100614060000004a2006140600036
:102130006140600000414000512c20009140780037
:10214000d0cfb30000c0600002407000c5e2b7000d
:102150002f0137001e009000614060006140600068
:1021600000414000512c200091407800d0cfb300b6
:1021700000c0600002407000c5e2b70024013700d3
:102180001e009000e10f500012003600c5c2bf00d3
:102190000080fb004400de00614060000004a200fb
:1021a000614060006140600000404000004040002d
:1021b0000040400000414000512c20009140780038
:1021c000f0ceb30000c0600002407000c5e2b7006e
:1021d0000f0137001e009000614060006140600008
:1021e00000404000004040000040400000414000ee
:1021f000512c200091407800f0ceb30000c0600068
:1022000002407000c5e2b700010137001e009000d7
:10221000e10f500010003600c5c2bf000080fb0077
:102220004200de00614060000004a20061406000e6
:10223000614060000040400000414000512c2000ff
:1022400091407800b0cfb30000c060000240700041
:10225000c5e2b700ee0037001e009000614060004c
:10226000614060000040400000414000512c2000cf
:1022700091407800b0cfb30000c060000240700011
:10228000c5e2b700e20037001e009000e10f5000e9
:1022900013003600c5c2bf000080fb004500de0011
:1022a000614060000004a200614060006140600085
:1022b000004040000040400000404000004040001e
:1022c00000414000512c200091407800f0cdb30037
:1022d00000c0600002407000c5e2b700cc003700cb
:1022e0001e009000614060006140600000404000be
:1022f00000404000004040000040400000414000dd
:10230000512c200091407800f0cdb30000c0600057
:1023100002407000c5e2b700bd0037001e0090000b
:10232000e10f500014003600c5c2bf000080fb0062
:102330004600de00614060000004a20061406000d1
:10234000614060000040400000404000004040000c
:10235000004040000040400000414000512c20005f
:1023600091407800f0cbb30000c0600002407000e4
:10237000c5e2b700a60037001e0090006140600073
:1023800061406000004040000040400000404000cc
:10239000004040000040400000414000512c20001f
:1023a00091407800f0cbb30000c0600002407000a4
:1023b000c5e2b700960037001e009000e10f500004
:1023c00011003600c5c2bf000080fb004700de00e0
:1023d0000004a20061406000004040000040400056
:1023e00000404000004040000040400000404000ed
:1023f00080404000c5c2bf000074a10001407000d1
:10240000c5e2b700820037001e0090006140600006
:1024100000404000004040000040400000404000bc
:10242000004040000040400080404000c5c2bf0066
:102430000074a10001407000c5e2b70074003700cd
:102440001e009000614060000040400000404000dd
:10245000004040000040400000404000004040007c
:1024600080404000c5c2bf000074a1000140700060
:10247000c5e2b700c5c2bf000080fb004700de0018
:1024800061406000004040000040400000404000cb
:10249000004040000040400000414000512c20001e
:1024a00091407800f0cbb30000c0600002407000a3
:1024b000c5e2b700c5c2bf000080fb004600de00d9
:1024c000614060006140600000404000004040000a
:1024d000004040000040400000414000512c2000de
:1024e00091407800f0cdb30000c060000240700061
:1024f000c5e2b700c5c2bf000080fb004500de009a
:1025000061406000614060000040400000414000c8
:10251000512c200091407800b0cfb30000c0600083
:1025200002407000c5e2b700c5c2bf000080fb00da
:102530004200de00614060006140600000404000f9
:10254000004040000040400000414000512c20006d
:1025500091407800f0ceb30000c0600002407000ef
:10256000c5e2b700c5c2bf000080fb004400de002a
:10257000614060006140600000414000512c20003b
:1025800091407800d0cfb30000c0600002407000de
:10259000c5e2b700c5c2bf000080fb000000d1004b
:1025a00061406000004040000040400000404000aa
:1025b000004040000040400000404000804040009b
:1025c000c4c2bf000074a10001407000c4e2b700a3
:1025d000c4c2bf000080fb004700de006140600015
:1025e00000404000004040000040400000404000eb
:1025f0000040400000414000412c20009140780004
:10260000f0cbb30000c0600002407000c4e2b7002d
:102610000080fa00000006000200fa00000f7800b7
:10262000100020009e0f100010003600d0c2bf0026
:102630000080fb004200de00614060000004a20058
:102640006140600061406000004040000041400087
:10265000012d200091407800b0cfb30000c0600091
:1026600002407000d0e2b7000b0037001e00780077
:102670006140600061406000004040000041400057
:10268000012d200091407800b0cfb30000c0600061
:1026900002407000d0e2b7000080fa00000006009f
:1026a0000200fa00000f7800100020009e0f1000ba
:1026b0000f003600d0c2bf000080fb000000d10038
:1026c000614060000004a200614060006140600061
:1026d00000414000012d200091407800d0cfb30090
:1026e00000c0600002407000d0e2b7000a0037006e
:1026f0001e007800614060006140600000414000c1
:10270000012d200091407800d0cfb30000c06000c0
:1027100002407000d0e2b7000080fa00000006001e
:102720000000fa00c4c2a900c4e2a900c522a900a1
:10273000c582a900c542a900c5a2a900c5c2a900b9
:10274000c5e2a9000080fa000000060000a0fe001b
:102750003400f800881f780008c0b300a801880082
:102760004f0478000200fa0086c0a90030468000bd
:102770000000e0000c003400504680000000e8003b
:1027800050468800704680000000e90070468800ce
:10279000704680000000e0000e003d003000200088
:1027a000704688000b003700504680000000e900aa
:1027b00050468800704680000000e800704688009f
:1027c00070468000e30f5000020034000000eb0070
:1027d0007046880070468000000f78001e00780068
:1027e000e10f5000130032001e007800e10f50008e
:1027f00004003c001e0078000000e00008003200e9
:102800001a0037001e007800e20f50000e00320060
:102810001e007800e30f5000100032001300370054
:10282000d602a900d622a800d642a900d662a800e6
:102830000e003700d602a900d622a800d642a80072
:10284000d662a90009003700d602a800d622a90046
:10285000d642a800d662a90004003700d602a8001c
:10286000d622a900d642a900d662a8000080fa00ac
:102870003400f9000080fe000040060000a0fe00c9
:102880003400f800881f780008c0b300a801880051
:102890004f0478000200fa0086a0a900404680009c
:1028a0000000e0000c003d00604680000000e900f0
:1028b00060468800804680000000e900804688006d
:1028c000804680000000e0000e003d003000200047
:1028d000804688000b003700604680000000e8005a
:1028e00060468800804680000000e800804688003e
:1028f00080468000e30f5000020034000000eb002f
:102900008046880080468000000f78001e00780016
:10291000e10f5000130032001e007800e10f50005c
:1029200004003c001e0078000000e00008003200b7
:102930001a0037001e007800e20f50000e0032002f
:102940001e007800e30f5000100032001300370023
:10295000d682a900d6a2a800d6c2a900d6e2a800b5
:102960000e003700d682a900d6a2a800d6c2a800c1
:10297000d6e2a90009003700d682a800d6a2a90095
:10298000d6c2a800d6e2a90004003700d682a8006b
:10299000d6a2a900d6c2a900d6e2a8000080fa00fb
:1029a0003400f9000080fe00004006000000fa003c
:1029b000504680000080fa00000006000200fa0085
:1029c000000f78001027fc001e0078005046880099
:1029d0000200fc000080fa00000006000000fa007f
:1029e000604680000080fa00000006000200fa0045
:1029f000000f78001027fc001e0078006046880059
:102a00000200fc000080fa00000006000400fa004a
:102a1000000f78001e00e00006003a0021e1a90046
:102a2000d602a900d622a900d642a900d662a900e2
:102a30002000370021e1a9001e0078003046880000
:102a40000000eb000009880001122000914078008e
:102a500000c3b30000c0700020e1b7000000eb002d
:102a6000c00888001e017800120798001e00900020
:102a70000000e00003003d001e0190000201ea009a
:102a8000120798001e0190006110b90071f607004e
:102a90000001be000000200011762400edf60700c2
:102aa0002ef70700e008880086c0a9008ec0a800a5
:102ab00021e1a8000080fa00000006000400fa00ee
:102ac000000f78001e00e00006003a001fe1a90098
:102ad000d682a900d6a2a900d6c2a900d6e2a90032
:102ae000200037001fe1a9001e0078004046880042
:102af0000000eb00f0088800e11120009140780010
:102b000000c3b30000c070001ee1b7000000eb007e
:102b1000a00888001e017800120798001e0090008f
:102b20000000e00003003d001e0190000201ea00e9
:102b3000120798001e0190006110b90045f60700c9
:102b40000001be000000200011762400c1f607003d
:102b500002f70700d008880086a0a9008ea0a80070
:102b60001fe1a8000080fa00000006000000fa0043
:102b7000b8fc07000080fa00000006000000fa0020
:102b80000000eb00200888004110200091407800f0
:102b9000f0ccb30000c060000044a00004e1b70026
:102ba0000000eb0000088800502820001008880072
:102bb0008460a9008c60a80005e1a8000080fa00ec
:102bc0000000060000a0fe003600f800849fbe0052
:102bd000869fbe003400f80004c0b300a401880042
:102be0000200fa008460a90040448000000f7800d1
:102bf0001e007800e10f5000330032001e00780004
:102c0000e10f500004003c001e0078000000e000ce
:102c1000080032009a0037001e007800e20f5000d2
:102c20004e0032001e007800e30f500070003200aa
:102c300093003700504480000000e0000c003a0090
:102c400050282000100888008000200064fc070045
:102c500060448800c000200061fc0700a044880098
:102c6000e2e2a800100020005044880084003700f1
:102c7000e0f12000100888008000200058fc0700c8
:102c8000e0448800c000200055fc07002045880073
:102c900061448000e044800000805000604588006e
:102ca000a14480002045800000805000a04588009d
:102cb000e2e2a9000000eb00504488001000200070
:102cc000404488006e003700504480000000e0005f
:102cd0000c003a00502820001008880090002000c6
:102ce0003ffc070070448800d00020003cfc070037
:102cf000b0448800e302a80010002000504488007f
:102d00005f003700e0f120001008880090002000ec
:102d100033fc0700f0448800d000200030fc07009e
:102d20003045880071448000f044800000805000ed
:102d300070458800b144800030458000008050001c
:102d4000b0458800e302a9000000eb005044880071
:102d50002000200040448800490037005044800093
:102d60000000e0000c003a00502820001008880005
:102d7000a00020001afc070080448800e00020002a
:102d800017fc0700c0448800e802a80010002000db
:102d9000504488003a003700e0f120001008880015
:102da000a00020000efc070000458800e000200085
:102db0000bfc0700404588008144800000458000ee
:102dc0000080500080458800c1448000404580005c
:102dd00000805000c0458800e802a9000000eb0018
:102de0005044880030002000404488002400370010
:102df000504480000000e0000c003a005028200001
:102e000010088800b0002000f5fb070090448800ff
:102e1000f0002000f2fb0700d0448800e822a80060
:102e2000100020005044880015003700e0f1200019
:102e300010088800b0002000e9fb0700104588005a
:102e4000f0002000e6fb0700504588009144800018
:102e5000104580000080500090458800d1448000db
:102e60005045800000805000d0458800e822a9002d
:102e70000000eb00504488000000eb004044880054
:102e80000080fa003400f9004f03be004f02be007c
:102e90003600f9000080fe00004006000400fa0041
:102ea000000f7800700020009e0f10000300360015
:102eb0000000eb0010079800060037001e007800a5
:102ec00080004000c08a2000008040001000780090
:102ed000100798001e0090000080fa000000060015
:102ee0000400fa00000f7800700020009e0f100010
:102ef000030036000000eb001007980006003700c2
:102f00001e00780080004000c08820000080400043
:102f100010007800100798001e0090000080fa0052
:102f2000000006000000fa008ffb070013ff0700f7
:102f30000080fa00000006002000fa00881f7800d8
:102f40006000b800400f9800510f98000000eb009f
:102f5000300f98000000eb00200f980000c42900fb
:102f600001002000000f9800110f980000d42000ed
:102f70003100200060079800710798006000b800d9
:102f800040079800510798000000eb0030079800b8
:102f9000f6fe0700e3ff0700e1fd07001000200038
:102fa0009dfd07001000200090fe0700100020008b
:102fb00082fe070040062000c0fe070040062000f9
:102fc00092fe07003e089000cf80de0021f507004a
:102fd0006266260063f6230049f507007cf50700ca
:102fe000300f98002e089000cf80de0019f5070002
:102ff0006266260063f6230041f5070074f50700ba
:10300000200f98003e0890006002b000300f98003a
:103010002e0890006002b000200f98006000b800f9
:10302000400f9800510f98008c0037004e08900018
:103030009aff070080007800301f2000808f50002a
:10304000800034004e089000de089000600f980069
:10305000710f980030002000010020006e099000e0
:10306000fe099000800f5100818f59004f003200ff
:1030700030002000010020006e099000fe09900041
:10308000800f5100818f590014003c001000200077
:10309000010020006e099000fe099000800f510091
:1030a000818f590031003200100020000100200003
:1030b0006e099000fe099000800f5100818f590029
:1030c00032003c006e089000fe089000e00f5000b7
:1030d000e08f58001e0032005a00370050002000d8
:1030e000010020006e099000fe099000800f510041
:1030f000818f59003d003200500020000100200067
:103100006e099000fe099000800f5100818f5900d8
:103110002e00350060002000010020006e099000a4
:10312000fe099000800f5100818f59003700320056
:1031300070002000010020006e099000fe09900040
:10314000800f5100818f5900380032003d00370058
:103150003e089000c012b000300f98002e0890007a
:103160004006b000200f9800360037003e0890005f
:103170004006b000300f9800ae089000c0f92f0054
:1031800000804000200f98002e0037003e0890007d
:10319000c012b000300f9800ae08900000e72f007a
:1031a00000804000200f9800260037003e08900065
:1031b0000019b000300f9800ae08900040ed2f00cd
:1031c00000804000200f98001e0037003e0890004d
:1031d0000019b000300f9800ae08900040ed2f00ad
:1031e00000804000200f980016003700be089000b5
:1031f00000e72f0000804000300f98002e0890005c
:10320000c012b000200f98000e003700be089000da
:10321000c0f92f0000804000300f98002e08900069
:103220004006b000200f9800060037003e089000ce
:10323000c012b000300f98002e0890004006b00079
:10324000200f98004e089000de08900061004000ba
:10325000e0804800400f9800510f98004e09900000
:10326000de0990006000200001002000800f510066
:10327000818f59006dff34004e009000de009000f9
:1032800061004000e0804800400798005107980026
:103290000000eb0001ff0700000478007000200030
:1032a000fefe0700800044004f08de0001004000e1
:1032b0000080d100200798002e0090000000e00060
:1032c00002003c0010002000200798006e009000d3
:1032d000fe009000008fbe000000eb00effe070034
:1032e0008000780040382000808f500006003c00ad
:1032f00070002000e9fe07008000780040382000c0
:10330000808f5000080034001e00be0051f40700fa
:10331000d2cc2c00c3ec230079f40700acf40700f6
:10332000008fbe00130037000000eb00dbfe07003b
:1033300080007800c0122000808f500006003c0002
:1033400070002000d5fe070080007800c012200029
:10335000808f5000070034001e00be003df40700bf
:10336000a299290093f1230065f4070098f407005f
:10337000008fbe00ce0090000e089000000ab8003a
:10338000ce0090001e0890000088b900050178006a
:10339000000141008e0890005e0090000088b90096
:1033a0000001410082027800be0f5200ae8f5a0029
:1033b0001a0034003e0090006100100030079800b1
:1033c0006000b800400f9800510f980009003700c6
:1033d000be0090004e089000e4fa07004e089000ee
:1033e000de08900061004000e0804800400f980037
:1033f000510f98004e099000de09900060002000f7
:1034000001002000800f5100818f5900f0ff34002f
:103410006000b80040079800510798000000eb00da
:103420009efe070080007800c0762000808f50004c
:1034300016003400800c2000300f980080f32f001d
:10344000200f98006000b800400f9800510f9800be
:1034500007003700000000004e089000de089000d2
:1034600061004000e0804800400f9800510f980034
:103470004e099000de099000f08723001100200023
:10348000800f5100818f5900f2ff3400700020003e
:1034900082fe070080007800c0762000808f5000f8
:1034a0001600340080f32f00300f9800800c2000ad
:1034b000200f98006000b800400f9800510f98004e
:1034c00007003700000000004e089000de08900062
:1034d00061004000e0804800400f9800510f9800c4
:1034e0004e099000de099000f087230011002000b3
:1034f000800f5100818f5900f2ff3400be08900008
:1035000000322000808f5000020034000032200082
:10351000300f9800ae08900000322000808f5000dd
:103520000200340000322000200f9800be089000f6
:1035300000ce2f00808f500002003d0000ce2f00f3
:10354000300f9800ae08900000ce2f00808f500002
:1035500002003d0000ce2f00200f98006000b80050
:10356000400f9800510f980007003700000000003e
:103570004e089000de08900061004000e0804800a6
:10358000400f9800510f98004e099000de099000fe
:103590000e0890009e089000800f5100818f590006
:1035a000f2ff35002e08900044fd07003e08900011
:1035b00016fd070083fe37000400fa0035000700ff
:1035c000000f78001e007800100798001e00900081
:1035d000e20f5000150032001e009000e20f500074
:1035e00007003c001e0090000000e0000b003200cd
:1035f0001e009000e10f50000a0032001100370059
:103600001e009000e30f50000a0032001e009000e0
:10361000e40f5000090032000a003700c3f407002d
:1036200009003700f2f807000700370012f607001c
:103630000500370040fe0700030037007503070050
:10364000010037002f0007000080fa00000006008c
:103650000800fa0020079800310798006000b800c1
:10366000008fbe0004003700100020000100200081
:103670001e0f40005e9748002e009000be00900094
:10368000be0f1000ae8f1800f7ff35000080fa0063
:10369000000006000000fa00e6c2bf000080fb0048
:1036a0004600de00614060000081fb00e7c2bf0011
:1036b0000080fb000000d100614060000080fb0042
:1036c0000000400080007800e7c2bf006140600059
:1036d0000080fb0000804000000040008000780077
:1036e000e6c2bf000080fb004700de000080fb0058
:1036f0000080400000004000000041000080fa000f
:10370000000006003400fa006000b800400f980086
:10371000510f98000000eb00300f98000000eb0004
:10372000200f98000000eb00100f98000000eb0045
:10373000000f980040062000700798000019200034
:1037400060079800c02b200050079800400120001f
:10375000400798000000eb0030079800fc0047008d
:10376000204f2a0007000900b01878000101b100bd
:103770000001b1004001200020079800fbfc070079
:10378000e8fd0700e6fb070010002000a2fb070091
:103790001000200095fc07001000200087fc0700a7
:1037a00040062000c5fc07004006200097fc0700eb
:1037b000000037000e089000e10f500019013a0098
:1037c0003e089000cf80de0022f3070062662600ec
:1037d00063f623004af307007df30700300f9800db
:1037e0002e089000cf80de001af3070062662600e4
:1037f00063f6230042f3070075f30700200f9800db
:103800003e0890006002b000300f98002e08900033
:103810006002b000200f98006000b800400f9800d0
:10382000510f98008c0037004e0890009bfd070058
:103830008000780070252000808f500080003400c8
:103840004e089000de0890006017980071179800ed
:1038500030002000010020006e119000fe11900049
:10386000800f5100818f59004f003200300020003e
:10387000010020006e119000fe119000800f510099
:10388000818f590014003c0010002000010020002e
:103890006e119000fe119000800f5100818f590031
:1038a0003100320010002000010020006e11900055
:1038b000fe119000800f5100818f590032003c00b2
:1038c0006e109000fe109000e00f5000e08f580046
:1038d0001e0032005a003700500020000100200076
:1038e0006e119000fe119000800f5100818f5900e1
:1038f0003d00320050002000010020006e119000b9
:10390000fe119000800f5100818f59002e0035006c
:1039100060002000010020006e119000fe11900058
:10392000800f5100818f5900370032007000200055
:10393000010020006e119000fe119000800f5100d8
:10394000818f5900380032003d0037003e0890005a
:103950004006b000300f98002e0890002003b00001
:10396000200f9800360037003e0890004006b00057
:10397000300f9800ae089000c0f92f000080400082
:10398000200f98002e0037003e0890004006b0003f
:10399000300f9800ae089000c0f92f000080400062
:1039a000200f9800260037003e089000800cb000e1
:1039b000300f9800ae08900080f32f000080400088
:1039c000200f98001e0037003e089000800cb000c9
:1039d000300f9800ae08900080f32f000080400068
:1039e000200f980016003700be089000c0f92f0085
:1039f00000804000300f98002e0890004006b00074
:103a0000200f98000e003700be089000e0fc2f0049
:103a100000804000300f98002e0890002003b00076
:103a2000200f9800060037003e0890004006b000c6
:103a3000300f98002e0890002003b000200f98004f
:103a40004e089000de08900061004000e0804800d1
:103a5000400f9800510f98004e099000de09900029
:103a60006000200001002000800f5100818f59006c
:103a70006dff3400be0090004e00900000804000ba
:103a800030079800be0890003e0090000080500073
:103a9000300f9800ae0890003e009000008040007b
:103aa000200f9800ce009000200320000088b9006d
:103ab000800078003e009000808f500007003500a5
:103ac000ce009000e0fc2f000088b9008000780054
:103ad0003e009000808f500004003400ce00900023
:103ae0000080eb000088b900400798000000eb0060
:103af000100798000000eb00e8fc07008000780049
:103b000080252000808f500006003c0070002000bf
:103b1000e2fc07008000780080252000808f5000a4
:103b20000200340010002000100798001e009000d2
:103b3000e10f50001e003a005e009000b3fb07004a
:103b40005e009000ddfb07006000b800400f9800a9
:103b5000510f980007003700000000004e08900049
:103b6000de08900061004000e0804800400f9800af
:103b7000510f98004e099000de099000f047280090
:103b8000e1012000800f5100818f5900f2ff3400c5
:103b9000c0f92f00300f9800c0f92f00200f9800b7
:103ba0000000eb001007980010002000100f980094
:103bb000be0890006e009000808f5000020034001c
:103bc000ee019000330f9800ae0890006e00900058
:103bd000808f5000020034006e009000200f98008b
:103be0006e0090008000ea003e089000808f500038
:103bf000030034006e0090000000ea00300f9800cf
:103c00006e0090008000ea002e089000808f500027
:103c1000d20134006e0090000000ea00200f9800ee
:103c2000ce0137003e089000cf80de0009f2070089
:103c30006266260063f6230031f2070064f2070093
:103c4000300f98002e089000cf80de0001f20700b0
:103c50006266260063f6230029f207005cf2070083
:103c6000200f98003e0890006002b000300f9800ce
:103c70002e0890006002b000200f98006000b8008d
:103c8000400f9800510f98008f0037004e089000a9
:103c900082fc070080007800301f2000808f5000d9
:103ca000830034004e099000de099000021f980046
:103cb000131f980030002000010020000e19900012
:103cc0009e199000800f5100818f590050003200e2
:103cd00030002000010020000e1990009e19900075
:103ce000800f5100818f590014003c00100020000b
:103cf000010020000e1990009e199000800f5100c5
:103d0000818f590032003200100020000100200095
:103d10000e1990009e199000800f5100818f59005c
:103d200033003c000e1890009e189000e00f5000e9
:103d3000e08f58001e0032005d0037005000200068
:103d4000010020000e1990009e199000800f510074
:103d5000818f59003e0032005000200001002000f9
:103d60000e1990009e199000800f5100818f59000c
:103d70002f00350060002000010020000e19900087
:103d80009e199000800f5100818f59003800320039
:103d900070002000010020000e1990009e19900074
:103da000800f5100818f59003900320040003700e8
:103db0003e0890004006b000300f9800ae0890001a
:103dc000e0fc2f0000804000200f980038003700f2
:103dd000be089000c0f92f0000804000300f98000e
:103de0002e0890004006b000200f980030003700e9
:103df000be089000c0f92f0000804000300f9800ee
:103e00002e0890004006b000200f980028003700d0
:103e1000be08900080f32f0000804000300f980013
:103e20002e089000800cb000200f98002000370072
:103e3000be08900080f32f0000804000300f9800f3
:103e40002e089000800cb000200f9800180037005a
:103e50003e0890004006b000300f9800ae08900079
:103e6000c0f92f0000804000200f9800100037009c
:103e70003e0890002003b000300f9800ae0890007c
:103e8000e0fc2f0000804000200f98000800370061
:103e9000be089000c0f92f0000804000300f98004d
:103ea000ae089000e0fc2f0000804000200f98003a
:103eb0004e089000de08900061004000e08048005d
:103ec000400f9800510f98004e099000de099000b5
:103ed0006000200001002000800f5100818f5900f8
:103ee0006aff34000000eb00ecfb07008000780064
:103ef00000322000808f500012003c001000200093
:103f0000e6fb07008000780000322000808f500020
:103f10000c003c0060002000e0fb070080007800ff
:103f200000322000808f500006003c00700020000e
:103f3000dafb07008000780000322000808f5000fc
:103f40000500340060f02f00300f980000ce2f00e5
:103f5000200f98001c00370020002000cffb070036
:103f60008000780000322000808f500012003c005a
:103f700030002000c9fb07008000780000322000dc
:103f8000808f50000c003c0040002000c3fb070065
:103f90008000780000322000808f500006003c0036
:103fa00050002000bdfb0700800078000032200098
:103fb000808f500004003400c0122000300f9800a1
:103fc000c0122000200f9800be0890006e009000e4
:103fd000808f500002003400ee019000330f9800f3
:103fe000ae0890006e009000808f500002003400f8
:103ff0006e009000200f98006e0090008000ea0094
:104000003e089000808f5000030034006e00900046
:104010000000ea00300f98006e0090008000ea0077
:104020002e089000808f5000030034006e00900036
:104030000000ea00200f98000000eb00000f78005d
:104040006000b800400f9800510f98002a00370018
:104050004e08900091fb070080007800f0312000ae
:10406000808f5000170034004e099000de09900048
:10407000fc004700020078000000400060807800eb
:104080000002e800fc004700020078000000400049
:1040900001004000040878004e089000de089000ff
:1040a0007c01470000004000e00079002e009000f5
:1040b000808f50000a00340010002000000f7800ac
:1040c000070037004e089000de0890007c01470092
:1040d00000004000820040000000eb0080087800f3
:1040e0004e089000de08900061004000e08048002b
:1040f000400f9800510f98004e099000de09900083
:104100006000200001002000800f5100818f5900c5
:10411000cfff3400110020009e8f10008f003a0066
:104120005000200065fa07005000200037fa070011
:104130007bf907001000200059f907006000b80063
:10414000400f9800510f9800070037000000000052
:104150004e089000de08900061004000e0804800ba
:10416000400f9800510f98004e099000de09900012
:10417000f0d3200031002000800f5100818f5900c2
:10418000f2ff3400110020000000eb0077f7070079
:104190006000b800400f9800510f980007003700ea
:1041a000000000004e089000de0890006100400012
:1041b000e0804800400f9800510f98004e09900091
:1041c000de099000f069280011002000800f5100e6
:1041d000818f5900f2ff3400110020007000200090
:1041e00062f7070011002000100020005ff70700b1
:1041f0006000b800400f9800510f9800070037008a
:10420000000000004e089000de08900061004000b1
:10421000e0804800400f9800510f98004e09900030
:10422000de099000f069280011002000800f510085
:10423000818f5900f2ff340011002000200020007f
:104240004af70700110020006000200047f7070030
:104250006000b800400f9800510f98000700370029
:10426000000000004e089000de0890006100400051
:10427000e0804800400f9800510f98004e099000d0
:10428000de099000f069280011002000800f510025
:10429000818f5900f2ff340011002000300020000f
:1042a00032f7070011002000500020002ff7070010
:1042b0006000b800400f9800510f980007003700c9
:1042c000000000004e089000de08900061004000f1
:1042d000e0804800400f9800510f98004e09900070
:1042e000de099000f069280011002000800f5100c5
:1042f000818f5900f2ff340011002000400020009f
:104300001af707006000b800400f9800510f98009e
:1043100007003700000000004e089000de08900003
:1043200061004000e0804800400f9800510f980065
:104330004e099000de099000f0692800110020006d
:10434000800f5100818f5900f2ff34000000eb0014
:10435000d3f8070010002000000f98006000b8009c
:10436000400f9800510f9800070037000000000030
:104370004e089000de08900061004000e080480098
:10438000400f9800510f98004e099000de099000f0
:10439000f0c3290001002000800f5100818f5900d7
:1043a000f2ff34002e089000c4f907003e08900088
:1043b00096f907001e089000e10f5000fdfc3a003e
:1043c0006000b800400f9800510f980007003700b8
:1043d000000000004e089000de08900061004000e0
:1043e000e0804800400f9800510f98004e0990005f
:1043f000de099000f069280011002000800f5100b4
:10440000818f5900f2ff34000000eb00100f98007c
:10441000e8fc37000e00fa00d4f90700c1fa0700e3
:10442000bff807001100200040002000cff6070071
:10443000100020006df90700100020005ff9070050
:104440000000eb00400798000000eb0030079800e8
:104450000000eb0020079800730037006000b800f0
:10446000500798006107980007003700000000001f
:104470005e009000ee00900061004000e080480087
:1044800050079800610798005e019000ee019000cf
:10449000f069280011002000800f5100818f590021
:1044a000f2ff3400c012200040079800c012200024
:1044b000300798004e009000cf80de00e5ef070047
:1044c0006266260063f623000df0070040f0070047
:1044d000400798003e009000cf80de00ddef07002f
:1044e0006266260063f6230005f0070038f0070037
:1044f000300798006000b8005007980061079800e6
:1045000007003700000000005e009000ee00900001
:1045100061004000e0804800500798006107980063
:104520005e019000ee019000f0c329000100200020
:10453000800f5100818f5900f2ff34003e0090003f
:104540005ef907004e00900030f907000000eb0014
:1045500052fa070080007800301f2000808f500042
:1045600006003c00700020004cfa07008000780034
:10457000301f2000808f50001c00340040ed2f00c1
:1045800040079800c0122000300798006000b80073
:1045900050079800610798000700370000000000ee
:1045a0005e009000ee00900061004000e080480056
:1045b00050079800610798005e019000ee0190009e
:1045c000f0c3290001002000800f5100818f5900a5
:1045d000f2ff34003e00900038f907004e009000d2
:1045e0000af9070010002000200798002000200092
:1045f0002afa070080007800301f2000808f5000ca
:10460000090034000000eb00000f780003003700c1
:1046100010002000200798001e0fe8000071220003
:104620009e0f1000faff34002e0090000000e00002
:104630008aff3200e70037002000200017fa070049
:1046400080007800f0182000808f500035003c007a
:10465000c0122000400798000000eb0030079800cf
:104660003e00900015f907004e009000e7f80700a3
:104670006000b800500798006107980007003700f5
:10468000000000005e009000ee009000610040001d
:10469000e080480050079800610798005e01900094
:1046a000ee019000f0c3290001002000800f5100ae
:1046b000818f5900f2ff34001a00370040ed2f00bf
:1046c00040079800c0122000300798003e0090007c
:1046d000faf807004e009000ccf807006000b80020
:1046e000500798006107980007003700000000009d
:1046f0005e009000ee00900061004000e080480005
:1047000050079800610798005e019000ee0190004c
:10471000f0c3290001002000800f5100818f590053
:10472000f2ff34000000eb00dcf9070080007800a5
:10473000301f2000808f50000c003c0070002000d3
:10474000d6f9070080007800703e2000808f50006e
:1047500006003c0010002000d0f90700800078001f
:10476000f0312000808f500006003400200020002f
:10477000caf9070080007800301f2000808f5000a9
:10478000ceff3c0020002000c4f907008000780024
:1047900080252000808f50001a003400a00f2000d8
:1047a00040079800c0122000300798003e0090009b
:1047b000c2f807004e00900094f807006000b800af
:1047c00050079800610798000700370000000000bc
:1047d0005e009000ee00900061004000e080480024
:1047e00050079800610798005e019000ee0190006c
:1047f000f0c3290001002000800f5100818f590073
:10480000f2ff340020002000a4f9070080007800a7
:10481000f0182000808f5000480034000000eb00aa
:104820009ef9070080007800401f2000808f500014
:1048300042003c007000200098f9070080007800da
:1048400000322000808f50003c003c00100020000f
:1048500092f907008000780000322000808f50001d
:1048600036003c00600020008cf9070080007800d2
:1048700000322000808f500030003c0020002000db
:1048800086f907008000780080252000808f500086
:104890002a003c00c012200040079800c0122000ef
:1048a000300798004e009000cf80de00e9ee070050
:1048b0006266260063f6230011ef070044ef07004d
:1048c000400798003e009000cf80de00e1ee070038
:1048d0006266260063f6230009ef07003cef07003d
:1048e000300798003e00900074f807004e009000da
:1048f00046f807006000b80050079800610798006c
:1049000007003700000000005e009000ee009000fd
:1049100061004000e080480050079800610798005f
:104920005e019000ee019000f0c32900010020001c
:10493000800f5100818f5900f2ff34005000200099
:1049400056f907008000780080252000808f5000f5
:1049500006003c006000200050f90700800078004d
:1049600080252000808f50001a003400c0122000e3
:1049700040079800a00f2000300798003e009000ec
:104980004ef807004e00900020f807006000b800c5
:1049900050079800610798000700370000000000ea
:1049a0005e009000ee00900061004000e080480052
:1049b00050079800610798005e019000ee0190009a
:1049c000f0c3290001002000800f5100818f5900a1
:1049d000f2ff34002e009000e10f500016ff32006d
:0449e00011ff37008c
:020000040000fa
:100008003025000030250000302500003025000094
:100018003025000030250000302500003025000084
:10002800302500003025000030250000e2150000d2
:100038003025000030250000302500003025000064
:100048003025000030250000302500003025000054
:100058003025000030250000302500003025000044
:100068003025000030250000302500003025000034
:10007800302500003e140000a613000030250000c3
:100088003025000030250000302500003025000014
:100098003025000030250000302500003025000004
:1000a80030250000302500003025000030250000f4
:1000b80030250000302500003025000030250000e4
:1000c80030250000302500003025000030250000d4
:1000d80030250000302500003025000030250000c4
:1000e80030250000302500003025000030250000b4
:0800f800302500003025000056
:020000040000fa
:100108003025000030250000302500003025000093
:100118003025000030250000302500003025000083
:10012800302500003025000030250000e2150000d1
:100138003025000030250000302500003025000063
:100148003025000030250000302500003025000053
:100158003025000030250000302500003025000043
:100168003025000030250000302500003025000033
:10017800302500003e140000a613000030250000c2
:100188003025000030250000302500003025000013
:100198003025000030250000302500003025000003
:1001a80030250000302500003025000030250000f3
:1001b80030250000302500003025000030250000e3
:1001c80030250000302500003025000030250000d3
:1001d80030250000302500003025000030250000c3
:1001e80030250000302500003025000030250000b3
:0801f800302500003025000055
:020000040000fa
:1049e4003000000030000000300000003000000003
:1049f40030000000300000003000000030000000f3
:020000040000fa
:104a0400c6080000080000000200000000000000ca
:104a14000000000000000000ce08000004000000b8
:104a240000000000880800003400000000000000be
:104a3400bc0800000a0000000200000000000100a1
:104a4400000000000000000000000000000800005a
:0c4a5400880000000000000000000000ce
:020000040000fa
:044a60000000fe0054
:00000001FF
