:020000040000fa
:080000000001040000000000f3
:020000040000fa
:100200000fa4200080792200000188000000000077
:10021000050007000c000700340a0200000000007f
:100220000040da000000fe004440a9000000200069
:100230000000e0000300320000002000a001880060
:100240004440a800000006002040210001002000da
:100250001600370062004000e080480091018800ed
:100260009001ba0062004000e080480091018800df
:100270009002ba0062004000e08048000002eb00fb
:100280006028e10005003a008301e900070033001f
:10029000038009000059eb00040037006128e100e9
:1002a000010032000082eb00050007009101880088
:1002b0001001ba000200e000e6ff3a00000005006d
:1002c000910188008002780062004000e0804800d0
:1002d0003559ba008301e900080032002559ba00f7
:1002e0008301e900050032000400e000f4ff320061
:1002f00015d9ba008301e900f1ff3a0000000600b9
:10030000889fbe008a9fbe00010578000100e000c2
:100310000400350008003c000000e000200032002e
:100320000500370060001000e080180002003b006c
:1003300001f02c001a0037000004be006011b80064
:100340006b0920000982cf00020039000882cf002b
:100350000441b000694252000e00320008003b0028
:1003600082817100610164008904d1000884d30096
:100370008b05e8000442e800f9ff3a000500370069
:100380000804440089844c008b05e9000442e9001c
:10039000fbff3a00b70007000af0a70001f0a00039
:1003a0004f05be004f04be0000000600889fbe003f
:1003b0008a9fbe008c1f7800d4000700db0033004a
:1003c00003866c006450e100240032006420e100e8
:1003d000270032006150e100220032006120e1007c
:1003e000210032008b854200eb07b1000134b800d8
:1003f000003ab8000804420089844a00013ab80073
:100400000030b8008880400009014a000400330031
:100410000000400081804800020149008b05e9008e
:10042000c909dd00830170000100320013002000c3
:10043000c814de004814dd004709de001200b200d7
:10044000c808de00088470008a00070001f0a100df
:100450000cf0a70001f0a000bd0037006120e10012
:10046000bf0032000801be000200be00f7ff3700e7
:100470006150e100fcff3a00b90037000001be0006
:10048000ba0007000470a70003f0a1006509b100dd
:10049000160032000d0035006828e1000600350026
:1004a000f0ff2f00f1ff27000300e00013003b00e6
:1004b0000100280000000500000040008180480085
:1004c0008502e900fcff3a0008003700f88f42007f
:1004d00002003c008000eb00000005008100d1001c
:1004e0000080d3008502e800fcff3a000300e00032
:1004f00002003b0060001000e080180000000600d1
:10050000889fbe008a9fbe008c1f78007f00070076
:100510008600330003866c006450e1002e00320038
:100520006420e100330032006150e1002f0032000e
:100530006120e1003100320085855500eb07b000f5
:1005400009002000080420000500370008044400ca
:1005500089844c000a0031000603430087834b0066
:100560000001530081815b00f8ff33000203be00ed
:100570000800a0000804440089844c00f6ff3900fc
:10058000c639dd0083017300010032001300200032
:100590008904d1000884d3000998a3000500320023
:1005a0000800a7000300a0008904d1000884d3003c
:1005b0008b05e8008904d1000884d3000001eb001a
:1005c0000281d2002b00070001f0a1000cf0a7006f
:1005d00001f0a0005e0037006420e10060003200fe
:1005e0000801be000200be00f7ff37006120e100f5
:1005f0005b0032006000b800f3ff3700000020000d
:1006000001f82700f0ff37000001be005700070087
:100610000470a70003f0a10003f8a30013003a0040
:100620006509b10010003200090035006928e100b9
:100630000200350001002800000005000000400015
:10064000818048008502e900fcff3a0000000600b6
:10065000f88f4200050035008100d1000080d300f2
:100660008502e800fcff3a00000006008000eb0075
:100670000000050081002000618055000b003d0056
:100680000b00200061fe2f000100e1001d0034007e
:1006900082817100610164008904d1000884d30063
:1006a0000000e800faff3a007100200061006400d9
:1006b0000300700002006000090032006104440081
:1006c000e0844c000988a500050032008b05e80095
:1006d0006808e10002003a008904d1000884d300d0
:1006e000f20f20000258e10005003d00c75ddd006b
:1006f000f907b20089807500080078000000060044
:100700000bf827008b007800000005000004be00f5
:10071000160007000003be000405be000200be0074
:1007200012000700844f7500000006000200be00a2
:100730006450e100050036006420e100020036004c
:100740000968a30001003a000800be000160a00093
:100750004f0678004f05be004f04be0000000600a3
:10076000f0ff2f00f1ff2700f9ff3700c70ade0076
:10077000f107b200f50fb20008003200e1cf4200ed
:10078000020032000170a00024000500810f7000fb
:10079000010032000408050044000500810f7000cc
:1007a00002003a00140005008502e9000000400044
:1007b00081c04800fcff3b000170a0002400050040
:1007c0000e00fa006000b80030079800410798005a
:1007d0000000eb00200798000000eb0010079800d5
:1007e0000000eb00000f7800cb060700b8070700f9
:1007f000b605070010002000720507001000200059
:10080000650607001000200057060700400620007c
:100810009506070040062000670607000000370025
:100820002e009000cf80de00b5fe07006266260035
:1008300063f62300ddfe070010ff07002007980085
:100840001e009000cf80de00adfe0700626626002d
:1008500063f62300d5fe070008ff07001007980085
:100860002e0090006002b000200798001e0090004b
:100870006002b000100798006000b80030079800d0
:1008800041079800930037003e0090006e07070074
:1008900080007800301f2000808f500084003400da
:1008a0003e009000ce00900050079800610798002d
:1008b00030002000010020005e019000ee01900059
:1008c000800f5100818f59004f003200300020000e
:1008d000010020005e019000ee019000800f5100a9
:1008e000818f590014003c001000200001002000fe
:1008f0005e019000ee019000800f5100818f590041
:100900003100320010002000010020005e01900044
:10091000ee019000800f5100818f590032003c00a1
:100920005e009000ee009000e00f5000e08f580055
:100930001e0032005a003700500020000100200045
:100940005e019000ee019000800f5100818f5900f0
:100950003d00320050002000010020005e019000a8
:10096000ee019000800f5100818f59002e0035005c
:1009700060002000010020005e019000ee01900068
:10098000800f5100818f5900370032007000200025
:10099000010020005e019000ee019000800f5100e8
:1009a000818f5900380032003d0037002e00900042
:1009b0006009b000200798001e0090004006b000bb
:1009c00010079800360037002e0090004006b00057
:1009d000200798009e009000c0f92f000080400082
:1009e000100798002e0037002e009000c012b000b3
:1009f000200798009e00900000e72f000080400034
:100a000010079800260037002e0090000019b00053
:100a1000200798009e00900040ed2f0000804000cd
:100a2000100798001e0037002e0090000019b0003b
:100a3000200798009e00900040ed2f0000804000ad
:100a40001007980016003700ae00900000e72f0056
:100a500000804000200798001e009000c012b000e7
:100a6000100798000e003700ae009000c0f92f006c
:100a700000804000200798001e0090004006b00053
:100a800010079800060037002e0090006009b000a3
:100a9000200798001e0090004006b0001007980044
:100aa0003e009000110020001b03070003003700e8
:100ab0003e0090008000eb00170307003e0090000e
:100ac000ce00900061004000e080480030079800b0
:100ad000410798003e019000ce0190006000200088
:100ae00001002000800f5100818f590066ff340003
:100af0000000eb00d40607008000780000322000e0
:100b0000808f500006003c0070002000ce060700d9
:100b10008000780000322000808f500033003400c5
:100b20006000b800300798004107980009003700be
:100b30003e00900011002000f70207003e009000e8
:100b4000ce00900061004000e0804800300798002f
:100b5000410798003e019000ce0190006000200007
:100b600001002000800f5100818f5900f0ff3400f8
:100b700010002000b5040700803e2000ba050700e1
:100b8000803e20008c0507006000b8003007980008
:100b90004107980007003700000000003e00900069
:100ba000ce00900061004000e080480030079800cf
:100bb000410798003e019000ce019000f04f2300c5
:100bc000c1002000800f5100818f5900f2ff3400d6
:100bd000be040700c0c72f0020079800c0c72f0021
:100be0001007980010002000000f7800ae00900061
:100bf000803e2000808f500002003400803e2000a4
:100c0000200798009e009000803e2000808f5000ba
:100c100002003400803e200010079800ae009000d3
:100c200080c12f00808f500002003d0080c12f0046
:100c3000200798009e00900080c12f00808f5000f8
:100c400002003d0080c12f00100798006000b8002e
:100c500030079800410798000700370000000000a7
:100c60003e009000ce00900061004000e08048000f
:100c700030079800410798003e019000ce01900097
:100c8000f0c3290001002000800f5100818f59001e
:100c9000f2ff34001e009000730507002e00900044
:100ca00045050700130020009e8f1100dcfe3a006e
:100cb0006000b8003007980041079800070037002f
:100cc000000000003e009000ce0090006100400057
:100cd000e080480030079800410798003e019000ee
:100ce000ce019000f069280011002000800f510013
:100cf000818f5900f2ff34000000eb00000f7800f4
:100d0000c7fe37000800fa008305070070060700d9
:100d10006e040700100020002a04070010002000c5
:100d20001d050700100020000f05070040062000e9
:100d30001007980040062000000f78001e00780081
:100d4000490507001e0090001b0507000000370042
:100d50000000eb003c060700800078000032200015
:100d6000808f500012003c00100020003606070063
:100d70008000780000322000808f50000c003c0082
:100d8000600020003006070080007800003220005c
:100d9000808f500006003c00700020002a060700eb
:100da0008000780000322000808f5000570034000f
:100db00080c12f001007980080c12f00000f78001d
:100dc0001e007800280507001e009000fa040700a6
:100dd0006000b8002007980031079800070037002e
:100de000000000002e009000be0090006100400056
:100df000e080480020079800310798002e019000fd
:100e0000be019000f00f270021002000800f51004c
:100e1000818f5900f2ff340000ce2f001007980098
:100e200000322000000f78001e0078000e05070039
:100e30001e009000e00407006000b8002007980042
:100e40003107980007003700000000002e009000d6
:100e5000be00900061004000e0804800200798003c
:100e6000310798002e019000be019000f0112a0079
:100e700071002000800f5100818f5900f2ff340073
:100e8000803e200010079800803e2000000f780070
:100e90001e007800f40407001e009000c60407003e
:100ea0006000b8002007980031079800070037005d
:100eb000000000002e009000be0090006100400085
:100ec000e080480020079800310798002e0190002c
:100ed000be019000f00f270021002000800f51007c
:100ee000818f5900f2ff340040062000100798005f
:100ef00040062000000f78001e007800da0407008a
:100f00001e009000ac04070091ff37002000200075
:100f1000cd0507008000780000322000808f50004f
:100f200012003c0030002000c70507008000780058
:100f300000322000808f50000c003c004000200058
:100f4000c10507008000780000322000808f50002b
:100f500006003c0050002000bb0507008000780020
:100f600000322000808f500023003400803e20009b
:100f700010079800803e2000000f78001e007800c7
:100f8000b90407001e0090008b0407006000b80041
:100f90002007980031079800070037000000000084
:100fa0002e009000be00900061004000e0804800ec
:100fb00020079800310798002e019000be01900094
:100fc000f00f270021002000800f5100818f590071
:100fd000f2ff340040062000100798004006200071
:100fe000000f78001e0078009f0407001e0090008c
:100ff0007104070056ff3700b403070054ff3700a1
:101000000c00fa00c4040700b1050700af03070095
:10101000100020006b030700100020005e04070092
:1010200010002000500407000000eb00300798007b
:101030000000eb00200798000000eb00100798006c
:10104000790037006000b800400798005107980009
:1010500007003700000000004e009000de00900006
:1010600061004000e0804800400798005107980068
:101070004e019000de019000f06928001100200070
:10108000800f5100818f5900f2ff3400800c200046
:1010900030079800800c2000200798003e00900048
:1010a000cf80de0096fc07006266260063f6230010
:1010b000befc0700f1fc0700300798002e009000ee
:1010c000cf80de008efc07006266260063f62300f8
:1010d000b6fc0700e9fc0700200798006000b80094
:1010e00040079800510798000700370000000000f3
:1010f0004e009000de00900061004000e08048005b
:1011000040079800510798004e019000de019000c2
:10111000f0c3290001002000800f5100818f590089
:10112000f2ff34002e0090004f0407003e009000b4
:10113000210407000000eb00430507008000780051
:10114000301f2000808f500006003c0070002000ff
:101150003d05070080007800301f2000808f500080
:10116000310034000000eb00000f78002b00370046
:1011700080f32f0030079800800c20002007980093
:101180006000b8004007980051079800070037003a
:10119000000000004e009000de0090006100400062
:1011a000e080480040079800510798004e019000e9
:1011b000de019000f0c3290001002000800f5100e3
:1011c000818f5900f2ff34002e00900026040700a2
:1011d0003e009000f8030700100020001007980060
:1011e000f07022009e0f100002003a000000eb0099
:1011f000000f780020002000130507008000780011
:1012000050222000808f5000030034000071220023
:10121000000f7800080037001e0fe8000071220060
:101220009e0f1000d2ff34001e0090000000e0006e
:1012300084ff3200fcff37000080fa000000060047
:101240001800fa006000b800200f9800310f9800d5
:101250000000eb00100f98000000eb00000f98005a
:101260000000eb00700798000000eb00600798009a
:101270004006200050079800800c2000400798008e
:10128000003220003007980050002000200798000e
:10129000210407000e0507000c0307006000b800da
:1012a000200f9800310f9800090037002e08900099
:1012b00011002000180107002e089000be089000c1
:1012c00061004000e0804800200f9800310f980036
:1012d0002e099000be09900070002000010020003f
:1012e000800f5100818f5900f0ff34001000200062
:1012f000a9030700100020009b0307004006200000
:10130000d903070040062000ab03070000003700a8
:101310006e009000e10f50001a003a009e08900005
:101320002e00900000805000100f98008e08900052
:101330002e00900000804000000f98008e08900062
:101340005e009000808f500004003500ae009000d9
:101350000080eb000088b900200798000000eb0037
:10136000100798001e009000e10f500010003a0096
:101370003e009000100f98003e009000000f980073
:101380000b0037005ffe07000000eb00000f780045
:10139000100020009e0f100005003a00cb0207004d
:1013a000100020008702070010002000600798004e
:1013b0006000b800200f9800310f98000700370038
:1013c000000000002e089000be0890006100400060
:1013d000e0804800200f9800310f98002e099000ff
:1013e000be099000f0c3290001002000800f5100c9
:1013f000818f5900f2ff34000e0890009a03070015
:101400001e0890006c0307007e009000e10f500062
:10141000bfff3a006000b800200f9800310f98001d
:1014200007003700000000002e089000be08900062
:1014300061004000e0804800200f9800310f9800c4
:101440002e099000be099000f069280011002000cc
:10145000800f5100818f5900f2ff34000000eb0033
:1014600070079800aaff37000400fa00c9040700bb
:10147000000f78001e007800100798001e009000f2
:10148000e40f5000210032001e009000e40f5000d5
:101490000a003c001e009000e10f500016003200d0
:1014a0001e009000e20f5000150032001e00900058
:1014b0000000e0000e003200140037001e00900013
:1014c000e60f5000110032001e009000e60f5000a1
:1014d0000e0035001e009000e70f50000b00320098
:1014e0001e009000e80f5000070032000700370090
:1014f000b3fc07000500370002fe070003003700b9
:10150000bffe0700010037004dff07000080fa0012
:10151000000006000000fa000000eb002015880023
:101520002015800010158800101580000015880017
:10153000a802a800a822a800a842a900a862a900a1
:10154000a882a900a8a2a900a8c2a900a8e2a9008f
:10155000a902a900a922a900a942a900a962a9007b
:10156000a982a900a9a2a900a9c2a900a9e2a9006b
:101570002001200020158800700020003015880010
:10158000a1e2a8000080fa00000006000600fa00b0
:10159000100798001e009000ef0f50000300360067
:1015a0000000eb0020079800120037001e0090009a
:1015b00030158800a022a8000000eb00000f780082
:1015c000010037001e0fe800700220009e0f10007f
:1015d000fcff34008560a900a022a90085c0bf00df
:1015e000684060000004e000fcff3200001480004e
:1015f000200798002e0090000080fa0000000600ee
:101600000000fa00c4c2a900c4e2a900c522a900d2
:10161000c582a900c542a900c5a2a900c5c2a900ea
:10162000c5e2a900c0c2a900c0e2a900c122a90068
:10163000c182a900c142a900c1a2a900c1c2a900da
:10164000c1e2a900d022a900cc22a900d042a90061
:10165000cc42a900e2e2a900e302a900e802a90045
:10166000e822a900dee2a900df02a900e402a90045
:10167000e422a900e202a900de02a900d602a90024
:10168000d622a900d642a900d662a900d682a90016
:10169000d6a2a900d6c2a900d6e2a900d202a9000a
:1016a000d222a900d242a900d262a900d282a90006
:1016b000d2a2a900d2c2a900d2e2a900d1a2a90057
:1016c000cda2a900e842a900e862a900e442a9006d
:1016d000e462a900de22a800dec2a800e4c2a800dd
:1016e000e4e2a800e502a800e522a800de22a800a6
:1016f000d302a800d322a800d342a800d362a80036
:10170000d382a800d3a2a800d3c2a800d3e2a80025
:101710000080fa00000006000600fa00000f7800c2
:10172000110798001e007800200798002e009000f6
:10173000e30f50007d0032002e009000e30f5000b8
:1017400007003e002e009000e10f500038003200ec
:101750002e009000e10f500057003e000d003700b2
:101760002e009000e50f5000b20032002e009000d5
:10177000e50f5000900039002e009000e60f500059
:10178000d10032002e009000e70f5000f50032002b
:10179000160137001e009000e10f500014003600c3
:1017a000c4c2bf000080fb004600de006140600054
:1017b0000004a20061406000614060000040400001
:1017c0000040400000404000004040000040400019
:1017d00000414000412c200091407800f0cbb30044
:1017e00000c0600002407000c4e2b700730137001f
:1017f0001e009000614060006140600000404000b9
:1018000000404000004040000040400000404000d8
:1018100000414000412c200091407800f0cbb30003
:1018200000c0600002407000c4e2b70063013700ee
:101830001e009000e10f500011003600c4c2bf002e
:101840000080fb004700de000004a2006140600051
:101850000040400000404000004040000040400088
:10186000004040000040400080404000c4c2bf0033
:101870000074a10001407000c4e2b7004f013700be
:101880001e009000614060000040400000404000a9
:101890000040400000404000004040000040400048
:1018a00080404000c4c2bf000074a100014070002d
:1018b000c4e2b700410137001e009000e10f500064
:1018c0000f003600c5c2bf000080fb000000d10041
:1018d000614060000004a20061406000614060005f
:1018e00000414000512c200091407800d0cfb3003f
:1018f00000c0600002407000c5e2b7002f01370051
:101900001e009000614060006140600000414000a6
:10191000512c200091407800d0cfb30000c060006f
:1019200002407000c5e2b700240137001e0090009d
:10193000e10f500012003600c5c2bf000080fb005e
:101940004400de00614060000004a20061406000cd
:101950006140600000404000004040000040400006
:1019600000414000512c200091407800f0ceb3009f
:1019700000c0600002407000c5e2b7000f013700f0
:101980001e00900061406000614060000040400027
:10199000004040000040400000414000512c200029
:1019a00091407800f0ceb30000c0600002407000ab
:1019b000c5e2b700010137001e009000e10f5000a2
:1019c00010003600c5c2bf000080fb004200de00f0
:1019d000614060000004a20061406000614060005e
:1019e0000040400000414000512c20009140780010
:1019f000b0cfb30000c0600002407000c5e2b70085
:101a0000ee0037001e009000614060006140600001
:101a10000040400000414000512c200091407800df
:101a2000b0cfb30000c0600002407000c5e2b70054
:101a3000e20037001e009000e10f50001300360056
:101a4000c5c2bf000080fb004500de0061406000b1
:101a50000004a2006140600061406000004040005e
:101a60000040400000404000004040000041400075
:101a7000512c200091407800f0cdb30000c06000f0
:101a800002407000c5e2b700cc0037001e00900095
:101a90006140600061406000004040000040400044
:101aa000004040000040400000414000512c200018
:101ab00091407800f0cdb30000c06000024070009b
:101ac000c5e2b700bd0037001e009000e10f5000d6
:101ad00014003600c5c2bf000080fb004600de00d7
:101ae000614060000004a20061406000614060004d
:101af00000404000004040000040400000404000e6
:101b00000040400000414000512c200091407800ee
:101b1000f0cbb30000c0600002407000c5e2b70027
:101b2000a60037001e009000614060006140600028
:101b300000404000004040000040400000404000a5
:101b40000040400000414000512c200091407800ae
:101b5000f0cbb30000c0600002407000c5e2b700e7
:101b6000960037001e009000e10f50001100360073
:101b7000c5c2bf000080fb004700de000004a200d9
:101b800061406000004040000040400000404000d4
:101b900000404000004040000040400080404000c5
:101ba000c5c2bf000074a10001407000c5e2b700cb
:101bb000820037001e00900061406000004040003d
:101bc0000040400000404000004040000040400015
:101bd0000040400080404000c5c2bf000074a1002a
:101be00001407000c5e2b700740037001e0090008d
:101bf0006140600000404000004040000040400064
:101c00000040400000404000004040008040400054
:101c1000c5c2bf000074a10001407000c5e2b7005a
:101c2000c5c2bf000080fb004700de0061406000cd
:101c300000404000004040000040400000404000a4
:101c40000040400000414000512c200091407800ad
:101c5000f0cbb30000c0600002407000c5e2b700e6
:101c6000c5c2bf000080fb004600de00614060008e
:101c700061406000004040000040400000404000e3
:101c80000040400000414000512c2000914078006d
:101c9000f0cdb30000c0600002407000c5e2b700a4
:101ca000c5c2bf000080fb004500de00614060004f
:101cb000614060000040400000414000512c200085
:101cc00091407800b0cfb30000c0600002407000c7
:101cd000c5e2b700c5c2bf000080fb004200de00c5
:101ce00061406000614060000040400000404000f2
:101cf0000040400000414000512c200091407800fd
:101d0000f0ceb30000c0600002407000c5e2b70032
:101d1000c5c2bf000080fb004400de0061406000df
:101d20006140600000414000512c2000914078004b
:101d3000d0cfb30000c0600002407000c5e2b70021
:101d4000c5c2bf000080fb000000d1006140600000
:101d50000040400000404000004040000040400083
:101d6000004040000040400080404000c4c2bf002e
:101d70000074a10001407000c4e2b700c4c2bf00fb
:101d80000080fb004700de00614060000040400032
:101d90000040400000404000004040000040400043
:101da00000414000412c200091407800f0cbb3006e
:101db00000c0600002407000c4e2b7000080fa007a
:101dc000000006000200fa00000f7800100020005a
:101dd0009e0f100010003600d0c2bf000080fb0034
:101de0004200de00614060000004a200614060002b
:101df000614060000040400000414000012d200093
:101e000091407800b0cfb30000c060000240700085
:101e1000d0e2b7000b0037001e0078006140600080
:101e2000614060000040400000414000012d200062
:101e300091407800b0cfb30000c060000240700055
:101e4000d0e2b7000080fa00000006000200fa00ad
:101e5000000f7800100020009e0f10000f003600c9
:101e6000d0c2bf000080fb000000d10061406000d4
:101e70000004a20061406000614060000041400039
:101e8000012d200091407800d0cfb30000c0600049
:101e900002407000d0e2b7000a0037001e00780050
:101ea000614060006140600000414000012d200061
:101eb00091407800d0cfb30000c0600002407000b5
:101ec000d0e2b7000080fa00000006000000fa002f
:101ed000c4c2a900c4e2a900c522a900c582a90004
:101ee000c542a900c5a2a900c5c2a900c5e2a900b2
:101ef0000080fa000000060000a0fe003400f80098
:101f0000881f780008c0b300a80188004f0478003b
:101f10000200fa0086c0a900a04180000000e00095
:101f20000c003400c04180000000e800c04188007f
:101f3000e04180000000e900e0418800e0418000cd
:101f40000000e0000e003d0030002000e04188006d
:101f50000b003700c04180000000e900c04188004c
:101f6000e04180000000e800e0418800e04180009e
:101f7000e30f5000020034000000eb00e041880055
:101f8000e0418000000f78001e007800e10f500053
:101f9000130032001e007800e10f500004003c00e6
:101fa0001e0078000000e000080032001a00370030
:101fb0001e007800e20f50000e0032001e00780074
:101fc000e30f50001000320013003700d602a900c2
:101fd000d622a800d642a900d662a8000e0037007b
:101fe000d602a900d622a800d642a800d662a9002f
:101ff00009003700d602a800d622a900d642a800c0
:10200000d662a90004003700d602a800d622a90093
:10201000d642a900d662a8000080fa003400f90078
:102020000080fe000040060000a0fe003400f80022
:10203000881f780008c0b300a80188004f0478000a
:102040000200fa0086a0a900b04180000000e00074
:102050000c003d00d04180000000e900d041880024
:10206000f04180000000e900f0418800f04180006c
:102070000000e0000e003d0030002000f04188002c
:102080000b003700d04180000000e800d0418800fc
:10209000f04180000000e800f0418800f04180003d
:1020a000e30f5000020034000000eb00f041880014
:1020b000f0418000000f78001e007800e10f500012
:1020c000130032001e007800e10f500004003c00b5
:1020d0001e0078000000e000080032001a003700ff
:1020e0001e007800e20f50000e0032001e00780043
:1020f000e30f50001000320013003700d682a90011
:10210000d6a2a800d6c2a900d6e2a8000e003700c9
:10211000d682a900d6a2a800d6c2a800d6e2a900fd
:1021200009003700d682a800d6a2a900d6c2a8000e
:10213000d6e2a90004003700d682a800d6a2a900e2
:10214000d6c2a900d6e2a8000080fa003400f90047
:102150000080fe00004006000000fa00c041800040
:102160000080fa00000006000200fa00000f78006c
:102170001027fc001e007800c04188000200fc000f
:102180000080fa00000006000000fa00d041800044
:102190000080fa00000006000200fa00000f78003c
:1021a0001027fc001e007800d04188000200fc00cf
:1021b0000080fa00000006000400fa00000f78001a
:1021c0001e00e00006003a0021e1a900d602a900a5
:1021d000d622a900d642a900d662a9002000370065
:1021e00021e1a9001e007800a04188000000eb005a
:1021f00000098800011220009140780000c3b3005c
:1022000000c0700020e1b7000000eb00c0088800ab
:102210001e017800120798001e0090000000e000e8
:1022200003003d001e0190000201ea001207980021
:102230001e0190006110b90031f807000001be00d6
:102240000000200011762400adf80700eef807002a
:10225000e008880086c0a9008ec0a80021e1a8007f
:102260000080fa00000006000400fa00000f780069
:102270001e00e00006003a001fe1a900d682a90076
:10228000d6a2a900d6c2a900d6e2a9002000370034
:102290001fe1a9001e007800b04188000000eb009b
:1022a000f0088800e11120009140780000c3b300dd
:1022b00000c070001ee1b7000000eb00a00888001d
:1022c0001e017800120798001e0090000000e00038
:1022d00003003d001e0190000201ea001207980071
:1022e0001e0190006110b90005f807000001be0052
:1022f000000020001176240081f80700c2f80700d2
:10230000d008880086a0a9008ea0a8001fe1a80020
:102310000080fa00000006000000fa00b8fc070088
:102320000080fa00000006000000fa000000eb0048
:10233000200888004110200091407800f0ccb300c4
:1023400000c060000044a00004e1b7000000eb0002
:102350000008880050282000100888008460a90028
:102360008c60a80005e1a8000080fa0000000600cb
:1023700000a0fe003600f800849fbe00869fbe00cd
:102380003400f80004c0b300a40188000200fa0081
:102390008460a90000408000000f78001e007800d3
:1023a000e10f5000330032001e007800e10f5000b2
:1023b00004003c001e0078000000e000080032002d
:1023c0009a0037001e007800e20f50004e003200e5
:1023d0001e007800e30f50007000320093003700b9
:1023e000104080000000e0000c003a00502820005f
:1023f000100888008000200064fc0700204088004e
:10240000c000200061fc070060408800e2e2a800f4
:10241000100020001040880084003700e0f1200008
:10242000100888008000200058fc0700a0408800a9
:10243000c000200055fc0700e040880021408000db
:10244000a040800000805000204188006140800052
:10245000e04080000080500060418800e2e2a90076
:102460000000eb00104088001000200000408800b1
:102470006e003700104080000000e0000c003a00c1
:102480005028200010088800900020003ffc070022
:1024900030408800d00020003cfc070070408800dd
:1024a000e302a80010002000104088005f00370001
:1024b000e0f12000100888009000200033fc0700a5
:1024c000b0408800d000200030fc0700f0408800b9
:1024d00031408000b04080000080500030418800d2
:1024e00071408000f0408000008050007041880002
:1024f000e302a9000000eb0010408800200020004b
:102500000040880049003700104080000000e000d3
:102510000c003a005028200010088800a00020007d
:102520001afc070040408800e000200017fc07006c
:1025300080408800e802a8001000200010408800b9
:102540003a003700e0f1200010088800a0002000c9
:102550000efc0700c0408800e00020000bfc0700d4
:102560000041880041408000c04080000080500051
:102570004041880081408000004180000080500080
:1025800080418800e802a9000000eb0010408800ac
:1025900030002000004088002400370010408000f8
:1025a0000000e0000c003a005028200010088800cd
:1025b000b0002000f5fb070050408800f00020002c
:1025c000f2fb070090408800e822a80010002000dd
:1025d0001040880015003700e0f120001008880046
:1025e000b0002000e9fb0700d0408800f000200088
:1025f000e6fb07001041880051408000d040800079
:1026000000805000504188009140800010418000bf
:102610000080500090418800e822a9000000eb00f3
:10262000104088000000eb00004088000080fa00a5
:102630003400f9004f03be004f02be003600f9001f
:102640000080fe00004006000400fa00000f780041
:10265000700020009e0f1000030036000000eb0009
:1026600010079800060037001e0078008000400028
:102670004082200000804000100078001007980081
:102680001e0090000080fa00000006000400fa001e
:10269000000f7800700020009e0f1000030036002d
:1026a0000000eb0010079800060037001e007800bd
:1026b0008000400040802000008040001000780032
:1026c000100798001e0090000080fa00000006002d
:1026d0000000fa008ffb070013ff07000080fa00dc
:1026e000000006000000fa008afb07000080fa00e4
:1026f000000006000600fa00000f7800110798009d
:102700002207980005e1a900500020009ffb070068
:10271000800078001e00780001087800600020002a
:102720009afb0700800078001e00900001087800e6
:102730007000200095fb0700800078002e009000bc
:102740000108780005e1a8000080fa0000000600fa
:102750000800fa0020079800310798006000b800d0
:10276000008fbe0004003700100020000100200090
:102770001e0f40005e9748002e009000be009000a3
:10278000be0f1000ae8f1800f7ff35000080fa0072
:10279000000006000000fa00e6c2bf000080fb0057
:1027a0004600de00614060000081fb00e7c2bf0020
:1027b0000080fb000000d100614060000080fb0051
:1027c0000000400080007800e7c2bf006140600068
:1027d0000080fb0000804000000040008000780086
:1027e000e6c2bf000080fb004700de000080fb0067
:1027f0000080400000004000000041000080fa001e
:0428000000000600ce
:020000040000fa
:100008001c1400001c1400001c1400001c14000028
:100018001c1400001c1400001c1400001c14000018
:100028001c1400001c1400001c140000b81100006f
:100038001c1400001c1400001c1400001c140000f8
:100048001c1400001c1400001c1400001c140000e8
:100058001c1400001c1400001c1400001c140000d8
:100068001c1400001c1400001c1400001c140000c8
:100078001c140000141000007c0f00001c14000069
:100088001c1400001c1400001c1400001c140000a8
:100098001c1400001c1400001c1400001c14000098
:1000a8001c1400001c1400001c1400001c14000088
:1000b8001c1400001c1400001c1400001c14000078
:1000c8001c1400001c1400001c1400001c14000068
:1000d8001c1400001c1400001c1400001c14000058
:1000e8001c1400001c1400001c1400001c14000048
:0800f8001c1400001c140000a0
:020000040000fa
:100108001c1400001c1400001c1400001c14000027
:100118001c1400001c1400001c1400001c14000017
:100128001c1400001c1400001c140000b81100006e
:100138001c1400001c1400001c1400001c140000f7
:100148001c1400001c1400001c1400001c140000e7
:100158001c1400001c1400001c1400001c140000d7
:100168001c1400001c1400001c1400001c140000c7
:100178001c140000141000007c0f00001c14000068
:100188001c1400001c1400001c1400001c140000a7
:100198001c1400001c1400001c1400001c14000097
:1001a8001c1400001c1400001c1400001c14000087
:1001b8001c1400001c1400001c1400001c14000077
:1001c8001c1400001c1400001c1400001c14000067
:1001d8001c1400001c1400001c1400001c14000057
:1001e8001c1400001c1400001c1400001c14000047
:0801f8001c1400001c1400009f
:020000040000fa
:10280400340800000800000002000000000000007e
:1028140000000000000000003c080000040000006c
:102824000000000000080000340000000000000068
:0428340000000000a0
:020000040000fa
:042838000000fe009e
:00000001FF
