:020000040000fa
:08000000c61904000000000015
:020000040000fa
:10020000889fbe008a9fbe00010578000100e000c3
:100210000400350008003c000000e000200032002f
:100220000500370060001000e080180002003b006d
:1002300001f02c001a0037000004be006011b80065
:100240006b0920000982cf00020039000882cf002c
:100250000441b000694252000e00320008003b0029
:1002600082817100610164008904d1000884d30097
:100270008b05e8000442e800f9ff3a00050037006a
:100280000804440089844c008b05e9000442e9001d
:10029000fbff3a00b70007000af0a70001f0a0003a
:1002a0004f05be004f04be0000000600889fbe0040
:1002b0008a9fbe008c1f7800d4000700db0033004b
:1002c00003866c006450e100240032006420e100e9
:1002d000270032006150e100220032006120e1007d
:1002e000210032008b854200eb07b1000134b800d9
:1002f000003ab8000804420089844a00013ab80074
:100300000030b8008880400009014a000400330032
:100310000000400081804800020149008b05e9008f
:10032000c909dd00830170000100320013002000c4
:10033000c814de004814dd004709de001200b200d8
:10034000c808de00088470008a00070001f0a100e0
:100350000cf0a70001f0a000bd0037006120e10013
:10036000bf0032000801be000200be00f7ff3700e8
:100370006150e100fcff3a00b90037000001be0007
:10038000ba0007000470a70003f0a1006509b100de
:10039000160032000d0035006828e1000600350027
:1003a000f0ff2f00f1ff27000300e00013003b00e7
:1003b0000100280000000500000040008180480086
:1003c0008502e900fcff3a0008003700f88f420080
:1003d00002003c008000eb00000005008100d1001d
:1003e0000080d3008502e800fcff3a000300e00033
:1003f00002003b0060001000e080180000000600d2
:10040000889fbe008a9fbe008c1f78007f00070077
:100410008600330003866c006450e1002e00320039
:100420006420e100330032006150e1002f0032000f
:100430006120e1003100320085855500eb07b000f6
:1004400009002000080420000500370008044400cb
:1004500089844c000a0031000603430087834b0067
:100460000001530081815b00f8ff33000203be00ee
:100470000800a0000804440089844c00f6ff3900fd
:10048000c639dd0083017300010032001300200033
:100490008904d1000884d3000998a3000500320024
:1004a0000800a7000300a0008904d1000884d3003d
:1004b0008b05e8008904d1000884d3000001eb001b
:1004c0000281d2002b00070001f0a1000cf0a70070
:1004d00001f0a0005e0037006420e10060003200ff
:1004e0000801be000200be00f7ff37006120e100f6
:1004f0005b0032006000b800f3ff3700000020000e
:1005000001f82700f0ff37000001be005700070088
:100510000470a70003f0a10003f8a30013003a0041
:100520006509b10010003200090035006928e100ba
:100530000200350001002800000005000000400016
:10054000818048008502e900fcff3a0000000600b7
:10055000f88f4200050035008100d1000080d300f3
:100560008502e800fcff3a00000006008000eb0076
:100570000000050081002000618055000b003d0057
:100580000b00200061fe2f000100e1001d0034007f
:1005900082817100610164008904d1000884d30064
:1005a0000000e800faff3a007100200061006400da
:1005b0000300700002006000090032006104440082
:1005c000e0844c000988a500050032008b05e80096
:1005d0006808e10002003a008904d1000884d300d1
:1005e000f20f20000258e10005003d00c75ddd006c
:1005f000f907b20089807500080078000000060045
:100600000bf827008b007800000005000004be00f6
:10061000160007000003be000405be000200be0075
:1006200012000700844f7500000006000200be00a3
:100630006450e100050036006420e100020036004d
:100640000968a30001003a000800be000160a00094
:100650004f0678004f05be004f04be0000000600a4
:10066000f0ff2f00f1ff2700f9ff3700c70ade0077
:10067000f107b200f50fb20008003200e1cf4200ee
:10068000020032000170a00024000500810f7000fc
:10069000010032000408050044000500810f7000cd
:1006a00002003a00140005008502e9000000400045
:1006b00081c04800fcff3b000170a0002400050041
:1006c0000e00fa006000b80030079800410798005b
:1006d0000000eb00200798000000eb0010079800d6
:1006e0000000eb00000f7800e3070700d0080700c8
:1006f000ce060700100020008c0607001000200026
:100700007d070700100020006f070700400620004b
:10071000ad070700400620007f07070000003700f4
:100720002e009000cf80de00b5fe07006266260036
:1007300063f62300ddfe070010ff07002007980086
:100740001e009000cf80de00adfe0700626626002e
:1007500063f62300d5fe070008ff07001007980086
:100760002e0090006002b000200798001e0090004c
:100770006002b000100798006000b80030079800d1
:1007800041079800930037003e009000860807005c
:1007900080007800301f2000808f500084003400db
:1007a0003e009000ce00900050079800610798002e
:1007b00030002000010020005e019000ee0190005a
:1007c000800f5100818f59004f003200300020000f
:1007d000010020005e019000ee019000800f5100aa
:1007e000818f590014003c001000200001002000ff
:1007f0005e019000ee019000800f5100818f590042
:100800003100320010002000010020005e01900045
:10081000ee019000800f5100818f590032003c00a2
:100820005e009000ee009000e00f5000e08f580056
:100830001e0032005a003700500020000100200046
:100840005e019000ee019000800f5100818f5900f1
:100850003d00320050002000010020005e019000a9
:10086000ee019000800f5100818f59002e0035005d
:1008700060002000010020005e019000ee01900069
:10088000800f5100818f5900370032007000200026
:10089000010020005e019000ee019000800f5100e9
:1008a000818f5900380032003d0037002e00900043
:1008b0006009b000200798001e0090004006b000bc
:1008c00010079800360037002e0090004006b00058
:1008d000200798009e009000c0f92f000080400083
:1008e000100798002e0037002e009000c012b000b4
:1008f000200798009e00900000e72f000080400035
:1009000010079800260037002e0090000019b00054
:10091000200798009e00900040ed2f0000804000ce
:10092000100798001e0037002e0090000019b0003c
:10093000200798009e00900040ed2f0000804000ae
:100940001007980016003700ae00900000e72f0057
:1009500000804000200798001e009000c012b000e8
:10096000100798000e003700ae009000c0f92f006d
:1009700000804000200798001e0090004006b00054
:1009800010079800060037002e0090006009b000a4
:10099000200798001e0090004006b0001007980045
:1009a0003e009000110020008f0407000300370074
:1009b0003e0090008000eb008b0407003e0090009a
:1009c000ce00900061004000e080480030079800b1
:1009d000410798003e019000ce0190006000200089
:1009e00001002000800f5100818f590066ff340004
:1009f0000000eb00ec0707008000780000322000c8
:100a0000808f500006003c0070002000e6070700c1
:100a10008000780000322000808f500033003400c6
:100a20006000b800300798004107980009003700bf
:100a30003e009000110020006b0407003e00900073
:100a4000ce00900061004000e08048003007980030
:100a5000410798003e019000ce0190006000200008
:100a600001002000800f5100818f5900f0ff3400f9
:100a700010002000cd050700803e2000d2060700b0
:100a8000803e2000a40607006000b80030079800f0
:100a90004107980007003700000000003e0090006a
:100aa000ce00900061004000e080480030079800d0
:100ab000410798003e019000ce019000f04f2300c6
:100ac000c1002000800f5100818f5900f2ff3400d7
:100ad000d6050700c0c72f0020079800c0c72f0009
:100ae0001007980010002000000f7800ae00900062
:100af000803e2000808f500002003400803e2000a5
:100b0000200798009e009000803e2000808f5000bb
:100b100002003400803e200010079800ae009000d4
:100b200080c12f00808f500002003d0080c12f0047
:100b3000200798009e00900080c12f00808f5000f9
:100b400002003d0080c12f00100798006000b8002f
:100b500030079800410798000700370000000000a8
:100b60003e009000ce00900061004000e080480010
:100b700030079800410798003e019000ce01900098
:100b8000f0c3290001002000800f5100818f59001f
:100b9000f2ff34001e0090008b0607002e0090002c
:100ba0005d060700130020009e8f1100dcfe3a0056
:100bb0006000b80030079800410798000700370030
:100bc000000000003e009000ce0090006100400058
:100bd000e080480030079800410798003e019000ef
:100be000ce019000f069280011002000800f510014
:100bf000818f5900f2ff34000000eb00000f7800f5
:100c0000c7fe37001400fa006000b80050079800d3
:100c1000610798009806070085070700830507000d
:100c200010002000410507001000200032060700d8
:100c300010002000240607000000eb004007980089
:100c40000000eb00300798000000eb002007980040
:100c50000000eb0010079800ee0037006000b800bd
:100c600070079800010f980007003700000000008f
:100c70007e0090008e08900061004000e0804800f7
:100c800070079800010f98007e0190008e09900077
:100c9000f069280011002000800f5100818f590059
:100ca000f2ff34004e0090006002b0004007980050
:100cb0003e0090006002b000300798004e009000a7
:100cc000cf80de004efd07006266260063f623003b
:100cd00076fd0700a9fd0700400798003e00900040
:100ce000cf80de0046fd07006266260063f6230023
:100cf0006efd0700a1fd0700300798000000eb0023
:100d0000000f78006a0037001e00780026070700f1
:100d100080007800301f2000808f50006000340079
:100d20001e007800100f98001e089000e30f50007e
:100d3000310032001e089000e30f50000a003c0012
:100d40001e089000e10f50001b0032001e089000aa
:100d5000e10f500020003c001e0890000000e00061
:100d60000e0032004a0037001e089000e50f5000c8
:100d7000310032001e089000e50f500026003500bb
:100d80001e089000e60f5000330032001e0890004d
:100d9000e70f5000380032003d0037004e00900051
:100da0006009b000400798003e0090004006b00087
:100db00030079800360037004e0090004006b00023
:100dc00040079800be009000c0f92f00008040004e
:100dd000300798002e0037004e009000c012b0007f
:100de00040079800be00900000e72f000080400000
:100df00030079800260037004e0090000019b00020
:100e000040079800be00900040ed2f000080400099
:100e1000300798001e003700ce00900040ed2f00f4
:100e200000804000400798003e0090000019b0008c
:100e30003007980016003700ce00900000e72f0022
:100e400000804000400798003e009000c012b000b3
:100e5000300798000e003700ce009000c0f92f0038
:100e600000804000400798003e0090004006b0001f
:100e700030079800060037003e0090006009b0007f
:100e8000300798004e0090004006b00040079800e0
:100e90001e007800110020005303070003003700f4
:100ea0001e0078008000eb004f0307001e0fe800d3
:100eb000600020009e0f100093ff340030002000df
:100ec000b90607008000780000322000808f5000b3
:100ed00006003c0040002000b306070080007800b8
:100ee00000322000808f500016003400c02b2000fc
:100ef0004007980000ce2f00300798006000b8002f
:100f000070079800010f98000700370000000000ec
:100f10007e0090008e08900061004000e080480054
:100f200070079800010f98007e0190008e099000d4
:100f3000f069280011002000800f5100818f5900b6
:100f4000f2ff34000000eb009706070080007800f5
:100f5000401f2000808f50000c00340070002000e3
:100f60009106070080007800401f2000808f50000d
:100f70000600340020002000100798000000eb005d
:100f8000400798000000eb00300798006000b800b0
:100f900070079800010f980007003700000000005c
:100fa0007e0090008e08900061004000e0804800c4
:100fb00070079800010f98007e0190008e09900044
:100fc000f0c3290001002000800f5100818f5900db
:100fd000f2ff34003e0090007b0507004e009000b9
:100fe0004d0507005e009000ee009000610040009b
:100ff000e080480050079800610798005e0090006c
:10100000ee00900061004000e0804800500798002a
:10101000610798001e0090000000e0000fff320002
:1010200000013700200020005f06070080007800e4
:10103000f0182000808f50003b003c006000b8009a
:1010400070079800010f98000700370000000000ab
:101050007e0090008e08900061004000e080480013
:1010600070079800010f98007e0190008e09900093
:10107000f069280011002000800f5100818f590075
:10108000f2ff3400c0122000400798004006200004
:10109000300798003e0090004b0507004e0090007e
:1010a0001d0507005e009000ee00900061005000fa
:1010b000e080580050079800610798001a00370038
:1010c0006000b80070079800010f98000700370013
:1010d000000000007e0090008e089000610040003b
:1010e000e080480070079800010f98007e01900092
:1010f0008e099000f0c3290001002000800f5100ec
:10110000818f5900f2ff340040ed2f004007980016
:10111000c0122000300798003e0090002a0507000a
:101120004e009000fc0407000000eb001e060700c4
:1011300080007800301f2000808f5000e0ff3c00ce
:10114000700020001806070080007800703e200024
:10115000808f5000daff3c001000200012060700cc
:1011600080007800f0312000808f5000d4ff3c00d8
:10117000200020000c060700800078008025200059
:10118000808f50001a0034006000b800700798008b
:10119000010f980007003700000000007e0090005b
:1011a0008e08900061004000e080480070079800c1
:1011b000010f98007e0190008e099000f0692800d0
:1011c00011002000800f5100818f5900f2ff340080
:1011d0004006200040079800c01220003007980009
:1011e0003e009000f80407004e009000ca0407007b
:1011f00020002000ec05070080007800f018200097
:10120000808f50005a0034000000eb00e605070014
:1012100080007800401f2000808f500054003c0068
:1012200070002000e00507008000780000322000f8
:10123000808f50004e003c0010002000da050700af
:101240008000780000322000808f500048003c0071
:1012500060002000d40507008000780000322000e4
:10126000808f500042003c0020002000ce05070087
:101270008000780080252000808f50003c003c00da
:101280006000b80070079800010f98000700370051
:10129000000000007e0090008e0890006100400079
:1012a000e080480070079800010f98007e019000d0
:1012b0008e099000f069280011002000800f510075
:1012c000818f5900f2ff3400c012200040079800bf
:1012d000c0122000300798004e009000cf80de0042
:1012e000c7fb07006266260063f62300effb0700da
:1012f00022fc0700400798003e009000cf80de00ef
:10130000bffb07006266260063f62300e7fb0700c9
:101310001afc0700300798006000b80070079800ba
:10132000010f980007003700000000007e009000c9
:101330008e08900061004000e0804800700798002f
:10134000010f98007e0190008e099000f0c32900e3
:1013500001002000800f5100818f5900f2ff3400fe
:101360003e009000980407004e0090006a040700b9
:10137000500020008c0507008000780080252000a8
:10138000808f500006003c006000200086050700aa
:101390008000780080252000808f50001a003400e3
:1013a0006000b80070079800010f98000700370030
:1013b000000000007e0090008e0890006100400058
:1013c000e080480070079800010f98007e019000af
:1013d0008e099000f069280011002000800f510054
:1013e000818f5900f2ff3400c0122000400798009e
:1013f0000000eb00300798003e00900072040700e8
:101400004e009000440407005e009000ee00900043
:10141000e00f5000e08f580002003d003000200037
:10142000100798001e009000e10f5000fdfe3200f2
:10143000250037005e009000ee0090000000a20042
:10144000610060000004e000030032001000200092
:10145000100798001c00370080f32f004007980009
:1014600080f32f00300798003e00900056040700dc
:101470004e009000280407006000b8007007980034
:10148000010f980007003700000000007e00900068
:101490008e08900061004000e080480070079800ce
:1014a000010f98007e0190008e099000f0112a0033
:1014b00071002000800f5100818f5900f2ff34002d
:1014c0000000eb00100798001e009000e20f500093
:1014d000d8ff32001e009000e30f5000cdfe3a000e
:1014e000300020003005070080007800c012200086
:1014f000808f500023003400400020002a050700a0
:1015000080007800c0122000808f50001d00340041
:1015100000192000400798000019200030079800ab
:101520003e009000280407004e009000fa030700d8
:101530006000b80070079800010f9800070037009e
:10154000000000007e0090008e08900061004000c6
:10155000e080480070079800010f98007e0190001d
:101560008e099000f0112a0071002000800f5100b8
:10157000818f5900f2ff34000000eb001007980043
:10158000a4fe370000e72f00300798000019200064
:10159000400798003e0090000b0407004e009000aa
:1015a000dd0307006000b80070079800010f980085
:1015b00007003700000000007e0090008e089000b9
:1015c00061004000e080480070079800010f98001b
:1015d0007e0190008e099000f0342c000100200064
:1015e000800f5100818f5900f2ff340089fe3700cf
:1015f0000400fa006000b800008fbe00140037003d
:101600001e00780011002000770107006000b8007c
:10161000008fbe0005003700000000001000200011
:10162000010020001e0f40005e974800f0c3290013
:1016300001002000be0f1000ae8f1800f6ff34002e
:1016400010002000010020001e0f40005e9748009f
:101650008000200001002000be0f1000ae8f180097
:10166000e7ff34000080fa00000006000800fa00de
:1016700001040700ee040700ec0207001000200040
:10168000aa020700100020009b03070010002000a2
:101690008d03070040062000100798004006200038
:1016a000000f78001e007800c70307001e0090009e
:1016b00099030700000037000000eb00ba040700a0
:1016c0008000780000322000808f500012003c0023
:1016d00010002000b40407008000780000322000d1
:1016e000808f50000c003c0060002000ae0407001a
:1016f0008000780000322000808f500006003c00ff
:1017000070002000a804070080007800003220004c
:10171000808f50005a00340080c12f0010079800bd
:1017200080c12f00000f78001e007800a60307007c
:101730001e00900078030700adff07006000b800ae
:1017400020079800310798000700370000000000cc
:101750002e009000be00900061004000e080480034
:1017600020079800310798002e019000be019000dc
:10177000f00f270021002000800f5100818f5900b9
:10178000f2ff340000ce2f00100798000032200036
:10179000000f78001e0078008b0307001e009000e9
:1017a0005d03070092ff07006000b8002007980063
:1017b0003107980007003700000000002e0090005d
:1017c000be00900061004000e080480020079800c3
:1017d000310798002e019000be019000f0112a0000
:1017e00071002000800f5100818f5900f2ff3400fa
:1017f000803e200010079800803e2000000f7800f7
:101800001e007800700307001e00900042030700ce
:1018100077ff07006000b8002007980031079800a4
:1018200007003700000000002e009000be0090006e
:1018300061004000e08048002007980031079800d0
:101840002e019000be019000f00f27002100200023
:10185000800f5100818f5900f2ff340040062000b4
:101860001007980040062000000f78001e00780046
:10187000550307001e009000270307008eff370066
:10188000200020004804070080007800003220007b
:10189000808f500012003c003000200042040700fe
:1018a0008000780000322000808f50000c003c0047
:1018b000400020003c040700800078000032200037
:1018c000808f500006003c005000200036040700c6
:1018d0008000780000322000808f50002400340007
:1018e000803e200010079800803e2000000f780006
:1018f0001e007800340307001e0090000603070056
:101900003bff07006000b8002007980031079800ef
:1019100007003700000000002e009000be0090007d
:1019200061004000e08048002007980031079800df
:101930002e019000be019000f00f27002100200032
:10194000800f5100818f5900f2ff340040062000c3
:101950001007980040062000000f78001e00780055
:10196000190307001e009000eb02070052ff37002a
:101970002e02070050ff37000000fa001900070090
:101980000080fa00000006000600fa00000f780050
:10199000110798002207980005e1a90050002000d7
:1019a0002e000700800078001e00780001087800f3
:1019b0006000200029000700800078001e009000d1
:1019c00001087800700020002400070080007800e3
:1019d0002e0090000108780005e1a8000080fa00c0
:1019e000000006000000fa000000eb00201588004f
:1019f0002015800010158800101580000015880043
:101a0000a802a800a822a800a842a900a862a900cc
:101a1000a882a900a8a2a900a8c2a900a8e2a900ba
:101a2000a902a900a922a900a942a900a962a900a6
:101a3000a982a900a9a2a900a9c2a900a9e2a90096
:101a4000200120002015880070002000301588003b
:101a5000a1e2a8000080fa00000006000600fa00db
:101a6000100798001e009000ef0f50000300360092
:101a70000000eb0020079800120037001e009000c5
:101a800030158800a022a8000000eb00000f7800ad
:101a9000010037001e0fe800700220009e0f1000aa
:101aa000fcff34008560a900a022a90085c0bf000a
:101ab000684060000004e000fcff32000014800079
:101ac000200798002e0090000080fa000000060019
:101ad0000000fa00c4c2a900c4e2a900c522a900fe
:101ae000c582a900c542a900c5a2a900c5c2a90016
:101af000c5e2a900c0c2a900c0e2a900c122a90094
:101b0000c182a900c142a900c1a2a900c1c2a90005
:101b1000c1e2a900d022a900cc22a900d042a9008c
:101b2000cc42a900e2e2a900e302a900e802a90070
:101b3000e822a900dee2a900df02a900e402a90070
:101b4000e422a900e202a900de02a900d602a9004f
:101b5000d622a900d642a900d662a900d682a90041
:101b6000d6a2a900d6c2a900d6e2a900d202a90035
:101b7000d222a900d242a900d262a900d282a90031
:101b8000d2a2a900d2c2a900d2e2a900d1a2a90082
:101b9000cda2a900e842a900e862a900e442a90098
:101ba000e462a900de22a800dec2a800e4c2a80008
:101bb000e4e2a800e502a800e522a800de22a800d1
:101bc000d302a800d322a800d342a800d362a80061
:101bd000d382a800d3a2a800d3c2a800d3e2a80051
:101be0000080fa00000006000600fa00000f7800ee
:101bf000110798001e007800200798002e00900022
:101c0000e30f5000670032002e009000e30f5000f9
:101c100007003e002e009000e10f50002e00320021
:101c20002e009000e10f500041003e000d003700f3
:101c30002e009000e50f5000940032002e0090001e
:101c4000e50f5000740039002e009000e60f5000a0
:101c5000ab0032002e009000e70f5000c5003200ac
:101c6000da0037001e009000e10f50000f00360030
:101c7000c4c2bf000080fb004600de00614060007f
:101c80000004a20061406000614060004601dd0088
:101c9000412c200091407800f0cbb30000c06000e0
:101ca00002407000c4e2b7001e0137001e00900021
:101cb00061406000614060004601dd00412c200071
:101cc00091407800f0cbb30000c06000024070008b
:101cd000c4e2b700130137001e009000e10f50006e
:101ce0000b003600c4c2bf000080fb004700de00ce
:101cf0000004a20061406000c700dd00c4c2bf0054
:101d00000074a10001407000c4e2b7000501370073
:101d10001e00900061406000c700dd00c4c2bf002b
:101d20000074a10001407000c4e2b700fd0037005c
:101d30001e009000e10f50000f003600c5c2bf002a
:101d40000080fb000000d100614060000004a200a0
:101d5000614060006140600000414000512c200063
:101d600091407800d0cfb30000c060000240700006
:101d7000c5e2b700eb0037001e0090006140600034
:101d80006140600000414000512c200091407800eb
:101d9000d0cfb30000c0600002407000c5e2b700c1
:101da000e00037001e009000e10f50000f003600e9
:101db000c5c2bf000080fb004400de00614060003f
:101dc0000004a20061406000614060004401dd0049
:101dd000512c200091407800f0ceb30000c060008c
:101de00002407000c5e2b700ce0037001e00900030
:101df00061406000614060004401dd00512c200022
:101e000091407800f0ceb30000c060000240700046
:101e1000c5e2b700c30037001e009000e10f50007c
:101e20000f003600c5c2bf000080fb004200de008c
:101e3000614060000004a2006140600061406000f9
:101e40004201dd00512c200091407800b0cfb3005a
:101e500000c0600002407000c5e2b700b10037006a
:101e60001e00900061406000614060004201dd00a2
:101e7000512c200091407800b0cfb30000c060002a
:101e800002407000c5e2b700a60037001e009000b7
:101e9000e10f50000f003600c5c2bf000080fb00fc
:101ea0004500de00614060000004a2006140600067
:101eb000614060004501dd00512c20009140780018
:101ec000f0cdb30000c0600002407000c5e2b70072
:101ed000940037001e009000614060006140600087
:101ee0004501dd00512c200091407800f0cdb30079
:101ef00000c0600002407000c5e2b70089003700f2
:101f00001e009000e10f50000f003600c5c2bf0058
:101f10000080fb004600de00614060000004a2007b
:101f200061406000614060004601dd00512c2000ee
:101f300091407800f0cbb30000c060000240700018
:101f4000c5e2b700770037001e00900061406000d6
:101f5000614060004601dd00512c20009140780076
:101f6000f0cbb30000c0600002407000c5e2b700d3
:101f70006c0037001e009000e10f50000b0036008f
:101f8000c5c2bf000080fb004700de000004a200c5
:101f900061406000c700dd00c5c2bf000074a10041
:101fa00001407000c5e2b7005e0037001e009000df
:101fb00061406000c700dd00c5c2bf000074a10021
:101fc00001407000c5e2b700560037001e009000c7
:101fd00061406000c700dd00c5c2bf000074a10001
:101fe00001407000c5e2b700c5c2bf000080fb0021
:101ff0004700de00614060004601dd00512c2000fa
:1020000091407800f0cbb30000c060000240700047
:10201000c5e2b700c5c2bf000080fb004600de007d
:1020200061406000614060004501dd00512c2000ee
:1020300091407800f0cdb30000c060000240700015
:10204000c5e2b700c5c2bf000080fb004500de004e
:1020500061406000614060004201dd00512c2000c1
:1020600091407800b0cfb30000c060000240700023
:10207000c5e2b700c5c2bf000080fb004200de0021
:1020800061406000614060004401dd00512c20008f
:1020900091407800f0ceb30000c0600002407000b4
:1020a000c5e2b700c5c2bf000080fb004400de00ef
:1020b000614060006140600000414000512c200000
:1020c00091407800d0cfb30000c0600002407000a3
:1020d000c5e2b700c5c2bf000080fb000000d10010
:1020e00061406000c700dd00c4c2bf000074a100f1
:1020f00001407000c4e2b700c4c2bf000080fb0012
:102100004700de00614060004601dd00412c2000f8
:1021100091407800f0cbb30000c060000240700036
:10212000c4e2b7000080fa00000006000200fa00d6
:10213000000f7800100020009e0f10000f003600e6
:10214000d0c2bf000080fb004200de0061406000a2
:102150000004a20061406000614060004201dd00b7
:10216000012d200091407800b0cfb30000c0600086
:1021700002407000d0e2b7000a0037001e0078006d
:1021800061406000614060004201dd00012d2000df
:1021900091407800b0cfb30000c0600002407000f2
:1021a000d0e2b7000080fa00000006000200fa004a
:1021b000000f7800100020009e0f10000f00360066
:1021c000d0c2bf000080fb000000d1006140600071
:1021d0000004a200614060006140600000414000d6
:1021e000012d200091407800d0cfb30000c06000e6
:1021f00002407000d0e2b7000a0037001e007800ed
:10220000614060006140600000414000012d2000fd
:1022100091407800d0cfb30000c060000240700051
:10222000d0e2b7000080fa00000006000000fa00cb
:10223000c4c2a900c4e2a900c522a900c582a900a0
:10224000c542a900c5a2a900c5c2a900c5e2a9004e
:102250000080fa000000060000a0fe003400f80034
:10226000881f780008002000a80188004f0478002b
:102270000200fa0086c0a900a04180000000e00032
:102280000c003400c04180000000e800c04188001c
:10229000e04180000000e900e0418800e04180006a
:1022a0000000e0000e003d0030002000e04188000a
:1022b0000b003700c04180000000e900c0418800e9
:1022c000e04180000000e800e0418800e04180003b
:1022d000e30f5000020034000000eb00e0418800f2
:1022e000e0418000000f78001e007800e10f5000f0
:1022f000130032001e007800e10f500004003c0083
:102300001e0078000000e000080032001a003700cc
:102310001e007800e20f50000e0032001e00780010
:10232000e30f50001000320013003700d602a9005e
:10233000d622a800d642a900d662a8000e00370017
:10234000d602a900d622a800d642a800d662a900cb
:1023500009003700d602a800d622a900d642a8005c
:10236000d662a90004003700d602a800d622a90030
:10237000d642a900d662a8000080fa003400f90015
:102380000080fe000040060000a0fe003400f800bf
:10239000881f780008002000a80188004f047800fa
:1023a0000200fa0086a0a900b04180000000e00011
:1023b0000c003d00d04180000000e900d0418800c1
:1023c000f04180000000e900f0418800f041800009
:1023d0000000e0000e003d0030002000f0418800c9
:1023e0000b003700d04180000000e800d041880099
:1023f000f04180000000e800f0418800f0418000da
:10240000e30f5000020034000000eb00f0418800b0
:10241000f0418000000f78001e007800e10f5000ae
:10242000130032001e007800e10f500004003c0051
:102430001e0078000000e000080032001a0037009b
:102440001e007800e20f50000e0032001e007800df
:10245000e30f50001000320013003700d682a900ad
:10246000d6a2a800d6c2a900d6e2a8000e00370066
:10247000d682a900d6a2a800d6c2a800d6e2a9009a
:1024800009003700d682a800d6a2a900d6c2a800ab
:10249000d6e2a90004003700d682a800d6a2a9007f
:1024a000d6c2a900d6e2a8000080fa003400f900e4
:1024b0000080fe00004006000000fa00c0418000dd
:1024c0000080fa00000006000200fa00000f780009
:1024d0001027fc001e007800c04188000200fc00ac
:1024e0000080fa00000006000000fa00d0418000e1
:1024f0000080fa00000006000200fa00000f7800d9
:102500001027fc001e007800d04188000200fc006b
:102510000080fa00000006000400fa00000f7800b6
:102520001e00e00006003a0021e1a900d602a90041
:10253000d622a900d642a900d662a9002000370001
:1025400021e1a9001e007800a04188000000eb00f6
:1025500000098800011220009140780000c3b300f8
:1025600000c0700020e1b7000000eb00c008880048
:102570001e017800120798001e0090000000e00085
:1025800003003d001e0190000201ea0012079800be
:102590001e0190006110b90019f707000001be008c
:1025a000000020001176240095f70700d6f70700f9
:1025b000e008880086c0a9008ec0a80021e1a8001c
:1025c0000080fa00000006000400fa00000f780006
:1025d0001e00e00006003a001fe1a900d682a90013
:1025e000d6a2a900d6c2a900d6e2a90020003700d1
:1025f0001fe1a9001e007800b04188000000eb0038
:10260000f0088800e11120009140780000c3b30079
:1026100000c070001ee1b7000000eb00a0088800b9
:102620001e017800120798001e0090000000e000d4
:1026300003003d001e0190000201ea00120798000d
:102640001e0190006110b900edf607000001be0008
:10265000000020001176240069f70700aaf70700a0
:10266000d008880086a0a9008ea0a8001fe1a800bd
:102670000080fa00000006000000fa0014fd0700c8
:102680000080fa00000006000000fa000000eb00e5
:10269000200888004110200091407800f0ccb30061
:1026a00000c060000044a00004e1b7000000eb009f
:1026b0000008880050282000100888008460a900c5
:1026c0008c60a80005e1a8000080fa000000060068
:1026d00000a0fe003600f800849fbe00869fbe006a
:1026e0003400f80004002000a40188000200fa0071
:1026f0008460a90000408000000f78001e00780070
:10270000e10f5000330032001e007800e10f50004e
:1027100004003c001e0078000000e00008003200c9
:102720009a0037001e007800e20f50004e00320081
:102730001e007800e30f5000700032009300370055
:10274000104080000000e0000c003a0050282000fb
:102750001008880080002000c0fc0700204088008e
:10276000c0002000bdfc070060408800e2e2a80035
:10277000100020001040880084003700e0f12000a5
:102780001008880080002000b4fc0700a0408800ea
:10279000c0002000b1fc0700e0408800214080001c
:1027a000a0408000008050002041880061408000ef
:1027b000e04080000080500060418800e2e2a90013
:1027c0000000eb001040880010002000004088004e
:1027d0006e003700104080000000e0000c003a005e
:1027e0005028200010088800900020009bfc070063
:1027f00030408800d000200098fc0700704088001e
:10280000e302a80010002000104088005f0037009d
:10281000e0f1200010088800900020008ffc0700e5
:10282000b0408800d00020008cfc0700f0408800f9
:1028300031408000b040800000805000304188006e
:1028400071408000f040800000805000704188009e
:10285000e302a9000000eb001040880020002000e7
:102860000040880049003700104080000000e00070
:102870000c003a005028200010088800a00020001a
:1028800076fc070040408800e000200073fc070051
:1028900080408800e802a800100020001040880056
:1028a0003a003700e0f1200010088800a000200066
:1028b0006afc0700c0408800e000200067fc0700b9
:1028c0000041880041408000c040800000805000ee
:1028d000404188008140800000418000008050001d
:1028e00080418800e802a9000000eb001040880049
:1028f0003000200000408800240037001040800095
:102900000000e0000c003a00502820001008880069
:10291000b000200051fc070050408800f00020006b
:102920004efc070090408800e822a800100020001c
:102930001040880015003700e0f1200010088800e2
:10294000b000200045fc0700d0408800f0002000c7
:1029500042fc07001041880051408000d0408000b8
:10296000008050005041880091408000104180005c
:102970000080500090418800e822a9000000eb0090
:10298000104088000000eb00004088000080fa0042
:102990003400f9004f03be004f02be003600f900bc
:1029a0000080fe00004006000400fa00000f7800de
:1029b000700020009e0f1000030036000000eb00a6
:1029c00010079800060037001e00780080004000c5
:1029d000408220000080400010007800100798001e
:1029e0001e0090000080fa00000006000400fa00bb
:1029f000000f7800700020009e0f100003003600ca
:102a00000000eb0010079800060037001e00780059
:102a100080004000408020000080400010007800ce
:102a2000100798001e0090000080fa0000000600c9
:102a30000000fa00ebfb070013ff07000080fa001c
:102a4000000006001e00fa00881f78006000b80031
:102a5000300f9800410f98000000eb00200f980005
:102a60000000eb00100f980000c4290001002000b6
:102a700070079800010f980000a821006100200055
:102a800050079800610798006000b8003007980070
:102a9000410798000000eb0020079800f6fe0700b1
:102aa000e3ff0700e1fd0700100020009ffd070085
:102ab0001000200090fe07001000200082fe07009a
:102ac00040062000c0fe07004006200092fe0700de
:102ad0002e089000cf80de00c9f507006266260050
:102ae00063f62300f1f5070024f60700200f980095
:102af0001e089000cf80de00c1f507006266260048
:102b000063f62300e9f507001cf60700100f980094
:102b10002e0890006002b000200f98001e08900060
:102b20006002b000100f98006000b800300f9800ed
:102b3000410f9800930037003e0890009aff07006d
:102b400080007800301f2000808f50008400340007
:102b50003e089000ce089000500f9800610f98003a
:102b600030002000010020005e099000ee09900076
:102b7000800f5100818f59004f003200300020003b
:102b8000010020005e099000ee099000800f5100c6
:102b9000818f590014003c0010002000010020002b
:102ba0005e099000ee099000800f5100818f59005e
:102bb0003100320010002000010020005e0990006a
:102bc000ee099000800f5100818f590032003c00c7
:102bd0005e089000ee089000e00f5000e08f580073
:102be0001e0032005a003700500020000100200073
:102bf0005e099000ee099000800f5100818f59000e
:102c00003d00320050002000010020005e099000cd
:102c1000ee099000800f5100818f59002e00350081
:102c200060002000010020005e099000ee09900085
:102c3000800f5100818f5900370032007000200052
:102c4000010020005e099000ee099000800f510005
:102c5000818f5900380032003d0037002e08900067
:102c60006009b000200f98001e0890004006b000d8
:102c7000100f9800360037002e0890004006b00074
:102c8000200f98009e089000c0f92f00008040009f
:102c9000100f98002e0037002e089000c012b000d0
:102ca000200f98009e08900000e72f000080400051
:102cb000100f9800260037002e0890000019b00071
:102cc000200f98009e08900040ed2f0000804000eb
:102cd000100f98001e0037002e0890000019b00059
:102ce000200f98009e08900040ed2f0000804000cb
:102cf000100f980016003700ae08900000e72f0074
:102d000000804000200f98001e089000c012b00004
:102d1000100f98000e003700ae089000c0f92f0089
:102d200000804000200f98001e0890004006b00070
:102d3000100f9800060037002e0890006009b000c0
:102d4000200f98001e0890004006b000100f980059
:102d50003e08900011002000a3fb0700030037008d
:102d60003e0890008000eb009ffb07003e089000ab
:102d7000ce08900061004000e0804800300f9800cd
:102d8000410f98003e099000ce099000600020009d
:102d900001002000800f5100818f590066ff340030
:102da0003e009000ce00900061004000e0804800ae
:102db00030079800410798000000eb00fafe07007a
:102dc0000004780070002000f7fe070000004400b7
:102dd00022002000110009000200d800100798000e
:102de0001e0090000000e00002003c0010002000e7
:102df000100798005e0190001e0090007400b9005a
:102e0000000f5100be0090007e009000000ab80044
:102e1000be0090000e0890000088b90005017800ff
:102e200000014100fe0090004e0090000088b900b3
:102e300000014100820278001e007800cf80de0091
:102e4000800f5200818f5a001a0034002e0090002b
:102e500061001000200798006000b800300f980053
:102e6000410f980009003700ae0090003e08900026
:102e70005dfb07003e089000ce0890006100400016
:102e8000e0804800300f9800410f98003e09900004
:102e9000ce0990006000200001002000800f51004a
:102ea000818f5900f0ff34006000b80030079800af
:102eb00041079800ae089000803e2000808f5000af
:102ec00002003400803e2000200f98009e089000f1
:102ed000803e2000808f500002003400803e2000a1
:102ee000100f9800ae08900080c12f00808f500016
:102ef00002003d0080c12f00200f98009e08900026
:102f000080c12f00808f500002003d0080c12f0043
:102f1000100f98006000b800300f9800410f980023
:102f200007003700000000003e089000ce08900027
:102f300061004000e0804800300f9800410f980089
:102f40003e099000ce0990007e0090008e0890000f
:102f5000800f5100818f5900f2ff35001e0890004c
:102f600099fd07002e0890006bfd0700d8fe370082
:102f70000400fa0030000700000f78001e007800ff
:102f8000100798001e009000e10f50001000320062
:102f90001e009000e10f500004003c001e00900055
:102fa0000000e000080032000f0037001e00900013
:102fb000e20f5000080032001e009000e30f5000a6
:102fc0000700320008003700bdf507000700370092
:102fd000a6f90700050037000af7070003003700cd
:102fe00098fe0700010037002f0007000080fa005c
:102ff000000006000800fa0020079800310798003a
:103000006000b800008fbe000400370010002000f0
:10301000010020001e0f40005e9748002e00900027
:10302000be009000be0f1000ae8f1800f7ff3500f5
:103030000080fa00000006000000fa00e6c2bf00af
:103040000080fb004600de00614060000081fb0064
:10305000e7c2bf000080fb000000d10061406000bb
:103060000080fb000000400080007800e7c2bf0045
:10307000614060000080fb000080400000004000d4
:1030800080007800e6c2bf000080fb004700de0041
:103090000080fb0000804000000040000000410074
:1030a0000080fa00000006001800fa006000b80076
:1030b000200f9800310f98000000eb00100f9800cf
:1030c0000000eb00000f98000000eb007007980074
:1030d0000000eb00600798004006200050079800b1
:1030e000800c200040079800003220003007980034
:1030f00050002000200798005ffd07004cfe0700ed
:103100004afc07006000b800200f9800310f9800bb
:10311000090037002e08900011002000b2fa0700c5
:103120002e089000be08900061004000e08048003a
:10313000200f9800310f98002e099000be099000d2
:103140007000200001002000800f5100818f590085
:10315000f0ff340010002000e7fc07001000200002
:10316000d9fc07004006200017fd0700400620009c
:10317000e9fc0700000037006e009000e10f5000ee
:103180001a003a009e0890002e0090000080500027
:10319000100f98008e0890002e00900000804000d4
:1031a000000f98008e0890005e009000808f500005
:1031b00004003500ae0090000080eb000088b900ec
:1031c000200798000000eb00100798001e009000f8
:1031d000e10f500010003a003e009000100f9800e0
:1031e0003e009000000f98000b0037001ff9070009
:1031f0000000eb00000f7800100020009e0f100070
:1032000005003a0009fc070010002000c7fb07007a
:1032100010002000600798006000b800200f9800a0
:10322000310f980007003700000000002e089000c2
:10323000be08900061004000e0804800200f980028
:10324000310f98002e099000be099000f0c32900ac
:1032500001002000800f5100818f5900f2ff3400df
:103260000e089000d8fc07001e089000aafc07007a
:103270007e009000e10f5000bfff3a006000b800f0
:10328000200f9800310f9800070037000000000061
:103290002e089000be08900061004000e0804800c9
:1032a000200f9800310f98002e099000be09900061
:1032b000f069280011002000800f5100818f590013
:1032c000f2ff34000000eb0070079800aaff3700ff
:020000040000fa
:10000800121a0000121a0000121a0000121a000038
:10001800121a0000121a0000121a0000121a000028
:10002800121a0000121a0000121a000068130000c9
:10003800121a0000121a0000121a0000121a000008
:10004800121a0000121a0000121a0000121a0000f8
:10005800121a0000121a0000121a0000121a0000e8
:10006800121a0000121a0000121a0000121a0000d8
:10007800121a0000c41100002c110000121a00000e
:10008800121a0000121a0000121a0000121a0000b8
:10009800121a0000121a0000121a0000121a0000a8
:1000a800121a0000121a0000121a0000121a000098
:1000b800121a0000121a0000121a0000121a000088
:1000c800121a0000121a0000121a0000121a000078
:1000d800121a0000121a0000121a0000121a000068
:1000e800121a0000121a0000121a0000121a000058
:0800f800121a0000121a0000a8
:020000040000fa
:10010800121a0000121a0000121a0000121a000037
:10011800121a0000121a0000121a0000121a000027
:10012800121a0000121a0000121a000068130000c8
:10013800121a0000121a0000121a0000121a000007
:10014800121a0000121a0000121a0000121a0000f7
:10015800121a0000121a0000121a0000121a0000e7
:10016800121a0000121a0000121a0000121a0000d7
:10017800121a0000c41100002c110000121a00000d
:10018800121a0000121a0000121a0000121a0000b7
:10019800121a0000121a0000121a0000121a0000a7
:1001a800121a0000121a0000121a0000121a000097
:1001b800121a0000121a0000121a0000121a000087
:1001c800121a0000121a0000121a0000121a000077
:1001d800121a0000121a0000121a0000121a000067
:1001e800121a0000121a0000121a0000121a000057
:0801f800121a0000121a0000a7
:020000040000fa
:1032d00091018800800078000000eb0015003700a5
:1032e000e280400032a0b4009101ba00e2804000c8
:1032f00032a0b4009102ba00e280400032a0b400d3
:103300000002eb00472bde00f507b200602ce10065
:1033100004003a000059eb008301e900fdff3e0084
:10332000040037006128e100010032000082eb0058
:10333000040007001101ba000200e000e8ff3a00b3
:10334000000006003159ba008301e9000c00320088
:103350002159ba008301e900080032000400e000ae
:1033600003003a00e280400032a0b400f5ff3700cd
:1033700011d9ba008301e900faff3a008100e800a0
:10338000e180400032a0b400000006000f8420005d
:103390000e7922000e018800000000000c000700da
:1033a000809f210001002000c9ff070000002000cd
:1033b0000000e000020032000000020000000000f7
:1033c000b8170200000000000040da000000fe0014
:1033d0004440a900000020000000e000030032008b
:1033e00000002000a00188004440a8000000060062
:020000040000fa
:1033f0003408000008000000020000000000000087
:1034000000000000000000003c0800000400000074
:103410000000000000080000340000000000000070
:0434200000000000a8
:020000040000fa
:083424000040da000000fe0088
:00000001FF
