:020000040000fa
:080000000001040000000000f3
:020000040000fa
:10020000af842000807922000001880000000000f7
:10021000050007000c000700f018020000000000b5
:100220000040da000000fe004440a9000002200067
:100230000000e0000300320000002000a001880060
:100240004440a8000000060040862b00010020006a
:100250001600370062004000e080480091018800ed
:100260009001ba0062004000e080480091018800df
:100270009002ba0062004000e08048000002eb00fb
:100280006028e10005003a008301e900070033001f
:10029000038009000059eb00040037006128e100e9
:1002a000010032000082eb00050007009101880088
:1002b0001001ba000200e000e6ff3a00000005006d
:1002c000910188008002780062004000e0804800d0
:1002d0003559ba008301e900080032002559ba00f7
:1002e0008301e900050032000400e000f4ff320061
:1002f00015d9ba008301e900f1ff3a0000000600b9
:10030000889fbe008a9fbe00010578000100e000c2
:100310000400350008003c000000e000200032002e
:100320000500370060001000e080180002003b006c
:1003300001f02c001a0037000004be006011b80064
:100340006b0920000982cf00020039000882cf002b
:100350000441b000694252000e00320008003b0028
:1003600082817100610164008904d1000884d30096
:100370008b05e8000442e800f9ff3a000500370069
:100380000804440089844c008b05e9000442e9001c
:10039000fbff3a00b70007000af0a70001f0a00039
:1003a0004f05be004f04be0000000600889fbe003f
:1003b0008a9fbe008c1f7800d4000700db0033004a
:1003c00003866c006450e100240032006420e100e8
:1003d000270032006150e100220032006120e1007c
:1003e000210032008b854200eb07b1000134b800d8
:1003f000003ab8000804420089844a00013ab80073
:100400000030b8008880400009014a000400330031
:100410000000400081804800020149008b05e9008e
:10042000c909dd00830170000100320013002000c3
:10043000c814de004814dd004709de001200b200d7
:10044000c808de00088470008a00070001f0a100df
:100450000cf0a70001f0a000bd0037006120e10012
:10046000bf0032000801be000200be00f7ff3700e7
:100470006150e100fcff3a00b90037000001be0006
:10048000ba0007000470a70003f0a1006509b100dd
:10049000160032000d0035006828e1000600350026
:1004a000f0ff2f00f1ff27000300e00013003b00e6
:1004b0000100280000000500000040008180480085
:1004c0008502e900fcff3a0008003700f88f42007f
:1004d00002003c008000eb00000005008100d1001c
:1004e0000080d3008502e800fcff3a000300e00032
:1004f00002003b0060001000e080180000000600d1
:10050000889fbe008a9fbe008c1f78007f00070076
:100510008600330003866c006450e1002e00320038
:100520006420e100330032006150e1002f0032000e
:100530006120e1003100320085855500eb07b000f5
:1005400009002000080420000500370008044400ca
:1005500089844c000a0031000603430087834b0066
:100560000001530081815b00f8ff33000203be00ed
:100570000800a0000804440089844c00f6ff3900fc
:10058000c639dd0083017300010032001300200032
:100590008904d1000884d3000998a3000500320023
:1005a0000800a7000300a0008904d1000884d3003c
:1005b0008b05e8008904d1000884d3000001eb001a
:1005c0000281d2002b00070001f0a1000cf0a7006f
:1005d00001f0a0005e0037006420e10060003200fe
:1005e0000801be000200be00f7ff37006120e100f5
:1005f0005b0032006000b800f3ff3700000020000d
:1006000001f82700f0ff37000001be005700070087
:100610000470a70003f0a10003f8a30013003a0040
:100620006509b10010003200090035006928e100b9
:100630000200350001002800000005000000400015
:10064000818048008502e900fcff3a0000000600b6
:10065000f88f4200050035008100d1000080d300f2
:100660008502e800fcff3a00000006008000eb0075
:100670000000050081002000618055000b003d0056
:100680000b00200061fe2f000100e1001d0034007e
:1006900082817100610164008904d1000884d30063
:1006a0000000e800faff3a007100200061006400d9
:1006b0000300700002006000090032006104440081
:1006c000e0844c000988a500050032008b05e80095
:1006d0006808e10002003a008904d1000884d300d0
:1006e000f20f20000258e10005003d00c75ddd006b
:1006f000f907b20089807500080078000000060044
:100700000bf827008b007800000005000004be00f5
:10071000160007000003be000405be000200be0074
:1007200012000700844f7500000006000200be00a2
:100730006450e100050036006420e100020036004c
:100740000968a30001003a000800be000160a00093
:100750004f0678004f05be004f04be0000000600a3
:10076000f0ff2f00f1ff2700f9ff3700c70ade0076
:10077000f107b200f50fb20008003200e1cf4200ed
:10078000020032000170a00024000500810f7000fb
:10079000010032000408050044000500810f7000cc
:1007a00002003a00140005008502e9000000400044
:1007b00081c04800fcff3b000170a0002400050040
:1007c0000e00fa006000b80030079800410798005a
:1007d0000000eb00200798000000eb0010079800d5
:1007e0000000eb00000f78003f0807002c0907000d
:1007f0002a07070010002000e6060700100020006e
:10080000d907070010002000cb0707004006200092
:100810000908070040062000db070700000037003a
:100820002e009000cf80de00b5fe07006266260035
:1008300063f62300ddfe070010ff07002007980085
:100840001e009000cf80de00adfe0700626626002d
:1008500063f62300d5fe070008ff07001007980085
:100860002e0090006002b000200798001e0090004b
:100870006002b000100798006000b80030079800d0
:1008800041079800930037003e009000e2080700ff
:1008900080007800301f2000808f500084003400da
:1008a0003e009000ce00900050079800610798002d
:1008b00030002000010020005e019000ee01900059
:1008c000800f5100818f59004f003200300020000e
:1008d000010020005e019000ee019000800f5100a9
:1008e000818f590014003c001000200001002000fe
:1008f0005e019000ee019000800f5100818f590041
:100900003100320010002000010020005e01900044
:10091000ee019000800f5100818f590032003c00a1
:100920005e009000ee009000e00f5000e08f580055
:100930001e0032005a003700500020000100200045
:100940005e019000ee019000800f5100818f5900f0
:100950003d00320050002000010020005e019000a8
:10096000ee019000800f5100818f59002e0035005c
:1009700060002000010020005e019000ee01900068
:10098000800f5100818f5900370032007000200025
:10099000010020005e019000ee019000800f5100e8
:1009a000818f5900380032003d0037002e00900042
:1009b0006009b000200798001e0090004006b000bb
:1009c00010079800360037002e0090004006b00057
:1009d000200798009e009000c0f92f000080400082
:1009e000100798002e0037002e009000c012b000b3
:1009f000200798009e00900000e72f000080400034
:100a000010079800260037002e0090000019b00053
:100a1000200798009e00900040ed2f0000804000cd
:100a2000100798001e0037002e0090000019b0003b
:100a3000200798009e00900040ed2f0000804000ad
:100a40001007980016003700ae00900000e72f0056
:100a500000804000200798001e009000c012b000e7
:100a6000100798000e003700ae009000c0f92f006c
:100a700000804000200798001e0090004006b00053
:100a800010079800060037002e0090006009b000a3
:100a9000200798001e0090004006b0001007980044
:100aa0003e009000110020008f0407000300370073
:100ab0003e0090008000eb008b0407003e00900099
:100ac000ce00900061004000e080480030079800b0
:100ad000410798003e019000ce0190006000200088
:100ae00001002000800f5100818f590066ff340003
:100af0000000eb004808070080007800003220006a
:100b0000808f500006003c00700020004208070063
:100b10008000780000322000808f500033003400c5
:100b20006000b800300798004107980009003700be
:100b30003e009000110020006b0407003e00900072
:100b4000ce00900061004000e0804800300798002f
:100b5000410798003e019000ce0190006000200007
:100b600001002000800f5100818f5900f0ff3400f8
:100b70001000200029060700803e20002e070700f5
:100b8000803e2000000707006000b8003007980092
:100b90004107980007003700000000003e00900069
:100ba000ce00900061004000e080480030079800cf
:100bb000410798003e019000ce019000f04f2300c5
:100bc000c1002000800f5100818f5900f2ff3400d6
:100bd00032060700c0c72f0020079800c0c72f00ab
:100be0001007980010002000000f7800ae00900061
:100bf000803e2000808f500002003400803e2000a4
:100c0000200798009e009000803e2000808f5000ba
:100c100002003400803e200010079800ae009000d3
:100c200080c12f00808f500002003d0080c12f0046
:100c3000200798009e00900080c12f00808f5000f8
:100c400002003d0080c12f00100798006000b8002e
:100c500030079800410798000700370000000000a7
:100c60003e009000ce00900061004000e08048000f
:100c700030079800410798003e019000ce01900097
:100c8000f0c3290001002000800f5100818f59001e
:100c9000f2ff34001e009000e70607002e009000cf
:100ca000b9060700130020009e8f1100dcfe3a00f9
:100cb0006000b8003007980041079800070037002f
:100cc000000000003e009000ce0090006100400057
:100cd000e080480030079800410798003e019000ee
:100ce000ce019000f069280011002000800f510013
:100cf000818f5900f2ff34000000eb00000f7800f4
:100d0000c7fe37001400fa006000b80050079800d2
:100d100061079800f4060700e1070700df050700f8
:100d2000100020009b050700100020008e06070021
:100d300010002000800607000000eb00400798002c
:100d40000000eb00300798000000eb00200798003f
:100d50000000eb0010079800ee0037006000b800bc
:100d600070079800010f980007003700000000008e
:100d70007e0090008e08900061004000e0804800f6
:100d800070079800010f98007e0190008e09900076
:100d9000f069280011002000800f5100818f590058
:100da000f2ff34004e0090006002b000400798004f
:100db0003e0090006002b000300798004e009000a6
:100dc000cf80de004efd07006266260063f623003a
:100dd00076fd0700a9fd0700400798003e0090003f
:100de000cf80de0046fd07006266260063f6230022
:100df0006efd0700a1fd0700300798000000eb0022
:100e0000000f78006a0037001e0078008207070094
:100e100080007800301f2000808f50006000340078
:100e20001e007800100f98001e089000e30f50007d
:100e3000310032001e089000e30f50000a003c0011
:100e40001e089000e10f50001b0032001e089000a9
:100e5000e10f500020003c001e0890000000e00060
:100e60000e0032004a0037001e089000e50f5000c7
:100e7000310032001e089000e50f500026003500ba
:100e80001e089000e60f5000330032001e0890004c
:100e9000e70f5000380032003d0037004e00900050
:100ea0006009b000400798003e0090004006b00086
:100eb00030079800360037004e0090004006b00022
:100ec00040079800be009000c0f92f00008040004d
:100ed000300798002e0037004e009000c012b0007e
:100ee00040079800be00900000e72f0000804000ff
:100ef00030079800260037004e0090000019b0001f
:100f000040079800be00900040ed2f000080400098
:100f1000300798001e003700ce00900040ed2f00f3
:100f200000804000400798003e0090000019b0008b
:100f30003007980016003700ce00900000e72f0021
:100f400000804000400798003e009000c012b000b2
:100f5000300798000e003700ce009000c0f92f0037
:100f600000804000400798003e0090004006b0001e
:100f700030079800060037003e0090006009b0007e
:100f8000300798004e0090004006b00040079800df
:100f90001e007800110020005303070003003700f3
:100fa0001e0078008000eb004f0307001e0fe800d2
:100fb000600020009e0f100093ff340030002000de
:100fc000150707008000780000322000808f500055
:100fd00006003c00400020000f070700800078005a
:100fe00000322000808f500016003400c02b2000fb
:100ff0004007980000ce2f00300798006000b8002e
:1010000070079800010f98000700370000000000eb
:101010007e0090008e08900061004000e080480053
:1010200070079800010f98007e0190008e099000d3
:10103000f069280011002000800f5100818f5900b5
:10104000f2ff34000000eb00f30607008000780098
:10105000401f2000808f50000c00340070002000e2
:10106000ed06070080007800401f2000808f5000b0
:101070000600340020002000100798000000eb005c
:10108000400798000000eb00300798006000b800af
:1010900070079800010f980007003700000000005b
:1010a0007e0090008e08900061004000e0804800c3
:1010b00070079800010f98007e0190008e09900043
:1010c000f0c3290001002000800f5100818f5900da
:1010d000f2ff34003e009000d70507004e0090005c
:1010e000a90507005e009000ee009000610040003e
:1010f000e080480050079800610798005e0090006b
:10110000ee00900061004000e08048005007980029
:10111000610798001e0090000000e0000fff320001
:101120000001370020002000bb0607008000780087
:10113000f0182000808f50003b003c006000b80099
:1011400070079800010f98000700370000000000aa
:101150007e0090008e08900061004000e080480012
:1011600070079800010f98007e0190008e09900092
:10117000f069280011002000800f5100818f590074
:10118000f2ff3400c0122000400798004006200003
:10119000300798003e009000a70507004e00900021
:1011a000790507005e009000ee009000610050009d
:1011b000e080580050079800610798001a00370037
:1011c0006000b80070079800010f98000700370012
:1011d000000000007e0090008e089000610040003a
:1011e000e080480070079800010f98007e01900091
:1011f0008e099000f0c3290001002000800f5100eb
:10120000818f5900f2ff340040ed2f004007980015
:10121000c0122000300798003e00900086050700ad
:101220004e009000580507000000eb007a0607000a
:1012300080007800301f2000808f5000e0ff3c00cd
:10124000700020007406070080007800703e2000c7
:10125000808f5000daff3c00100020006e0607006f
:1012600080007800f0312000808f5000d4ff3c00d7
:1012700020002000680607008000780080252000fc
:10128000808f50001a0034006000b800700798008a
:10129000010f980007003700000000007e0090005a
:1012a0008e08900061004000e080480070079800c0
:1012b000010f98007e0190008e099000f0692800cf
:1012c00011002000800f5100818f5900f2ff34007f
:1012d0004006200040079800c01220003007980008
:1012e0003e009000540507004e00900026050700c0
:1012f000200020004806070080007800f018200039
:10130000808f50005a0034000000eb0042060700b6
:1013100080007800401f2000808f500054003c0067
:10132000700020003c06070080007800003220009a
:10133000808f50004e003c00100020003606070051
:101340008000780000322000808f500048003c0070
:101350006000200030060700800078000032200086
:10136000808f500042003c00200020002a06070029
:101370008000780080252000808f50003c003c00d9
:101380006000b80070079800010f98000700370050
:10139000000000007e0090008e0890006100400078
:1013a000e080480070079800010f98007e019000cf
:1013b0008e099000f069280011002000800f510074
:1013c000818f5900f2ff3400c012200040079800be
:1013d000c0122000300798004e009000cf80de0041
:1013e000c7fb07006266260063f62300effb0700d9
:1013f00022fc0700400798003e009000cf80de00ee
:10140000bffb07006266260063f62300e7fb0700c8
:101410001afc0700300798006000b80070079800b9
:10142000010f980007003700000000007e009000c8
:101430008e08900061004000e0804800700798002e
:10144000010f98007e0190008e099000f0c32900e2
:1014500001002000800f5100818f5900f2ff3400fd
:101460003e009000f40407004e009000c604070000
:1014700050002000e805070080007800802520004b
:10148000808f500006003c0060002000e20507004d
:101490008000780080252000808f50001a003400e2
:1014a0006000b80070079800010f9800070037002f
:1014b000000000007e0090008e0890006100400057
:1014c000e080480070079800010f98007e019000ae
:1014d0008e099000f069280011002000800f510053
:1014e000818f5900f2ff3400c0122000400798009d
:1014f0000000eb00300798003e009000ce0407008b
:101500004e009000a00407005e009000ee009000e6
:10151000e00f5000e08f580002003d003000200036
:10152000100798001e009000e10f5000fdfe3200f1
:10153000250037005e009000ee0090000000a20041
:10154000610060000004e000030032001000200091
:10155000100798001c00370080f32f004007980008
:1015600080f32f00300798003e009000b20407007f
:101570004e009000840407006000b80070079800d7
:10158000010f980007003700000000007e00900067
:101590008e08900061004000e080480070079800cd
:1015a000010f98007e0190008e099000f0112a0032
:1015b00071002000800f5100818f5900f2ff34002c
:1015c0000000eb00100798001e009000e20f500092
:1015d000d8ff32001e009000e30f5000cdfe3a000d
:1015e000300020008c05070080007800c012200029
:1015f000808f500023003400400020008605070043
:1016000080007800c0122000808f50001d00340040
:1016100000192000400798000019200030079800aa
:101620003e009000840407004e009000560407001e
:101630006000b80070079800010f9800070037009d
:10164000000000007e0090008e08900061004000c5
:10165000e080480070079800010f98007e0190001c
:101660008e099000f0112a0071002000800f5100b7
:10167000818f5900f2ff34000000eb001007980042
:10168000a4fe370000e72f00300798000019200063
:10169000400798003e009000670407004e0090004d
:1016a000390407006000b80070079800010f980027
:1016b00007003700000000007e0090008e089000b8
:1016c00061004000e080480070079800010f98001a
:1016d0007e0190008e099000f0342c000100200063
:1016e000800f5100818f5900f2ff340089fe3700ce
:1016f0000400fa006000b800008fbe00140037003c
:101700001e00780011002000770107006000b8007b
:10171000008fbe0005003700000000001000200010
:10172000010020001e0f40005e974800f0c3290012
:1017300001002000be0f1000ae8f1800f6ff34002d
:1017400010002000010020001e0f40005e9748009e
:101750008000200001002000be0f1000ae8f180096
:10176000e7ff34000080fa00000006000800fa00dd
:101770005d0407004a050700480307001000200029
:101780000403070010002000f703070010002000ea
:10179000e9030700400620001007980040062000db
:1017a000000f78001e007800230407001e00900040
:1017b000f5030700000037000000eb0016050700e6
:1017c0008000780000322000808f500012003c0022
:1017d0001000200010050700800078000032200073
:1017e000808f50000c003c00600020000a050700bc
:1017f0008000780000322000808f500006003c00fe
:1018000070002000040507008000780000322000ee
:10181000808f50005a00340080c12f0010079800bc
:1018200080c12f00000f78001e007800020407001e
:101830001e009000d4030700adff07006000b80051
:1018400020079800310798000700370000000000cb
:101850002e009000be00900061004000e080480033
:1018600020079800310798002e019000be019000db
:10187000f00f270021002000800f5100818f5900b8
:10188000f2ff340000ce2f00100798000032200035
:10189000000f78001e007800e70307001e0090008c
:1018a000b903070092ff07006000b8002007980006
:1018b0003107980007003700000000002e0090005c
:1018c000be00900061004000e080480020079800c2
:1018d000310798002e019000be019000f0112a00ff
:1018e00071002000800f5100818f5900f2ff3400f9
:1018f000803e200010079800803e2000000f7800f6
:101900001e007800cc0307001e0090009e03070015
:1019100077ff07006000b8002007980031079800a3
:1019200007003700000000002e009000be0090006d
:1019300061004000e08048002007980031079800cf
:101940002e019000be019000f00f27002100200022
:10195000800f5100818f5900f2ff340040062000b3
:101960001007980040062000000f78001e00780045
:10197000b10307001e009000830307008eff3700ad
:1019800020002000a404070080007800003220001e
:10199000808f500012003c00300020009e040700a1
:1019a0008000780000322000808f50000c003c0046
:1019b00040002000980407008000780000322000da
:1019c000808f500006003c00500020009204070069
:1019d0008000780000322000808f50002400340006
:1019e000803e200010079800803e2000000f780005
:1019f0001e007800900307001e009000620307009d
:101a00003bff07006000b8002007980031079800ee
:101a100007003700000000002e009000be0090007c
:101a200061004000e08048002007980031079800de
:101a30002e019000be019000f00f27002100200031
:101a4000800f5100818f5900f2ff340040062000c2
:101a50001007980040062000000f78001e00780054
:101a6000750307001e0090004703070052ff370070
:101a70008a02070050ff37000000fa001900070033
:101a80000080fa00000006000600fa00000f78004f
:101a9000110798002207980005e1a90050002000d6
:101aa0002e000700800078001e00780001087800f2
:101ab0006000200029000700800078001e009000d0
:101ac00001087800700020002400070080007800e2
:101ad0002e0090000108780005e1a8000080fa00bf
:101ae000000006000000fa000000eb00201588004e
:101af0002015800010158800101580000015880042
:101b0000a802a800a822a800a842a900a862a900cb
:101b1000a882a900a8a2a900a8c2a900a8e2a900b9
:101b2000a902a900a922a900a942a900a962a900a5
:101b3000a982a900a9a2a900a9c2a900a9e2a90095
:101b4000200120002015880070002000301588003a
:101b5000a1e2a8000080fa00000006000600fa00da
:101b6000100798001e009000ef0f50000300360091
:101b70000000eb0020079800120037001e009000c4
:101b800030158800a022a8000000eb00000f7800ac
:101b9000010037001e0fe800700220009e0f1000a9
:101ba000fcff34008560a900a022a90085c0bf0009
:101bb000684060000004e000fcff32000014800078
:101bc000200798002e0090000080fa000000060018
:101bd0000000fa00c4c2a900c4e2a900c522a900fd
:101be000c582a900c542a900c5a2a900c5c2a90015
:101bf000c5e2a900c0c2a900c0e2a900c122a90093
:101c0000c182a900c142a900c1a2a900c1c2a90004
:101c1000c1e2a900d022a900cc22a900d042a9008b
:101c2000cc42a900e2e2a900e302a900e802a9006f
:101c3000e822a900dee2a900df02a900e402a9006f
:101c4000e422a900e202a900de02a900d602a9004e
:101c5000d622a900d642a900d662a900d682a90040
:101c6000d6a2a900d6c2a900d6e2a900d202a90034
:101c7000d222a900d242a900d262a900d282a90030
:101c8000d2a2a900d2c2a900d2e2a900d1a2a90081
:101c9000cda2a900e842a900e862a900e442a90097
:101ca000e462a900de22a800dec2a800e4c2a80007
:101cb000e4e2a800e502a800e522a800de22a800d0
:101cc000d302a800d322a800d342a800d362a80060
:101cd000d382a800d3a2a800d3c2a800d3e2a80050
:101ce0000080fa00000006000600fa00000f7800ed
:101cf000110798001e007800200798002e00900021
:101d0000e30f50007d0032002e009000e30f5000e2
:101d100007003e002e009000e10f50003800320016
:101d20002e009000e10f500057003e000d003700dc
:101d30002e009000e50f5000b20032002e009000ff
:101d4000e50f5000900039002e009000e60f500083
:101d5000d10032002e009000e70f5000f500320055
:101d6000160137001e009000e10f500014003600ed
:101d7000c4c2bf000080fb004600de00614060007e
:101d80000004a2006140600061406000004040002b
:101d90000040400000404000004040000040400043
:101da00000414000412c200091407800f0cbb3006e
:101db00000c0600002407000c4e2b7007301370049
:101dc0001e009000614060006140600000404000e3
:101dd0000040400000404000004040000040400003
:101de00000414000412c200091407800f0cbb3002e
:101df00000c0600002407000c4e2b7006301370019
:101e00001e009000e10f500011003600c4c2bf0058
:101e10000080fb004700de000004a200614060007b
:101e200000404000004040000040400000404000b2
:101e3000004040000040400080404000c4c2bf005d
:101e40000074a10001407000c4e2b7004f013700e8
:101e50001e009000614060000040400000404000d3
:101e60000040400000404000004040000040400072
:101e700080404000c4c2bf000074a1000140700057
:101e8000c4e2b700410137001e009000e10f50008e
:101e90000f003600c5c2bf000080fb000000d1006b
:101ea000614060000004a200614060006140600089
:101eb00000414000512c200091407800d0cfb30069
:101ec00000c0600002407000c5e2b7002f0137007b
:101ed0001e009000614060006140600000414000d1
:101ee000512c200091407800d0cfb30000c060009a
:101ef00002407000c5e2b700240137001e009000c8
:101f0000e10f500012003600c5c2bf000080fb0088
:101f10004400de00614060000004a20061406000f7
:101f20006140600000404000004040000040400030
:101f300000414000512c200091407800f0ceb300c9
:101f400000c0600002407000c5e2b7000f0137001a
:101f50001e00900061406000614060000040400051
:101f6000004040000040400000414000512c200053
:101f700091407800f0ceb30000c0600002407000d5
:101f8000c5e2b700010137001e009000e10f5000cc
:101f900010003600c5c2bf000080fb004200de001a
:101fa000614060000004a200614060006140600088
:101fb0000040400000414000512c2000914078003a
:101fc000b0cfb30000c0600002407000c5e2b700af
:101fd000ee0037001e00900061406000614060002c
:101fe0000040400000414000512c2000914078000a
:101ff000b0cfb30000c0600002407000c5e2b7007f
:10200000e20037001e009000e10f50001300360080
:10201000c5c2bf000080fb004500de0061406000db
:102020000004a20061406000614060000040400088
:10203000004040000040400000404000004140009f
:10204000512c200091407800f0cdb30000c060001a
:1020500002407000c5e2b700cc0037001e009000bf
:10206000614060006140600000404000004040006e
:10207000004040000040400000414000512c200042
:1020800091407800f0cdb30000c0600002407000c5
:10209000c5e2b700bd0037001e009000e10f500000
:1020a00014003600c5c2bf000080fb004600de0001
:1020b000614060000004a200614060006140600077
:1020c0000040400000404000004040000040400010
:1020d0000040400000414000512c20009140780019
:1020e000f0cbb30000c0600002407000c5e2b70052
:1020f000a60037001e009000614060006140600053
:1021000000404000004040000040400000404000cf
:102110000040400000414000512c200091407800d8
:10212000f0cbb30000c0600002407000c5e2b70011
:10213000960037001e009000e10f5000110036009d
:10214000c5c2bf000080fb004700de000004a20003
:1021500061406000004040000040400000404000fe
:1021600000404000004040000040400080404000ef
:10217000c5c2bf000074a10001407000c5e2b700f5
:10218000820037001e009000614060000040400067
:10219000004040000040400000404000004040003f
:1021a0000040400080404000c5c2bf000074a10054
:1021b00001407000c5e2b700740037001e009000b7
:1021c000614060000040400000404000004040008e
:1021d000004040000040400000404000804040007f
:1021e000c5c2bf000074a10001407000c5e2b70085
:1021f000c5c2bf000080fb004700de0061406000f8
:1022000000404000004040000040400000404000ce
:102210000040400000414000512c200091407800d7
:10222000f0cbb30000c0600002407000c5e2b70010
:10223000c5c2bf000080fb004600de0061406000b8
:10224000614060000040400000404000004040000d
:102250000040400000414000512c20009140780097
:10226000f0cdb30000c0600002407000c5e2b700ce
:10227000c5c2bf000080fb004500de006140600079
:10228000614060000040400000414000512c2000af
:1022900091407800b0cfb30000c0600002407000f1
:1022a000c5e2b700c5c2bf000080fb004200de00ef
:1022b000614060006140600000404000004040001c
:1022c0000040400000414000512c20009140780027
:1022d000f0ceb30000c0600002407000c5e2b7005d
:1022e000c5c2bf000080fb004400de00614060000a
:1022f0006140600000414000512c20009140780076
:10230000d0cfb30000c0600002407000c5e2b7004b
:10231000c5c2bf000080fb000000d100614060002a
:1023200000404000004040000040400000404000ad
:10233000004040000040400080404000c4c2bf0058
:102340000074a10001407000c4e2b700c4c2bf0025
:102350000080fb004700de0061406000004040005c
:10236000004040000040400000404000004040006d
:1023700000414000412c200091407800f0cbb30098
:1023800000c0600002407000c4e2b7000080fa00a4
:10239000000006000200fa00000f78001000200084
:1023a0009e0f100010003600d0c2bf000080fb005e
:1023b0004200de00614060000004a2006140600055
:1023c000614060000040400000414000012d2000bd
:1023d00091407800b0cfb30000c0600002407000b0
:1023e000d0e2b7000b0037001e00780061406000ab
:1023f000614060000040400000414000012d20008d
:1024000091407800b0cfb30000c06000024070007f
:10241000d0e2b7000080fa00000006000200fa00d7
:10242000000f7800100020009e0f10000f003600f3
:10243000d0c2bf000080fb000000d10061406000fe
:102440000004a20061406000614060000041400063
:10245000012d200091407800d0cfb30000c0600073
:1024600002407000d0e2b7000a0037001e0078007a
:10247000614060006140600000414000012d20008b
:1024800091407800d0cfb30000c0600002407000df
:10249000d0e2b7000080fa00000006000000fa0059
:1024a000c4c2a900c4e2a900c522a900c582a9002e
:1024b000c542a900c5a2a900c5c2a900c5e2a900dc
:1024c0000080fa000000060000a0fe003400f800c2
:1024d000881f780008c0b300a80188004f04780066
:1024e0000200fa0086c0a900a04180000000e000c0
:1024f0000c003400c04180000000e800c0418800aa
:10250000204280000000e900204288002042800034
:102510000000e0000e003d00300020002042880056
:102520000b003700c04180000000e900c041880076
:10253000204280000000e800204288002042800005
:10254000e30f5000020034000000eb00204288003e
:1025500020428000000f78001e007800e10f50003c
:10256000130032001e007800e10f500004003c0010
:102570001e0078000000e000080032001a0037005a
:102580001e007800e20f50000e0032001e0078009e
:10259000e30f50001000320013003700d602a900ec
:1025a000d622a800d642a900d662a8000e003700a5
:1025b000d602a900d622a800d642a800d662a90059
:1025c00009003700d602a800d622a900d642a800ea
:1025d000d662a90004003700d602a800d622a900be
:1025e000d642a900d662a8000080fa003400f900a3
:1025f0000080fe000040060000a0fe003400f8004d
:10260000881f780008c0b300a80188004f04780034
:102610000200fa0086a0a900b04180000000e0009e
:102620000c003d00d04180000000e900d04188004e
:10263000304280000000e9003042880030428000d3
:102640000000e0000e003d00300020003042880015
:102650000b003700d04180000000e800d041880026
:10266000304280000000e8003042880030428000a4
:10267000e30f5000020034000000eb0030428800fd
:1026800030428000000f78001e007800e10f5000fb
:10269000130032001e007800e10f500004003c00df
:1026a0001e0078000000e000080032001a00370029
:1026b0001e007800e20f50000e0032001e0078006d
:1026c000e30f50001000320013003700d682a9003b
:1026d000d6a2a800d6c2a900d6e2a8000e003700f4
:1026e000d682a900d6a2a800d6c2a800d6e2a90028
:1026f00009003700d682a800d6a2a900d6c2a80039
:10270000d6e2a90004003700d682a800d6a2a9000c
:10271000d6c2a900d6e2a8000080fa003400f90071
:102720000080fe00004006000000fa00c04180006a
:102730000080fa00000006000200fa00000f780096
:102740001027fc001e007800c04188000200fc0039
:102750000080fa00000006000000fa00d04180006e
:102760000080fa00000006000200fa00000f780066
:102770001027fc001e007800d04188000200fc00f9
:102780000080fa00000006000400fa00000f780044
:102790001e00e00006003a0021e1a900d602a900cf
:1027a000d622a900d642a900d662a900200037008f
:1027b00021e1a9001e007800a04188000000eb0084
:1027c00000098800011220009140780000c3b30086
:1027d00000c0700020e1b7000000eb00c0088800d6
:1027e0001e017800120798001e0090000000e00013
:1027f00003003d001e0190000201ea00120798004c
:102800001e0190006110b900bdf607000001be0076
:10281000000020001176240039f707007af707003e
:10282000e008880086c0a9008ec0a80021e1a800a9
:102830000080fa00000006000400fa00000f780093
:102840001e00e00006003a001fe1a900d682a900a0
:10285000d6a2a900d6c2a900d6e2a900200037005e
:102860001fe1a9001e007800b04188000000eb00c5
:10287000f0088800e11120009140780000c3b30007
:1028800000c070001ee1b7000000eb00a008880047
:102890001e017800120798001e0090000000e00062
:1028a00003003d001e0190000201ea00120798009b
:1028b0001e0190006110b90091f607000001be00f2
:1028c00000002000117624000df707004ef70700e6
:1028d000d008880086a0a9008ea0a8001fe1a8004b
:1028e0000080fa00000006000000fa00b8fc0700b3
:1028f0000080fa00000006000000fa000000eb0073
:10290000200888004110200091407800f0ccb300ee
:1029100000c060000044a00004e1b7000000eb002c
:102920000008880050282000100888008460a90052
:102930008c60a80005e1a8000080fa0000000600f5
:1029400000a0fe003600f800849fbe00869fbe00f7
:102950003400f80004c0b300a40188000200fa00ab
:102960008460a90000408000000f78001e007800fd
:10297000e10f5000330032001e007800e10f5000dc
:1029800004003c001e0078000000e0000800320057
:102990009a0037001e007800e20f50004e0032000f
:1029a0001e007800e30f50007000320093003700e3
:1029b000104080000000e0000c003a005028200089
:1029c000100888008000200064fc07002040880078
:1029d000c000200061fc070060408800e2e2a8001f
:1029e000100020001040880084003700e0f1200033
:1029f000100888008000200058fc0700a0408800d4
:102a0000c000200055fc0700e04088002140800005
:102a1000a04080000080500020418800614080007c
:102a2000e04080000080500060418800e2e2a900a0
:102a30000000eb00104088001000200000408800db
:102a40006e003700104080000000e0000c003a00eb
:102a50005028200010088800900020003ffc07004c
:102a600030408800d00020003cfc07007040880007
:102a7000e302a80010002000104088005f0037002b
:102a8000e0f12000100888009000200033fc0700cf
:102a9000b0408800d000200030fc0700f0408800e3
:102aa00031408000b04080000080500030418800fc
:102ab00071408000f040800000805000704188002c
:102ac000e302a9000000eb00104088002000200075
:102ad0000040880049003700104080000000e000fe
:102ae0000c003a005028200010088800a0002000a8
:102af0001afc070040408800e000200017fc070097
:102b000080408800e802a8001000200010408800e3
:102b10003a003700e0f1200010088800a0002000f3
:102b20000efc0700c0408800e00020000bfc0700fe
:102b30000041880041408000c0408000008050007b
:102b400040418800814080000041800000805000aa
:102b500080418800e802a9000000eb0010408800d6
:102b60003000200000408800240037001040800022
:102b70000000e0000c003a005028200010088800f7
:102b8000b0002000f5fb070050408800f000200056
:102b9000f2fb070090408800e822a8001000200007
:102ba0001040880015003700e0f120001008880070
:102bb000b0002000e9fb0700d0408800f0002000b2
:102bc000e6fb07001041880051408000d0408000a3
:102bd00000805000504188009140800010418000ea
:102be0000080500090418800e822a9000000eb001e
:102bf000104088000000eb00004088000080fa00d0
:102c00003400f9004f03be004f02be003600f90049
:102c10000080fe00004006000400fa00000f78006b
:102c2000700020009e0f1000030036000000eb0033
:102c300010079800060037001e0078008000400052
:102c400040822000008040001000780010079800ab
:102c50001e0090000080fa00000006000400fa0048
:102c6000000f7800700020009e0f10000300360057
:102c70000000eb0010079800060037001e007800e7
:102c8000800040004080200000804000100078005c
:102c9000100798001e0090000080fa000000060057
:102ca0000000fa008ffb070013ff07000080fa0006
:102cb000000006001e00fa00881f78006000b800bf
:102cc000300f9800410f98000000eb00200f980093
:102cd0000000eb00100f980000c429000100200044
:102ce00070079800010f980000a8210061002000e3
:102cf00050079800610798006000b80030079800fe
:102d0000410798000000eb0020079800f6fe07003e
:102d1000e3ff0700e1fd0700100020009dfd070014
:102d20001000200090fe07001000200082fe070027
:102d300040062000c0fe07004006200092fe07006b
:102d40002e089000cf80de006df507006266260039
:102d500063f6230095f50700c8f50700200f9800db
:102d60001e089000cf80de0065f507006266260031
:102d700063f623008df50700c0f50700100f9800db
:102d80002e0890006002b000200f98001e089000ee
:102d90006002b000100f98006000b800300f98007b
:102da000410f9800930037003e0890009aff0700fb
:102db00080007800301f2000808f50008400340095
:102dc0003e089000ce089000500f9800610f9800c8
:102dd00030002000010020005e099000ee09900004
:102de000800f5100818f59004f00320030002000c9
:102df000010020005e099000ee099000800f510054
:102e0000818f590014003c001000200001002000b8
:102e10005e099000ee099000800f5100818f5900eb
:102e20003100320010002000010020005e099000f7
:102e3000ee099000800f5100818f590032003c0054
:102e40005e089000ee089000e00f5000e08f580000
:102e50001e0032005a003700500020000100200000
:102e60005e099000ee099000800f5100818f59009b
:102e70003d00320050002000010020005e0990005b
:102e8000ee099000800f5100818f59002e0035000f
:102e900060002000010020005e099000ee09900013
:102ea000800f5100818f59003700320070002000e0
:102eb000010020005e099000ee099000800f510093
:102ec000818f5900380032003d0037002e089000f5
:102ed0006009b000200f98001e0890004006b00066
:102ee000100f9800360037002e0890004006b00002
:102ef000200f98009e089000c0f92f00008040002d
:102f0000100f98002e0037002e089000c012b0005d
:102f1000200f98009e08900000e72f0000804000de
:102f2000100f9800260037002e0890000019b000fe
:102f3000200f98009e08900040ed2f000080400078
:102f4000100f98001e0037002e0890000019b000e6
:102f5000200f98009e08900040ed2f000080400058
:102f6000100f980016003700ae08900000e72f0001
:102f700000804000200f98001e089000c012b00092
:102f8000100f98000e003700ae089000c0f92f0017
:102f900000804000200f98001e0890004006b000fe
:102fa000100f9800060037002e0890006009b0004e
:102fb000200f98001e0890004006b000100f9800e7
:102fc0003e0890001100200047fb07000300370077
:102fd0003e0890008000eb0043fb07003e08900095
:102fe000ce08900061004000e0804800300f98005b
:102ff000410f98003e099000ce099000600020002b
:1030000001002000800f5100818f590066ff3400bd
:103010003e009000ce00900061004000e08048003b
:1030200030079800410798000000eb00fafe070007
:103030000004780070002000f7fe070080004400c4
:103040004f08de00010040000080d100100798000a
:103050001e0090000000e00002003c001000200074
:10306000100798005e0190001e0090007400b900e7
:10307000000f5100be0090007e009000000ab800d2
:10308000be0090000e0890000088b900050178008d
:1030900000014100fe0090004e0090000088b90041
:1030a00000014100820278001e007800cf80de001f
:1030b000800f5200818f5a001a0034002e009000b9
:1030c00061001000200798006000b800300f9800e1
:1030d000410f980009003700ae0090003e089000b4
:1030e00001fb07003e089000ce0890006100400000
:1030f000e0804800300f9800410f98003e09900092
:10310000ce0990006000200001002000800f5100d7
:10311000818f5900f0ff34006000b800300798003c
:1031200041079800ae089000803e2000808f50003c
:1031300002003400803e2000200f98009e0890007e
:10314000803e2000808f500002003400803e20002e
:10315000100f9800ae08900080c12f00808f5000a3
:1031600002003d0080c12f00200f98009e089000b3
:1031700080c12f00808f500002003d0080c12f00d1
:10318000100f98006000b800300f9800410f9800b1
:1031900007003700000000003e089000ce089000b5
:1031a00061004000e0804800300f9800410f980017
:1031b0003e099000ce0990007e0090008e0890009d
:1031c000800f5100818f5900f2ff35001e089000da
:1031d00099fd07002e0890006bfd0700d8fe370010
:1031e0000400fa003a000700000f78001e00780083
:1031f000100798001e009000e20f500018003200e7
:103200001e009000e20f500007003c001e009000de
:103210000000e0000e0032001e009000e10f5000a0
:103220000d003200160037001e009000e40f500021
:103230000f0032001e009000e40f50000a0035001d
:103240001e009000e50f50000b0032000c0037000c
:103250005bf507000b00370044f907000900370051
:10326000a8f607000700370092fe070005003700a8
:103270008f02070003003700270407000100370012
:103280002f0007000080fa00000006000800fa0086
:1032900020079800310798006000b800008fbe003a
:1032a0000400370010002000010020001e0f400025
:1032b0005e9748002e009000be009000be0f1000e8
:1032c000ae8f1800f7ff35000080fa0000000600fe
:1032d0000000fa00e6c2bf000080fb004600de00ee
:1032e000614060000081fb00e7c2bf000080fb007e
:1032f0000000d100614060000080fb000000400041
:1033000080007800e7c2bf00614060000080fb00e1
:10331000008040000000400080007800e6c2bf004e
:103320000080fb004700de000080fb0000804000c2
:1033300000004000000041000080fa00000006008c
:103340003200fa006000b800500f9800610f98003a
:103350000000eb00400f98000000eb00300f9800d9
:103360000000eb00200f98000000eb00100f980009
:1033700040062000000f9800800c20007007980085
:10338000003220006007980050002000500798008d
:1033900055fd070042fe070040fc07006000b80032
:1033a000500f9800610f9800090037005e089000e8
:1033b000110020004cfa07005e089000ee08900013
:1033c00061004000e0804800500f9800610f9800b5
:1033d0005e099000ee0990007000200001002000be
:1033e000800f5100818f5900f0ff34001000200041
:1033f000ddfc070010002000cffc07004006200085
:103400000dfd070040062000dffc0700000037002c
:103410001e089000e10f50001d003a00ce089000f9
:103420005e00900000805000400f9800be089000a1
:103430005e00900000804000300f9800be089000b1
:103440000e089000808f500004003500de009000d0
:103450000080eb000088b900500798000000eb00e6
:10346000400798004e009000e10f500004003a0021
:103470006e009000400f9800ee009000310f980011
:103480006000b800500f9800610f9800e501370008
:1034900002fc070010002000befb070040062000d1
:1034a0003007980040062000200798002e0090006a
:1034b000e1fc07003e009000b3fc07000000eb00b9
:1034c00010079800fe004700c0382a0007000900d6
:1034d000b01878000101b1000001b10050002000d7
:1034e000000f78006000b800500f9800610f98003e
:1034f000940037005e089000c7fd07008000780048
:10350000301f2000808f5000850034005e0990003d
:10351000ee09900072179800031f980030002000f9
:10352000010020007e1190008e199000800f510044
:10353000818f59005000320030002000010020002f
:103540007e1190008e199000800f5100818f5900dc
:1035500014003c0010002000010020007e119000ab
:103560008e199000800f5100818f59003200320077
:1035700010002000010020007e1190008e199000a4
:10358000800f5100818f590033003c007e10900065
:103590008e189000e00f5000e08f58001e0032009f
:1035a0005b00370050002000010020007e119000d9
:1035b0008e199000800f5100818f59003e0032001b
:1035c00050002000010020007e1190008e19900014
:1035d000800f5100818f59002f00350060002000be
:1035e000010020007e1190008e199000800f510084
:1035f000818f590038003200700020000100200047
:103600007e1190008e199000800f5100818f59001b
:10361000380032003e003700be009000e0fc2f0072
:1036200000804000300798002e0090007e0050007f
:103630002007980036003700be009000e0fc2f0005
:1036400000804000300798002e0090002003b0005a
:10365000200798002e003700be009000c0f92f0010
:1036600000804000300798002e0090002008b00035
:103670002007980026003700be009000e0f72f00da
:1036800000804000300798002e0090004006b000f7
:10369000200798001e003700be009000e0f72f00c2
:1036a00000804000300798002e0090004006b000d7
:1036b00020079800160037003e0090002008b00058
:1036c00030079800ae009000c0f92f000080400045
:1036d000200798000e0037003e0090007e0040005a
:1036e000300798002e0090007e00500020079800c0
:1036f00007003700be009000e0fc2f000080400073
:10370000300798002e0090007e005000200798009f
:103710005e0890001100200073f9070003003700d5
:103720005e0890008000eb006ff907005e089000d3
:10373000ee08900061004000e0804800500f9800c3
:10374000610f98005e099000ee0990006000200073
:1037500001002000800f5100818f590065ff340067
:10376000be0090007e009000808f50000200340068
:10377000fe01900033079800ae0090007e0090009c
:10378000808f5000020034007e00900020079800d7
:103790007e0090008000ea003e009000808f500084
:1037a000030034007e0090000000ea00300798001b
:1037b0007e0090008000ea002e009000808f500074
:1037c000030034007e0090000000ea00200798000b
:1037d0006000b800500f9800610f98002900370072
:1037e0005e0890000cfd0700800078003038200053
:1037f000808f5000160034005e099000ee099000a2
:10380000fe00470002007800000040006080780061
:103810000002e800fe0047000200780000004000bf
:1038200001004000040878005e089000ee08900057
:103830007e01470000004000600079009e0f5000ac
:103840000a0034001000200010079800070037001d
:103850005e089000ee0890007e01470000004000e6
:10386000820040000000eb00800878005e089000b5
:10387000ee08900061004000e0804800500f980082
:10388000610f98005e099000ee0990006000200032
:1038900001002000800f5100818f5900d0ff3400bb
:1038a0001e009000e10f5000d2003a0010002000ee
:1038b000e1fb070010002000b3fb0700f7fa070048
:1038c00010002000b3fa07006000b800500f980005
:1038d000610f980007003700000000005e089000ac
:1038e000ee08900061004000e0804800500f980012
:1038f000610f98005e099000ee099000f0c3290066
:1039000001002000800f5100818f5900f2ff340028
:103910000000eb009ffa07006000b800500f98000d
:10392000610f980007003700000000005e0890005b
:10393000ee08900061004000e0804800500f9800c1
:10394000610f98005e099000ee099000f0c3290015
:1039500001002000800f5100818f5900f2ff3400d8
:10396000100020008bfa07006000b800500f98008c
:10397000610f980007003700000000005e0890000b
:10398000ee08900061004000e0804800500f980071
:10399000610f98005e099000ee099000f087230007
:1039a00011002000800f5100818f5900f2ff340078
:1039b0000000eb0077fa07006000b800500f980095
:1039c000610f980007003700000000005e089000bb
:1039d000ee08900061004000e0804800500f980021
:1039e000610f98005e099000ee099000f0c3290075
:1039f00001002000800f5100818f5900f2ff340038
:103a00001000200063fa07006000b800500f980013
:103a1000610f980007003700000000005e0890006a
:103a2000ee08900061004000e0804800500f9800d0
:103a3000610f98005e099000ee099000f00f2700da
:103a400021002000800f5100818f5900f2ff3400c7
:103a50000000eb004ffa07006000b800500f98001c
:103a6000610f980007003700000000005e0890001a
:103a7000ee08900061004000e0804800500f980080
:103a8000610f98005e099000ee099000f00f27008a
:103a900021002000800f5100818f5900f2ff340077
:103aa000100020003bfa07006000b800500f98009b
:103ab000610f9800090037005e0890001100200097
:103ac00089f807005e089000ee0890006100400051
:103ad000e0804800500f9800610f98005e09900048
:103ae000ee0990006000200001002000800f5100ce
:103af000818f5900f0ff34006000b800500f98002b
:103b0000610f980007003700000000005e08900079
:103b1000ee08900061004000e0804800500f9800df
:103b2000610f98005e099000ee099000f0e124001a
:103b300001002000800f5100818f5900f2ff3400f6
:103b40000000eb0013fa070054fa07006000b80009
:103b5000500f9800610f9800070037000000000028
:103b60005e089000ee08900061004000e080480090
:103b7000500f9800610f98005e099000ee099000c8
:103b8000f0e1240001002000800f5100818f5900d6
:103b9000f2ff340010002000fef907006000b800ba
:103ba000500f9800610f9800090037005e089000e0
:103bb000110020004cf807005e089000ee0890000d
:103bc00061004000e0804800500f9800610f9800ad
:103bd0005e099000ee0990006000200001002000c6
:103be000800f5100818f5900f0ff34001000200039
:103bf000100f98002e0090000ffb07003e00900071
:103c0000e1fa070037fe3700000000005e08900070
:103c1000ee08900061004000e0804800500f9800de
:103c2000610f98005e099000ee099000f0c3290032
:103c300001002000800f5100818f5900f2ff3400f5
:103c40003e089000fcfa07004e089000cefa0700ec
:103c50002e089000e10f5000edfd3a006000b80022
:103c6000500f9800610f9800070037000000000017
:103c70005e089000ee08900061004000e08048007f
:103c8000500f9800610f98005e099000ee099000b7
:103c9000f069280011002000800f5100818f590029
:103ca000f2ff34000000eb00200f9800d8fd370031
:103cb0000c00fa000cfb0700f9fb0700f7f90700fe
:103cc00010002000b3f9070010002000a6fa07003a
:103cd0001000200098fa07000000eb003007980061
:103ce0000000eb00200798000000eb001007980090
:103cf000730037006000b800400798005107980033
:103d000007003700000000004e009000de00900029
:103d100061004000e080480040079800510798008b
:103d20004e019000de019000f06928001100200093
:103d3000800f5100818f5900f2ff3400c012200023
:103d400030079800c0122000200798003e00900025
:103d5000cf80de006af107006266260063f623006a
:103d600092f10700c5f10700300798002e0090007f
:103d7000cf80de0062f107006266260063f6230052
:103d80008af10700bdf10700200798006000b80025
:103d90004007980051079800070037000000000016
:103da0004e009000de00900061004000e08048007e
:103db00040079800510798004e019000de019000e6
:103dc000f0c3290001002000800f5100818f5900ad
:103dd000f2ff34002e00900097fa07003e0090009a
:103de00069fa07000000eb008bfb070080007800f9
:103df000301f2000808f500006003c007000200023
:103e000085fb070080007800301f2000808f500065
:103e10001c00340040ed2f0030079800c012200035
:103e2000200798006000b8004007980051079800ec
:103e300007003700000000004e009000de009000f8
:103e400061004000e080480040079800510798005a
:103e50004e019000de019000f0c329000100200017
:103e6000800f5100818f5900f2ff34002e00900026
:103e700071fa07003e00900043fa0700100020008e
:103e8000100798002000200063fb070080007800e6
:103e9000301f2000808f5000090034000000eb002c
:103ea000000f780003003700100020001007980072
:103eb0001e0fe800007122009e0f1000faff340070
:103ec0001e0090000000e0008aff3200f30037007f
:103ed0002000200050fb070080007800f018200030
:103ee000808f500035003c006000b800400798000b
:103ef0005107980007003700000000004e009000b6
:103f0000de00900061004000e0804800400798001b
:103f1000510798004e019000de019000f0692800e2
:103f200011002000800f5100818f5900f2ff3400f2
:103f3000c01220003007980040062000200798009b
:103f40002e0090003cfa07003e0090000efa070099
:103f50001a0037006000b800400798005107980029
:103f600007003700000000004e009000de009000c7
:103f700061004000e0804800400798005107980029
:103f80004e019000de019000f0c3290001002000e6
:103f9000800f5100818f5900f2ff340040ed2f0057
:103fa00030079800c0122000200798002e009000d3
:103fb00021fa07003e009000f3f907000000eb0033
:103fc00015fb070080007800301f2000808f500014
:103fd000e0ff3c00700020000ffb0700800078002d
:103fe000703e2000808f5000daff3c00100020005f
:103ff00009fb070080007800f0312000808f50001e
:10400000d4ff3c002000200003fb07008000780064
:1040100080252000808f50001a0034006000b80016
:104020004007980051079800070037000000000083
:104030004e009000de00900061004000e0804800eb
:1040400040079800510798004e019000de01900053
:10405000f069280011002000800f5100818f590065
:10406000f2ff34004006200030079800c012200004
:10407000200798002e009000eff907003e00900006
:10408000c1f9070020002000e3fa07008000780053
:10409000101c2000808f50005a0034000000eb00fc
:1040a000ddfa070080007800401f2000808f50005c
:1040b00054003c0070002000d7fa07008000780010
:1040c00000322000808f50004e003c001000200085
:1040d000d1fa07008000780000322000808f500065
:1040e00048003c0060002000cbfa07008000780008
:1040f00000322000808f500042003c002000200051
:10410000c5fa07008000780060222000808f5000f0
:104110003c003c006000b800400798005107980040
:1041200007003700000000004e009000de00900005
:1041300061004000e0804800400798005107980067
:104140004e019000de019000f0692800110020006f
:10415000800f5100818f5900f2ff3400c0122000ff
:1041600030079800c0122000200798003e00900001
:10417000cf80de0062f007006266260063f623004f
:104180008af00700bdf00700300798002e0090006d
:10419000cf80de005af007006266260063f6230037
:1041a00082f00700b5f00700200798006000b80013
:1041b00040079800510798000700370000000000f2
:1041c0004e009000de00900061004000e08048005a
:1041d00040079800510798004e019000de019000c2
:1041e000f0c3290001002000800f5100818f590089
:1041f000f2ff34002e0090008ff907003e0090007f
:1042000061f907005000200083fa07008000780061
:1042100080252000808f500006003c0060002000b8
:104220007dfa07008000780080252000808f5000f4
:104230001a0034006000b800400798005107980049
:1042400007003700000000004e009000de009000e4
:1042500061004000e0804800400798005107980046
:104260004e019000de019000f0692800110020004e
:10427000800f5100818f5900f2ff3400c0122000de
:10428000300798000000eb00200798002e009000f7
:1042900069f907003e0090003bf907001e009000fe
:1042a0000000e0000aff3a0005ff37000200fa00b4
:1042b000e202a8000000eb00000f780001003700c8
:1042c0001e0fe800f07022009e0f1000fcff34006b
:1042d0001c0007003a0007000080fa0000000600fa
:1042e0000400fa00000f7800110798003ea8ef00c4
:1042f0003c28ef009e0090001e007800860007001a
:104300000080fa00000006000000fa00e202a900a6
:104310000080fa00000006000000fa00b900070063
:10432000e2ff070011002000700020006ef6070079
:1043300041e92000e0c72100e9ff07000080fa0002
:1043400000000600801f78004022ef004222ef00ac
:104350004422ef004822ef004c22ef00c6e2a80002
:10436000e5a2a900e582a800e5e2a900e5c2a9004e
:104370004002a9004022a90040a2a9004122a900b0
:1043800040c2a8004102a9004142a900f00e20004d
:10439000101288004362a9004342a80030002000a8
:1043a000201288004c02a8004802a8008920a90019
:1043b0009120a90041e2a9004f007800000006000a
:1043c000811f7800801f7800f0ff2700c01288004e
:1043d000003020000000b300d0128800de02a900e7
:1043e00000000000e002a9009001090000000000a8
:1043f000e002a80041e2a8004602ae00feff37003e
:10440000f0ff2700c0128800004020003001b300f8
:10441000d01288004602ae00feff3700f0ff2700f2
:10442000c0128800001020000030a0000040a00052
:10443000d01288004602ae00feff3700f0ff2700d2
:10444000c012880000202000d01288004602ae0072
:10445000feff3700f0ff2700c01288000060200038
:104460000010a000d01288004602ae00feff370008
:10447000f0ff2700c012880000702000f005b30094
:10448000d01288004602ae00feff370001f0200087
:1044900030128000010060000000e000fcff3a00e4
:1044a00030128000010060000000e000fcff3200dc
:1044b00030128000010060000000e000fcff3a00c4
:1044c00030128000010060000000e000fcff3200bc
:1044d0004662ae0002003700801280009012800019
:1044e00041e2a900f01e2000101288004362a800db
:1044f0004342a8008920a900a8c0a800a8a0a9003c
:10450000a880a9009120a80041e2a8004f007800ef
:10451000cf00780000000600811f7800821f78001d
:104520004100dd00030037004f017800cf00780024
:1045300000000600014288000001eb00c1392a009a
:104540008100400003003900020028008280400002
:10455000120020004400f8003400f8004440a80095
:104560000000200002004000a001880000000000c0
:10457000f422020000000000110078000000a100f9
:10458000c0128800f4220200000000001100780030
:104590000000a100d0128800f422020000000000f8
:1045a000110078000000a100e0128800f42202004f
:1045b00000000000110078000000a100f012880047
:1045c00040a8ed0040a8ed0041428800a101800014
:1045d000114288003400f900000000004400f90096
:1045e0008920a900d0ff3700e28040000400390094
:1045f000a1018000e1804000a101880001002800a5
:10460000000006000000fa00c4c2a900c4e2a9002c
:10461000c522a900c582a900c542a900c5a2a9005a
:10462000c5c2a900c5e2a900c0c2a900c0e2a90094
:10463000c122a900c182a900c142a900c1a2a9004a
:10464000c1c2a900c1e2a900d022a900cc22a900c0
:10465000d042a900cc42a900e2e2a900e302a900ed
:10466000e802a900e822a900dee2a900df02a90011
:10467000e402a900e422a900e202a900de02a900e6
:10468000d602a900d622a900d642a900d662a90066
:10469000d682a900d6a2a900d6c2a900d6e2a90056
:1046a000d202a900d222a900d242a900d262a90056
:1046b000d282a900d2a2a900d2c2a900d2e2a90046
:1046c000d1a2a900cda2a900e842a900e862a900f0
:1046d000e442a900e462a900de22a800dec2a8002c
:1046e000e4c2a800e4e2a800e502a800e522a800d0
:1046f000d302a800d322a800d342a800d362a80006
:10470000d382a800d3a2a800d3c2a800d3e2a800f5
:084710000080fa000000060021
:020000040000fa
:0200000401f009
:04000000e6ff000017
:020000040000fa
:0200000401f009
:04000400ff7f00007a
:020000040000fa
:0200000401f009
:040008007fff000076
:020000040000fa
:0200000401f009
:04001400ffff0000ea
:020000040000fa
:1000080090b8000090b8000090b8000090b80000c8
:1000180090b8000090b8000090b8000090b80000b8
:1000280090b8000090b8000090b80000a01400003c
:1000380090b8000090b8000090b8000090b8000098
:1000480090b8000090b8000090b8000090b8000088
:1000580090b8000090b8000090b8000090b8000078
:1000680090b8000090b8000090b8000090b8000068
:1000780090b80000fc1200006412000090b8000064
:1000880090b8000090b8000090b8000090b8000048
:1000980090b8000090b8000090b8000090b8000038
:1000a80090b8000090b8000090b8000090b8000028
:1000b80090b8000090b8000090b8000090b8000018
:1000c80090b8000090b8000090b8000090b8000008
:1000d80090b8000090b8000090b8000090b80000f8
:1000e80090b8000090b8000090b8000090b80000e8
:0800f80090b8000090b8000070
:020000040000fa
:1001080090b8000090b8000090b8000090b80000c7
:1001180090b8000090b8000090b8000090b80000b7
:1001280090b8000090b8000090b80000a01400003b
:1001380090b8000090b8000090b8000090b8000097
:1001480090b8000090b8000090b8000090b8000087
:1001580090b8000090b8000090b8000090b8000077
:1001680090b8000090b8000090b8000090b8000067
:1001780090b80000fc1200006412000090b8000063
:1001880090b8000090b8000090b8000090b8000047
:1001980090b8000090b8000090b8000090b8000037
:1001a80090b8000090b8000090b8000090b8000027
:1001b80090b8000090b8000090b8000090b8000017
:1001c80090b8000090b8000090b8000090b8000007
:1001d80090b8000090b8000090b8000090b80000f7
:1001e80090b8000090b8000090b8000090b80000e7
:0801f80090b8000090b800006f
:020000040000fa
:1047180030000000300000003000000030000000d1
:1047280030000000300000003000000030000000c1
:020000040000fa
:1047380006000000260000001f0000001200000014
:1047480027000000180000001c0000002d000000d9
:1047580041000000fd000000e500000032010000fb
:104768008b0200001e0200004400000024ff00002d
:10477800b8fe0000bdfe00003dff000027ff00005e
:104788003dfe000026fe00009efc0000dcf9000053
:104798003bfe0000c908000044100000d60e0000cf
:1047a8009405000033fb00005ff600008ff700005f
:1047b8008afa00008afb0000a3fa0000a1fb0000af
:1047c80021010000e7080000a60d00001a0c0000f7
:1047d800bb03000046fb0000a9f80000d3f9000065
:1047e80037fd00004aff00005afe0000c3fd00002c
:1047f800d6ff0000f90300002c060000d8010000d5
:10480800d0f8000029f80000cf030000ff0f0000d7
:104818007f110000d406000014f9000088f200009f
:10482800ddf5000006fd00007a0000009ffd000095
:1048380059fa000033fd000016060000d30d0000f1
:10484800b20d0000ec04000025f9000007f5000097
:104858009bf8000020ff0000150300000001000085
:10486800adfd0000e6fd0000a702000027070000dc
:104878008703000013f7000027f100003dfd00004a
:10488800bd100000b41900009e100000f7fd0000e4
:10489800c3f00000d8f000003ff900003bff000023
:1048a800b2fc000016f7000030f80000c601000056
:1048b800a20d0000211300003a0d0000a501000020
:1048c800acf8000082f5000006f9000051fd000078
:1048d80048fd000002fb0000f7fa0000c9ff0000d5
:1048e800d70600002e0700001afd00004bf6000056
:1048f8002dff0000980f0000d21600009b0d00004d
:10490800a4fb000013ef0000a5ef00005ff8000013
:1049180010ff00009efd000076f900007dfa0000ff
:1049280021010000390b0000b112000050100000f6
:104938001006000049fa0000bbf20000edf3000089
:1049480083f9000095fc000066fc0000c6fb00002f
:1049580015ff00003005000078040000befc0000d0
:1049680022fb00003006000051130000be130000b7
:10497800bf050000a0f40000beec0000cbf0000072
:104988003bf9000017fd00004ffa000009f900008c
:104998007cfc00008e030000790d0000db12000093
:1049a800470e0000c7010000c8f40000b1ef000086
:1049b800e5f300002cfa000026fc00001dfb0000b7
:1049c800d7fa00005e00000017060000d4010000be
:1049d80011fa0000f6fc0000120c00003617000067
:1049e8009511000010ff000067ee0000e5ea0000e6
:1049f8005ef200002afb000032fc0000abf8000069
:104a080087f900007bfe00002708000098130000cb
:104a180000160000000d0000c8fd00004cf000006a
:104a280057ed0000c0f30000e1f90000cffb0000e3
:104a380077fa000065fc00001d04000098060000dd
:104a4800ea00000094fd000044070000b4140000d0
:104a58008d1400003204000080f0000075e80000aa
:104a680049ee00001df90000defd00009afa000082
:104a7800f2f9000009fe0000ec0400007a0f0000c3
:104a88007c1500000d1200004c050000ebf400003e
:104a9800d3eb00000fef000015f70000e4fb000067
:104aa800d8fb0000d8fa00008d0100005c07000068
:104ab80079050000ef010000450600006b110000b9
:104ac800d1130000d40600006df3000041e9000096
:104ad80040ed00005df8000088ff000070fd000058
:104ae8004bfc00005eff0000fe020000f109000020
:104af800dc110000fa1500000a0f0000d5fd0000c7
:104b080021ee00002aeb0000e7f2000006fb00009f
:104b1800a4fd0000dffa000071fe00009805000007
:104b2800cc0800008a0a0000b80b0000f50e00004f
:104b3800d40d0000020300002af400008cec0000f1
:104b48009fef000020f8000077ff0000feff000044
:104b580050010000ca030000ee010000100200002e
:104b6800e7090000ab160000bd180000ff080000b0
:104b7800daf20000b5e7000046ed00000df900008c
:104b8800a0ff00002cfc000085fa00008601000050
:104b980060080000780f0000d9120000e81000003b
:104ba800ae0a0000bffe0000daf2000031ee00009d
:104bb80047f2000040f8000091fd0000f3fe0000fd
:104bc800c8020000890800009405000028000000c1
:104bd800bf0100003a0f0000181a0000db110000a6
:104be8000cfb00008ee800002ae800005ff40000db
:104bf800deff00009bff0000bcfa000037fe00004b
:104c0800fe030000eb0a0000d31000003c13000074
:104c1800ea1000000c05000059f5000042ec000005
:104c28000fef000001f60000c1fb000026fc0000a9
:104c3800d9fd000011060000b908000011080000a5
:104c480034070000850a000086100000630c00008d
:104c5800c9fc00000aed0000cee90000bef100002a
:104c6800fdfc0000530100005cff00000102000091
:104c7800af02000067020000190700002d0f0000b6
:104c8800e31500001c0f000057fc0000eceb0000cf
:104c9800c0e9000065f2000030fb00001dfd0000c7
:104ca80016fa0000c4ff00004f0700003809000092
:104cb800070b0000a90b0000e90d0000950b000090
:104cc80065ff0000ebf00000ffea000058ef00006d
:104cd800c1f7000087fe0000b8fe00005d0200007a
:104ce800b70600000a040000f70200005906000099
:104cf800ca0f0000251400003c0800002ff4000033
:104d080050e80000d7eb0000a7f60000a7fe00005f
:104d180024fd000006fc0000230300002306000019
:104d2800430700009d090000110e0000b6110000a5
:104d38004c09000040f800004deb000001eb0000ba
:104d4800c6f2000032fb000078fd000085fd00007f
:104d5800d4040000ff07000041070000cf0800004e
:104d68000e0b0000f60e00007a0a0000b5fb0000ea
:104d7800d3ed0000e9ea0000fff1000027fb000086
:104d880001000000b6fe00002d0300000807000027
:104d980058030000dc020000870700005f110000d4
:104da8001014000081060000f5f20000ade80000d4
:104db800eeec00008bf70000f8fe000096fd000006
:104dc800f4fd0000c7050000d1070000e20700005d
:104dd80046090000900c000027100000c1080000e0
:104de80011f900009eec0000d1eb0000c4f30000b4
:104df80047fd0000d1000000d4ff0000300500008e
:104e08001807000097040000a605000089080000a4
:104e1800ab0e0000810e00005902000019f30000db
:104e280026ec00008ff00000f5f900008200000079
:104e3800fefe0000deff00003c0500001a04000032
:104e48002c030000bf060000330e00008913000089
:104e5800fb0b0000cffa0000e0ec000072eb000052
:104e6800c3f3000016fd00008dff00005ffd000089
:104e7800af020000d60700002f060000e60500007c
:104e880039080000e00c0000640d0000da0300009f
:104e9800daf50000dfed0000b3f0000038f900009b
:104ea8001d000000fffe00002afd00004102000076
:104eb8009d0300000a030000eb060000b70b00008a
:104ec8001f0f0000fb0b000066ff0000baf2000095
:104ed80083ef00006cf40000c2fa0000a5fc00009b
:104ee8007bf900003bfc00008a05000096060000e4
:104ef800c403000037060000310c00006d100000ec
:104f0800c00a0000b8fb000080ef000016ee0000a9
:104f1800e0f4000092fb00004cfc0000f1f80000f7
:104f2800b2fd0000c50700004c0700000a0300009e
:104f380077040000540b00007d100000cc0900002d
:104f4800cbfa0000f9ef000099ef00001df6000011
:104f580040fb000068fa00005af700008afd0000d4
:104f68002e0800005808000017040000b1040000d3
:104f7800440a0000750e0000220900002dfc000004
:104f880072f10000e1ef00005bf50000ccfa0000d0
:104f9800a4fb00007df90000e6fe0000d907000030
:104fa800e50600005602000080030000c909000061
:104fb800f30d0000dc09000001ff000081f500008e
:104fc8000df2000028f40000a3f80000ccfa00005d
:104fd800b5f90000aefd000075060000e606000009
:104fe80065010000c50100003d0a00003d110000f8
:104ff800bd0e0000e901000093f4000077ef000007
:1050080062f200005ef8000069fa0000f9f800009a
:10501800ccfb00002d070000240d000088060000ce
:105028001b010000a7030000ba0800001d0c0000c7
:10503800650700009bfb00005ef20000def0000048
:1050480054f7000074fe000031ff000046fb00002a
:105058006afe0000c0040000ec02000087ff0000a8
:1050680082040000090e0000aa120000530e00007e
:10507800a5000000e8f3000011ef0000e6f10000d1
:10508800a7f7000032fa000003fa0000a0fe0000b3
:10509800450a0000f90c0000de02000024fd0000b3
:1050a80040040000490e0000da1000006e080000fd
:1050b800f7f90000d3f00000a0f00000f5f60000ba
:1050c800dafc000072fd0000c0fb00005401000083
:1050d800c50a0000180800004afe000030fd000064
:1050e80026070000de1000009d11000029070000bf
:1050f800a1f800007bf0000003f20000d2f80000e5
:10510800c1fb0000faf90000f6f900007f04000076
:10511800cb0e0000f6080000b9fd000063fe000099
:10512800ec080000f40e0000510c000074020000ae
:10513800cef70000d6f200000bf5000088fa000058
:10514800c6fb0000bbf9000037fa00002905000083
:105158001a0e000084050000f1f9000087fd000028
:10516800c30c00001e150000580f00000d000000c1
:10517800d0f2000083ef000057f40000c2fa0000ec
:1051880009fb000091f80000e6fa0000e5070000be
:1051980037110000e205000067f60000eef8000095
:1051a800740b00009a170000b6110000ecff000015
:1051b80001f10000d2ee00004af500006efb00008d
:1051c800fff9000037f6000076f900006c080000cf
:1051d80045140000eb08000002f50000aaf30000e7
:1051e80002070000d91600003a130000f801000079
:1051f800baf20000dcf00000c8f70000edfc000087
:10520800f1f90000e2f3000013f50000520300007a
:10521800e1120000550c00006af700001ff20000c0
:10522800180500005819000054180000b0040000c8
:1052380047f0000036eb0000f0f30000bdfd000071
:105248003bfe00006ff600008bf300005afe0000e2
:10525800171200006d140000b0fd000037ec0000cc
:1052680004f7000036110000ac1b00007d0f0000a1
:1052780005fa0000dced0000a2f200000afd0000c3
:10528800b3ff000072f600000dee0000fcf3000012
:105298002f090000601a0000750d0000e5f10000fc
:1052a800c6eb0000d1030000491c0000ba19000039
:1052b8003403000013ef00003fee000020fb000065
:1052c8002d03000042fc000031ee00006eec0000ef
:1052d8006cfd000099160000e01a00009cfe00001a
:1052e80031e5000013ee0000bd100000e2240000cc
:1052f8009b160000d5f9000006ea000096f10000b0
:10530800290100005e030000dbf4000075e70000df
:10531800b6ee0000be070000881e0000ce16000092
:1053280016f300004ddf000070f40000e01a0000e2
:1053380031260000b50d000023f00000d2ea00007d
:10534800cffc0000ed0a0000ac0100009cea000060
:1053580069e00000dcf10000bf0f000069200000d8
:105368002f100000afea0000cfdc0000fdf90000bc
:1053780019230000402b00007d0c0000afea00005c
:10538800f3e8000021020000201100009100000055
:10539800bae20000edd9000022f400004018000035
:1053a80038250000220e0000e2e5000034d9000094
:1053b8003bf900000a2500008c2d00008a0d000032
:1053c8008aeb000082eb0000da050000f81200000a
:1053d800e7fe000075df00004fd800008cf40000e5
:1053e8007d180000ae220000420d00004ce90000cc
:1053f80097db00001ff7000094200000f22c00004b
:105408003112000044f0000072eb00003a03000083
:105418005b130000e902000015e30000c8d8000093
:10542800b9f1000099150000611f0000e00a0000b2
:1054380086ef00008ce2000050ee00007f0a0000ba
:1054480093200000261f00008d0c000032fe000093
:1054580097000000bc070000afff0000f0e8000064
:105468001cda0000b2e5000039030000e61700006e
:105478001a140000f803000004f5000015ef0000fe
:1054880087f90000760d00008b1800004d11000010
:10549800bc0100006dfc0000110600004c0c00006f
:1054a800acff000061e900000fe000008ced000097
:1054b80045050000c71100005b0c000090ff0000cc
:1054c80042f300005cef000073fc0000a91000002c
:1054d800f9190000c01300008c080000d604000071
:1054e800f40500001b00000070f000003de2000021
:1054f80057e4000095f60000260a00002d10000071
:10550800550900000501000046f80000acf2000053
:1055180099f900007b0b00005119000010160000db
:105528003008000031000000b70200000903000045
:10553800cbf7000005e90000e9e4000043f10000b2
:1055480051040000d60d0000fd090000b3fd000065
:1055580030f10000d0f2000021060000961800008b
:10556800d7170000c8070000b6fb0000cc000000f9
:10557800de0b000089080000def4000081e4000072
:10558800a5e9000032fd0000140a0000f60500003d
:105598002efb000080f80000b7fa00008afa00002d
:1055a800f8fc000077080000d2130000dd110000ad
:1055b800d9060000750100002f070000070b000046
:1055c8004b0100004af0000098e800007cf1000060
:1055d800e2fe000049020000cafc000017fb0000c0
:1055e8007b0100000e03000058f800009cf1000049
:1055f800c5000000ed170000e31a0000240a0000af
:105608005cfb0000c3fc000052080000440b0000d3
:10561800d8fd0000d5ec000022ea000063f7000086
:1056280019060000f50600008bfc000048f5000094
:10563800fef50000faf900007aff00007509000085
:10564800de1200008211000097060000f3ff000040
:1056580041020000d902000036fb000055f20000ac
:10566800c9f200000afe0000ed080000d60700009d
:10567800dbfd000056f3000057f0000071fa00004f
:10568800c40900004f0e00000e0600007aff00005b
:105698009a030000970b0000d609000011fb0000d8
:1056a800e8ec00000bee0000f4fb00002d09000000
:1056b800c80b0000fa0500006aff000026f8000089
:1056c80065f20000dcf70000b90600004612000091
:1056d800f91100005d090000b9030000de020000b6
:1056e800befe000081f30000c2e70000a7e700004b
:1056f80080f6000001090000f60f0000230a0000f0
:10570800a101000075f80000e9f20000edf90000c1
:10571800c60b00006a190000e4150000f707000036
:105728002b000000c6020000f20200008ff7000004
:10573800d8e80000fde400008ef1000091040000ac
:10574800de0d0000da09000078fd000012f100000b
:1057580000f3000080060000be180000ab17000030
:1057680082070000a2fb0000ff000000f40b00000d
:105778005808000086f400005fe40000e7e9000034
:105788007dfd0000250a0000d10500000cfb00008b
:1057980089f80000bafa000085fa000017fd000039
:1057a800b0080000e8130000b8110000ae060000c1
:1057b8007a0100004e070000000b000008010000fd
:1057c8000cf00000a2e80000adf100002dff000081
:1057d800ea020000eafc0000dcf90000b9ff000062
:1057e8004f0200007df90000d8f300002d020000f0
:1057f800f016000018180000a50800005dfd000064
:105808004b000000730900003e09000069fc00001d
:1058180083ef000051ef00002ef90000bf000000e8
:105828000cfe00001ef70000dff700008afe0000f3
:1058380023ff0000cff900009bfd00007e0c000054
:10584800851400008e0b000051ff0000a1fe00002f
:10585800650500002b0900005c05000036fd00000e
:105868001df9000022fb000029fc0000d2f700000f
:10587800b1f10000caf1000066fb0000dd04000081
:10588800c8000000ddf60000b8fc0000af0e000004
:105898000a1400007805000041f3000054f40000e9
:1058a800320a0000a6190000e310000047fd0000be
:1058b8005ff60000bfff0000880600001ffb000025
:1058c800a3e7000009e300008cf50000980b000036
:1058d8006c0d00000bfe000086f2000024f80000aa
:1058e800520900006d100000ce00000089f200008f
:1058f80028fa0000010e0000441900008910000079
:105908006601000079fe00004d0500008d050000cd
:105918000ef90000a9e9000072e60000c6f30000d5
:105928007103000056070000b000000032f90000c3
:1059380095fa000090010000130800008c05000093
:1059480090fa000029f7000027000000680f000007
:105958004c150000100e00004e04000094000000da
:10596800e1040000f0070000670000000af10000f1
:10597800c7e8000091ef0000d1fc0000f002000031
:10598800a5fe000037f900004bfa000055ff0000a3
:10599800fe0100005c03000061020000ccff000073
:1059a800090000005c0300000d08000086090000e3
:1059b800e0080000bb0500006a02000007040000c0
:1059c800de060000740400005afe0000bcf9000066
:1059d80025f800008af70000dbf5000059f4000004
:1059e8001cfa0000420500001e06000005f9000030
:1059f80044f0000025fd0000e30c00005a0a0000f6
:105a0800c7f80000d5f400007008000091110000ec
:105a180038060000f6fc0000d90000005708000016
:105a28000c0a0000c905000021030000030400005f
:105a38004102000030fd000041f90000d2f50000ed
:105a480028f4000095f8000073fb000087fa0000b6
:105a580019fa00003ffb00000fff00005f03000081
:105a6800d006000036020000c1f700004dfa000021
